:020000040800F2
:100000009006002089010008110D0008F90A000877
:100010000D0D00083B0200086D11000800000000F3
:100020000000000000000000000000002510000893
:100030007108000800000000DD0D0008F91000083C
:10004000A3010008A3010008A3010008A301000800
:10005000A3010008A3010008A3010008A3010008F0
:10006000A3010008A3010008A3010008A3010008E0
:10007000A3010008A3010008A3010008A3010008D0
:10008000A3010008A3010008A3010008A3010008C0
:10009000A3010008A3010008A301000873080008D9
:1000A000A3010008A3010008A3010008A3010008A0
:1000B000A3010008A3010008A3010008A301000890
:1000C000A3010008A3010008A3010008A301000880
:1000D000A3010008A3010008A3010008A301000870
:1000E000A3010008A3010008A301000800F002F822
:1000F00000F03AF80AA090E8000C82448344AAF188
:100100000107DA4501D100F02FF8AFF2090EBAE885
:100110000F0013F0010F18BFFB1A43F0010318473B
:100120000C1500002C150000103A24BF78C878C1C7
:10013000FAD8520724BF30C830C144BF04680C60ED
:10014000704700000023002400250026103A28BF35
:1001500078C1FBD8520728BF30C148BF0B60704739
:100160001FB51FBD10B510BD00F031F81146FFF7E7
:10017000F7FF01F05DF800F04FF803B4FFF7F2FF6E
:1001800003BC00F053F800000948804709480047C5
:10019000FEE7FEE7FEE7FEE7FEE7FEE7FEE7FEE737
:1001A000FEE7FEE704480549054A064B7047000094
:1001B000FD100008ED0000089000002090060020CF
:1001C00090020020900200207047704770477546EB
:1001D00000F028F8AE4605006946534620F00700B7
:1001E000854618B020B5FFF7DDFFBDE820404FF091
:1001F00000064FF000074FF000084FF0000B21F011
:100200000701AC46ACE8C009ACE8C009ACE8C009DD
:10021000ACE8C0098D4670470446AFF30080204625
:10022000FFF7ABFF004870472C0000200149182061
:10023000ABBEFEE726000200704700BFFEE70000ED
:100240002DE9F04105460E4617464FF480511248FD
:1002500000F04EFC00BF4FF480410F4800F03FFC1F
:100260000028F8D105F1C001C8B200F0EDF900BFD7
:1002700000BF00BF002405E0FF2000F0B3F93055B7
:10028000601CC4B2BC42F7DB4FF48051024800F05E
:1002900031FCBDE8F0810000000C01402DE9F04781
:1002A00005460E4617464FF48051274800F020FCC3
:1002B00000BF4FF48041244800F011FC00200028CA
:1002C000F7D105F14001C8B200F0BEF900BF00BF90
:1002D00000BF00242FE016F804904FF0000825E03E
:1002E00019F0800F05D04FF40041174800F002FCD0
:1002F00004E04FF40041144800F0FAFB4FEA496073
:100300004FEA10694FF400510F4800F0F1FB012053
:1003100000F074FF4FF400510B4800F0EBFB01209C
:1003200000F06CFF08F1010000F0FF08B8F1080FC1
:10033000D6DB601CC4B2BC42CDDB4FF48051024816
:1003400000F0D8FBBDE8F087000C014010B500F0CC
:100350009EF8322000F052FF3A2000F063FA0120AC
:1003600000F04CFF10BD0000172001218140034A1E
:10037000430942F8231000BF7047000080E100E00D
:1003800017200121814042094FF0E02303EB820254
:10039000C2F8001100BF704710B54FF40051284853
:1003A00000F0A8FB4FF40041254800F0A1FB4FF4FA
:1003B0008051234800F09EFB1E2000F01FFF4FF4E9
:1003C00080511F4800F094FB1E2000F017FF4FF4EF
:1003D00080511B4800F08EFB3C2000F00FFF4FF4D3
:1003E0008051174800F084FB00BF4FF4804114484F
:1003F00000F075FB00200028F7D1302000F024F930
:1004000000BF4FF480410E4800F069FB0020002837
:10041000F7D14FF480510A4800F06CFB094800F016
:100420006BF93A2000F0FEF9012000F0E7FE3B20D6
:1004300000F0F8F9012000F0E1FE00F02DF910BD08
:10044000000C0140841200080EB50821002000F0C5
:100450009DFA4FF48070009000208DF804000C206D
:100460008DF8050001208DF80600684600F038FA86
:1004700017208DF808000F208DF809008DF80A006C
:1004800001208DF80B0002A800F044FC0EBD10B551
:10049000362000F0C7F9322000F0B0FE10BD10B5D4
:1004A000342000F0BFF9322000F0A8FEFFF768FF0B
:1004B00010BD000008B54FF42040ADF8000010203A
:1004C0008DF8030001208DF802006946164800F0FF
:1004D0007DFA4FF48040ADF8000028208DF803002D
:1004E00001208DF8020069460F4800F06FFA4FF4C2
:1004F0008050ADF8000010208DF8030001208DF829
:1005000002006946084800F061FA4FF41060ADF847
:10051000000004208DF8030001208DF802006946D8
:10052000024800F053FA08BD000C014000080140E9
:1005300070B50446FF254FF48051114800F0D8FAF9
:1005400000BF4FF480410E4800F0C9FA0020002897
:10055000F7D104F18001C8B200F076F800BF00BF07
:1005600000BFFF2000F03EF8054600BF00BF00BFFF
:100570004FF48051024800F0BDFA284670BD0000DB
:10058000000C014008B52021154800F067F9012250
:1005900069463B20FFF754FE9DF8000010F07F0FE6
:1005A00019D03F20FFF7C4FF00909DF800000C49D0
:1005B00008709DF80000202809DC9DF80020491CE7
:1005C0003F20FFF73DFEFFF7C1FE012008BDFFF70A
:1005D000BDFE0020FAE7FFF7B9FE0020F6E70000B5
:1005E0000C00002070B505460024002626E06006B9
:1005F000040E15F0800F05D04FF40041114800F0B3
:1006000079FA04E04FF400410E4800F071FA4FF41B
:1006100000510C4800F06CFA012000F0EFFD4FF49F
:100620000051084800F066FA4FF48041054800F098
:1006300056FA08B1601CC4B2701CC6B2082ED6DBD4
:10064000204670BD000C014070B5044600251EE038
:1006500014F0800F05D04FF400410E4800F04AFA24
:1006600004E04FF400410B4800F042FA6006040E2B
:100670004FF40051074800F03BFA012000F0BEFDA6
:100680004FF40051034800F035FA681CC5B2082D3C
:10069000DEDB70BD000C014010B5012202493E2096
:1006A000FFF7FCFD10BD00000000002070B50446FF
:1006B0000D464FF480510F4800F01AFA00BF4FF476
:1006C00080410C4800F00BFA00200028F7D1E0B27E
:1006D000FFF7BAFF00BF00BF00BF2846FFF7B4FF17
:1006E00000BF00BF00BF4FF48051024800F002FA83
:1006F00070BD0000000C014010B5044604F1060472
:1007000061794FF00B00FFF7D1FFA1790C20FFF7C3
:10071000CDFFE1790D20FFF7C9FF217A0E20FFF709
:10072000C5FF617A0F20FFF7C1FFA17A1020FFF704
:10073000BDFFE17A1120FFF7B9FF217B1220FFF7FF
:10074000B5FF617B1320FFF7B1FFA17B1420FFF7FA
:10075000ADFF21790A20FFF7A9FFE17B1520FFF704
:10076000A5FFE17E2120FFF7A1FF217F2220FFF7D7
:100770009DFFA17C1820FFF799FFE17C1920FFF76E
:1007800095FF217D1A20FFF791FF617D1B20FFF768
:100790008DFFA17D1C20FFF789FFE17D1D20FFF764
:1007A00085FF617F2320FFF781FFA17F2420FFF7D2
:1007B0007DFFE17F2520FFF779FF94F820102620A8
:1007C000FFF774FF94F823102920FFF76FFF94F8C8
:1007D00026102C20FFF76AFF94F827102D20FFF732
:1007E00065FF94F828102E20FFF760FF14F8061C10
:1007F0000020FFF75BFF14F8041C0220FFF756FFF0
:1008000061780720FFF752FFA1780820FFF74EFF1D
:10081000E1780920FFF74AFF14F806190620FFF7D0
:1008200045FF10BD10B504464FF480510A4800F052
:100830005FF900BF4FF48041074800F050F90028ED
:10084000F8D12046FFF700FF00BF4FF48051024867
:1008500000F050F910BD0000000C014002460020DD
:1008600003E000231354431CD8B28842F9DB7047DD
:10087000704710B54FF4807000F01CF878B14FF459
:10088000807000F011F8FFF76FFDFFF77BFE012885
:1008900005D14FF47A7000F091FC00F05FFCFFF797
:1008A00055FDFFF7FCFD10BD0149086070470000D1
:1008B00014040140014600200022074B1B6803EA94
:1008C0000102064BD3F814340B4202D00AB10120C6
:1008D00000E00020704700000004014000000140DB
:1008E000002127498279DAB3264AD2F80024036826
:1008F0009A43244BC3F800241A46D2F80424036810
:100900009A4301F104031A60027911440A680368EA
:1009100042EA03020A601B4AD2F80824036822EA6A
:100920000302184BC3F808241A46D2F80C240368B3
:1009300022EA0302144B1A604279102A11D1114A9B
:10094000D2F8082403681A430E4BC3F808241A4649
:10095000D2F80C2403681A430A4BC3F80C240EE0A7
:1009600007E00749427911440A6803681A430A609C
:1009700005E0027911440A6803689A430A607047E7
:1009800000040140000001400C04014030B5002289
:100990008B071C0F0F2303FA04F20B4B8C1053F838
:1009A00024309343084C8D1044F8253023468C1096
:1009B00053F824308C07240F00FA04F42343024C2C
:1009C0008D1044F8253030BD080001402DE9F0417C
:1009D000024600250026002000230024002791F86D
:1009E00003C00CF00F0591F803C01CF0100F03D0EA
:1009F00091F802C04CEA0505B1F800C01CF0FF0FE9
:100A000031D0146800202BE04FF0010C0CFA00F3F9
:100A1000B1F800C00CEA03069E4220D183004FF0DB
:100A20000F0C0CFA03F7BC4305FA03FC4CEA040470
:100A300091F803C0BCF1280F06D14FF0010C0CFA5D
:100A400000FCC2F814C00AE091F803C0BCF1480FE2
:100A500005D14FF0010C0CFA00FCC2F810C0401C8C
:100A60000828D1D31460B1F800C0BCF1FF0F34DD09
:100A7000546800202EE000F1080C4FF0010808FA3D
:100A80000CF3B1F800C00CEA03069E4221D18300AA
:100A90004FF00F0C0CFA03F7BC4305FA03FC4CEAC9
:100AA000040491F803C0BCF1280F05D100F1080C33
:100AB00008FA0CF8C2F8148091F803C0BCF1480F92
:100AC00007D100F1080C4FF0010808FA0CF8C2F841
:100AD0001080401C0828CED35460BDE8F081024647
:100AE000002093680B4201D0012000E000207047F5
:100AF000416170470161704700BFFEE770B500219A
:100B0000084600F047F800240BE0002505E001212D
:100B1000002000F057F8681CC5B2542DF7DB601CAC
:100B2000C4B2062CF1DB70BD10B54FF480711748CC
:100B3000FFF7E0FF4FF400711448FFF7D9FF0A20D8
:100B400000F030FB4FF400711048FFF7D3FF642032
:100B500000F028FB0021212000F034F800211320B0
:100B600000F030F80021BB2000F02CF800212020FC
:100B700000F028F800210C2000F024F84FF48051F8
:100B80000348FFF7B7FFFFF7B9FF10BD000C0140A6
:100B90000008014070B505460C4644F0400445F09D
:100BA00080050021204600F00DF80021284600F0C5
:100BB00009F84FF480710248FFF79CFF70BD0000F8
:100BC000000C014070B504460E464FF480711B487E
:100BD000FFF78EFF26B980211848FFF789FF03E051
:100BE00080211648FFF786FF002517E014F0800FDC
:100BF00004D040211148FFF77DFF03E040210F485A
:100C0000FFF776FF6006040E20210C48FFF770FF07
:100C100020210A48FFF76EFF681CC5B2082DE5DBEE
:100C200080210648FFF766FF4FF480710348FFF705
:100C300061FF40210148FFF75DFF70BD000C0140DE
:100C40002DE9F04781460F461446124EA4F12000CC
:100C5000C4B204EB440006EB4006002515E0781909
:100C6000C1B24846FFF796FF4FF0000808E016F8BB
:100C7000010B0121FFF7A6FF08F1010000F0FF08BA
:100C8000B8F1060FF3DB681CC5B2012DE7DBBDE848
:100C9000F0870000B31200082DE9F04105460E462A
:100CA00014460027B84619E014F8012B31462846AF
:100CB000FFF7C6FFA81DC5B2781CC7B20E2F08DB10
:100CC000002506F10800C6B2002708F1010000F077
:100CD000FF08B8F1060F01DBBDE8F081207800289D
:100CE000E2D100BFF8E7000008B510208DF803003E
:100CF000C001ADF8000002208DF8020069460248EC
:100D0000FFF764FE08BD0000000C014000BFFEE7D5
:100D10007047000070B5002100230F22C4784CB347
:100D20001A4C246804F4E064C4F5E0644FEA14212A
:100D3000C1F1040322FA01F2447804FA03F1847841
:100D400004EA020444EA01014FEA0111104C06785A
:100D5000A155047804F01F054FF0010404FA05F4CE
:100D600005784FEA65154FF0E02606EB8505C5F8D6
:100D7000004109E0047804F01F050124AC40054D52
:100D80000678761145F8264070BD00000CED00E0B5
:100D900000E400E080E100E008B54FF47870ADF8C1
:100DA000000010208DF8030001208DF80200694634
:100DB0000848FFF70BFE4FF48050ADF800001020FC
:100DC0008DF8030002208DF8020069460248FFF703
:100DD000FDFD08BD000C0140000801407047000007
:100DE00029B1064A92690243044B9A6104E0034A1E
:100DF00092698243014B9A617047000000100240E3
:100E000010B500F041F84FF4803000F095F800F094
:100E1000F1F80446012C1ED1002000F081F8A00258
:100E200000F0BCF8A00200F0ADF84FF4E01120048F
:100E300000F0C6F8012000F0BDF800BF392000F036
:100E400049F80028FAD0022000F0C8F800BF00F0EE
:100E50005FF80828FBD101210420FFF7C1FF012121
:100E60000820FFF7BDFF01211020FFF7B9FF012186
:100E70000846FFF7B5FF01218803FFF7B1FF4820BF
:100E800000F076F910BD00000F48006840F0010046
:100E90000D490860084640680C4908400A49486006
:100EA000084600680A490840074908600846006883
:100EB00020F4802008600846406820F4FE00486066
:100EC0004FF41F0088607047001002400000FFF8D8
:100ED000FFFFF6FE10B501460022002300204A1154
:100EE000012A02D1094C236806E0022A02D1074CEC
:100EF000236A01E0054C636A01F01F02012494405B
:100F00001C4201D0012000E0002010BD0010024072
:100F10000248406800F00C007047000000100240DA
:100F200001460020034A506820F0F000084350605A
:100F300070470000001002401149096821F4803117
:100F40000F4A11601146096821F480211160B0F543
:100F5000803F03D0B0F5802F0ED106E00849096824
:100F600041F48031064A116007E00549096841F4FF
:100F7000A021034A116000E000BF00BF70470000DD
:100F80000010024001460020034A506820F4E0604F
:100F900008435060704700000010024001460020E6
:100FA000034A506820F4605040EAC1005060704726
:100FB00000100240014908667047000000004242EC
:100FC00002460020044B586820F47C1042EA0103DA
:100FD0001843014B58607047001002400146002042
:100FE000034A506820F00300084350607047000037
:100FF0000010024070B500240025002600BF3120FB
:10100000FFF768FF0646641CB4F5A06F01D0002E00
:10101000F5D03120FFF75EFF08B1012500E0002583
:10102000284670BD704710B500F002F810BD0000F2
:10103000002100202E4A126842F480322C4B1A60A4
:1010400000BF2B4A126802F40030491C10B9B1F5F8
:10105000A06FF6D1264A126812F4003F01D0012099
:1010600000E00020012842D1224A126842F010021A
:10107000204B1A601A46126822F003021A601A46C0
:10108000126842F002021A60194A5268184B5A60FC
:101090001A4652685A601A46526842F480625A6090
:1010A0001A46526822F47C125A601A46526842F478
:1010B000E8125A601A46126842F080721A6000BF45
:1010C0000B4A126812F0007FFAD0094A526822F0E7
:1010D0000302074B5A601A46526842F002025A60F5
:1010E00000BF034A526802F00C02082AF9D1704787
:1010F00000100240002002407047000010B5134865
:10110000006840F001001149086008464068104935
:1011100008400E494860084600680E4908400B49DF
:1011200008600846006820F480200860084640688F
:1011300020F4FE0048604FF41F008860FFF773FF43
:101140004FF000600449086010BD0000001002402C
:101150000000FFF8FFFFF6FE08ED00E00248002166
:1011600001608180817170470C00002000BFFEE7A4
:101170004FF0E021096921F004014FF0E0221161F4
:10118000C21700EB5272D210044B1A70194609783C
:101190004FF47A725143024A1180704708000020D0
:1011A0000A000020014605E06E2200E0521E002ADF
:1011B000FCDC491E0029F7DC704700000E49098855
:1011C00041434FF0E02251611146096941F00101AC
:1011D000116100BF4FF0E021096911F4803FF9D09F
:1011E0004FF0E021096921F001014FF0E022116187
:1011F00000219161704700000A0000200B49097826
:1012000041434FF0E02251611146096941F001016B
:10121000116100BF4FF0E021096911F4803FF9D05E
:1012200000214FF0E0221161916170470800002019
:1012300000BFFFF763FFFFF7E3FDFFF755FD4FF436
:1012400000610C48FFF754FCFFF7A6FDFFF732F9E9
:10125000FFF76AFC08A201211520FFF71DFDFFF72B
:101260009BF8FFF714F9FFF7EFF8FFF718F900BF45
:10127000FEE70000000C0140467265655465616D33
:1012800000000000062E0606D391FF044500000969
:10129000005D93B12D3B7322F8470000181D1CC759
:1012A00000B2000000B610EA0A0011000059000068
:1012B00088310B0000000000000000002F0000003B
:1012C000000700070000147F147F1400242A7F2ADF
:1012D00012006264081323003649552250000005AD
:1012E00003000000001C224100000041221C0000FD
:1012F00014083E08140008083E0808000000A0601A
:1013000000000808080808000060600000002010C5
:10131000080402003E5149453E0000427F40000063
:101320004261514946002141454B31001814127F5A
:1013300010002745454539003C4A494930000171B4
:1013400009050300364949493600064949291E0066
:101350000036360000000056360000000814224116
:101360000000141414141400004122140800020197
:1013700051090600324959513E007C1211127C007D
:101380007F49494936003E41414122007F41412287
:101390001C007F49494941007F09090901003E417C
:1013A00049497A007F0808087F0000417F4100001A
:1013B0002040413F01007F08142241007F4040400F
:1013C00040007F020C027F007F0408107F003E4136
:1013D00041413E007F09090906003E4151215E005E
:1013E0007F091929460046494949310001017F0119
:1013F00001003F4040403F001F2040201F003F4071
:1014000038403F00631408146300070870080700A1
:10141000615149454300007F41410000552A552A4A
:1014200055000041417F00000402010204004040D9
:101430004040400000010204000020545454780051
:101440007F484444380038444444200038444448E9
:101450007F00385454541800087E0901020018A473
:10146000A4A47C007F080404780000447D400000B0
:101470004080847D00007F102844000000417F40B0
:1014800000007C04180478007C08040478003844C8
:1014900044443800FC242424180018242418FC0098
:1014A0007C0804040800485454542000043F44407D
:1014B00020003C4040207C001C2040201C003C4080
:1014C00030403C004428102844001CA0A0A07C0010
:1014D0004464544C441414141414140A32C2321EBA
:1014E0000807E404140C00040300030804030003C9
:1014F00004080011F200FE824100FE0202FE000814
:101500000708090808080F080909002010FC031043
:10151000CF04F404548C0000000F000201080F00F7
:101520000003008C45F55555EF455555550C000009
:101530000007050507050505050400007F41655501
:10154000CF556541FF0000040300070404050407AC
:1015500000030020222AB262FF62B22A2220000287
:1015600002010000070000010202008884F3929249
:1015700092FE92929282000000000000000700009C
:10158000000000000000FF49494949FF0000000039
:1015900004020100000404070000000000FF111114
:1015A00011111111FF0000000007020202020202E5
:1015B000070000FE2222FE04146404FF040400035A
:1015C000010103000004040700000020102C23E0A8
:1015D000202023EC10200004040201000404040372
:1015E0000000008A6AFF29483C007F00C4180001FF
:1015F0000007040404020201000000897200C05FB9
:10160000D555D555DF00000700040704070407047B
:1016100007040000FE0A8ABEAAABAABE0A0A000698
:101620000104040403020304040400004C1600082F
:10163000000000200C0000002801000858160008D7
:101640000C0000208406000044010008FBFE00009E
:08165000000000000000000092
:040000050800018965
:00000001FF
