:020000040800F2
:10000000B006002089010008750C00085D0A000890
:10001000710C0008430200085D1000080000000099
:100020000000000000000000000000000D0F0008AC
:10003000B108000800000000BD0C0008F90F00081E
:10004000A3010008A3010008A3010008A301000800
:10005000A3010008A3010008A3010008A3010008F0
:10006000A3010008A3010008A3010008A3010008E0
:10007000A3010008A3010008A3010008A3010008D0
:10008000A3010008A3010008A3010008A3010008C0
:10009000A3010008A3010008A3010008B508000897
:1000A000A3010008A3010008A3010008A3010008A0
:1000B000A3010008A3010008A3010008A301000890
:1000C000A3010008A3010008A3010008A301000880
:1000D000A3010008A3010008A3010008A301000870
:1000E000A3010008A3010008A301000800F002F822
:1000F00000F03AF80AA090E8000C82448344AAF188
:100100000107DA4501D100F02FF8AFF2090EBAE885
:100110000F0013F0010F18BFFB1A43F0010318473B
:100120004414000064140000103A24BF78C878C159
:10013000FAD8520724BF30C830C144BF04680C60ED
:10014000704700000023002400250026103A28BF35
:1001500078C1FBD8520728BF30C148BF0B60704739
:100160001FB51FBD10B510BD00F031F81146FFF7E7
:10017000F7FF00F0EBFF00F04FF803B4FFF7F2FFDA
:1001800003BC00F057F800000948804709480047C1
:10019000FEE7FEE7FEE7FEE7FEE7FEE7FEE7FEE737
:1001A000FEE7FEE704480549054A064B7047000094
:1001B000FD0F0008ED000008B0000020B006002090
:1001C000B0020020B00200207047704770477546AB
:1001D00000F02CF8AE4605006946534620F00700B3
:1001E000854618B020B5FFF7DDFFBDE820404FF091
:1001F00000064FF000074FF000084FF0000B21F011
:100200000701AC46ACE8C009ACE8C009ACE8C009DD
:10021000ACE8C0098D46704710B50446AFF30080C6
:100220002046BDE81040FFF7A8BF00000048704717
:100230005000002001491820ABBEFEE72600020056
:10024000704700BFFEE700002DE9F04105460E466D
:1002500017464FF48051124800F0FCFB00BF4FF4EA
:1002600080410F4800F0EDFB0028F8D105F1C001F6
:10027000C8B200F0DFF900BF00BF00BF002405E0F6
:10028000FF2000F0A5F93055601CC4B2BC42F7DB7A
:100290004FF48051024800F0DFFBBDE8F081000020
:1002A000000C01402DE9F04705460E4617464FF475
:1002B0008051274800F0CEFB00BF4FF48041244816
:1002C00000F0BFFB00200028F7D105F14001C8B2C3
:1002D00000F0B0F900BF00BF00BF00242FE016F807
:1002E00004904FF0000825E009F0800028B14FF499
:1002F0000041174800F0B0FB04E04FF400411448FF
:1003000000F0A8FB4FEA49604FEA10694FF4005132
:100310000F4800F09FFB012000F0FCFE4FF400515D
:100320000B4800F099FB012000F0F4FE08F10100F9
:1003300000F0FF08B8F1080FD6DB601CC4B2BC4265
:10034000CDDB4FF48051024800F086FBBDE8F0871A
:10035000000C014010B500F087F8322000F0DAFE02
:100360003A2000F07FFA012000F0D4FE10BD10B555
:1003700000F07AF8322000F0CDFE3B2000F072FA57
:10038000012000F0C7FE10BD172001218140034A63
:10039000430942F8231000BF7047000080E100E0ED
:1003A0001720012181404209920002F1E022C2F8A7
:1003B000001100BF7047000010B54FF400512848ED
:1003C00000F04AFB4FF40041254800F043FB4FF496
:1003D0008051234800F040FB1E2000F09BFE4FF4AC
:1003E00080511F4800F036FB1E2000F093FE4FF4B2
:1003F00080511B4800F030FB3C2000F08BFE4FF496
:100400008051174800F026FB00BF4FF4804114488C
:1004100000F017FB00200028F7D1302000F00AF987
:1004200000BF4FF480410E4800F00BFB0020002875
:10043000F7D14FF480510A4800F00EFB094800F054
:100440007DF93A2000F00EFA012000F063FE3B2017
:1004500000F008FA012000F05DFE00F02BF910BD5D
:10046000000C0140BC11000810B5362000F0FAF96C
:10047000322000F04FFE10BD10B5342000F0F2F92C
:10048000322000F047FEFFF78BFF10BD10B535207E
:1004900000F0E8F9322000F03DFEFFF775FF10BDD7
:1004A00008B54FF42040ADF8000010208DF803008F
:1004B00001208DF802006946164800F037FA4FF423
:1004C0008040ADF8000028208DF8030001208DF851
:1004D000020069460F4800F029FA4FF48050ADF849
:1004E000000010208DF8030001208DF802006946FD
:1004F000084800F01BFA4FF41060ADF8000004202B
:100500008DF8030001208DF802006946024800F0D2
:100510000DFA08BD000C01400008014070B504460A
:10052000FF254FF48051114800F094FA00BF4FF4BA
:1005300080410E4800F085FA00200028F7D104F130
:100540008001C8B200F076F800BF00BF00BFFF20F6
:1005500000F03EF8054600BF00BF00BF4FF48051D9
:10056000024800F079FA284670BD0000000C0140F6
:1005700008B52021154800F091F9012269463B2079
:10058000FFF762FE9DF8000000F07F00C8B13F2039
:10059000FFF7C4FF00909DF800000C4908709DF81B
:1005A0000000202809DC9DF80020491C3F20FFF7AF
:1005B0004BFEFFF7CFFE012008BDFFF7CBFE00206A
:1005C000FAE7FFF7C7FE0020F6E700003000002042
:1005D00070B505460024002626E06006040E05F0EE
:1005E000800028B14FF40041114800F035FA04E0D2
:1005F0004FF400410E4800F02DFA4FF400510C4822
:1006000000F028FA012000F085FD4FF40051084861
:1006100000F022FA4FF48041054800F012FA08B1C8
:10062000601CC4B2701CC6B2082ED6DB204670BD5A
:10063000000C014070B5044600251EE004F0800067
:1006400028B14FF400410E4800F006FA04E04FF4E0
:1006500000410B4800F0FEF96006040E4FF4005113
:10066000074800F0F7F9012000F054FD4FF4005165
:10067000034800F0F1F9681CC5B2082DDEDB70BD3F
:10068000000C014010B5FFF77FFE09480078401CC0
:10069000C2B207493F20FFF705FEFFF7F7FE00F063
:1006A00013F8012000F036FDFFF761FE10BD0000D9
:1006B0000200002010B5012202493E20FFF7F2FDA2
:1006C00010BD00002200002010B500BF4FF4807163
:1006D000064800F0B6F90028F8D000BF4FF480714A
:1006E000024800F0AEF90028F8D110BD0008014022
:1006F00070B504460D464FF480510F4800F0AAF93A
:1007000000BF4FF480410C4800F09BF90020002806
:10071000F7D1E0B2FFF78EFF00BF00BF00BF284651
:10072000FFF788FF00BF00BF00BF4FF480510248B1
:1007300000F092F970BD0000000C014010B50446B5
:10074000A41D61790B20FFF7D3FFA1790C20FFF7DF
:10075000CFFFE1790D20FFF7CBFF217A0E20FFF7C5
:10076000C7FF617A0F20FFF7C3FFA17A1020FFF7C0
:10077000BFFFE17A1120FFF7BBFF217B1220FFF7BB
:10078000B7FF617B1320FFF7B3FFA17B1420FFF7B6
:10079000AFFF21790A20FFF7ABFFE17B1520FFF7C0
:1007A000A7FFE17E2120FFF7A3FF217F2220FFF793
:1007B0009FFFA17C1820FFF79BFFE17C1920FFF72A
:1007C00097FF217D1A20FFF793FF617D1B20FFF724
:1007D0008FFFA17D1C20FFF78BFFE17D1D20FFF720
:1007E00087FF617F2320FFF783FFA17F2420FFF78E
:1007F0007FFFE17F2520FFF77BFF94F82010262064
:10080000FFF776FF94F823102920FFF771FF94F883
:1008100026102C20FFF76CFF94F827102D20FFF7EF
:1008200067FF94F828102E20FFF762FF14F8061CCB
:100830000020FFF75DFF14F8041C0220FFF758FFAB
:1008400061780720FFF754FFA1780820FFF750FFD9
:10085000E1780920FFF74CFF14F806190620FFF78E
:1008600047FF10BD10B504464FF480510A4800F010
:10087000F1F800BF4FF48041074800F0E2F800288B
:10088000F8D12046FFF7D6FE00BF4FF48051024852
:1008900000F0E2F810BD0000000C0140024600200C
:1008A00003E000231354431CD8B28842F9DB70479D
:1008B0007047000010B54FF4807000F023F898B135
:1008C0004FF4807000F018F8FFF75EFDFFF750FE60
:1008D000012804D1C102074800F0BEF804E04FF43B
:1008E0000061044800F0B6F8FFF734FDFFF7C4FDDF
:1008F00010BD0000000C0140014908607047000075
:1009000014040140014600200022074B1B6803EA43
:100910000102054B14331B680B4013B10AB10120CF
:1009200000E0002070470000000401402DE9F04184
:10093000024600250026002000230024002791F80D
:1009400003C00CF00F0591F803C00CF0100CBCF1C3
:10095000000F03D091F802C04CEA050591F800C0E1
:10096000BCF1000F31D0146800202BE04FF0010CD7
:100970000CFA00F3B1F800C00CEA03069E4220D145
:1009800083004FF00F0C0CFA03F7BC4305FA03FC8D
:100990004CEA040491F803C0BCF1280F06D14FF0D3
:1009A000010C0CFA00FCC2F814C00AE091F803C074
:1009B000BCF1480F05D14FF0010C0CFA00FCC2F855
:1009C00010C0401C0828D1D31460B1F800C0BCF19D
:1009D000FF0F34DD546800202EE000F1080C4FF0CA
:1009E000010808FA0CF3B1F800C00CEA03069E42B5
:1009F00021D183004FF00F0C0CFA03F7BC4305FA2A
:100A000003FC4CEA040491F803C0BCF1280F05D1A3
:100A100000F1080C08FA0CF8C2F8148091F803C031
:100A2000BCF1480F07D100F1080C4FF0010808FA9B
:100A30000CF8C2F81080401C0828CED35460BDE8E2
:100A4000F0810246002093680B400BB1012000E0CA
:100A500000207047416170470161704700BFFEE7A9
:100A600070B50021084600F047F800240BE000258F
:100A700005E00121002000F057F8681CC5B2542D94
:100A8000F7DB601CC4B2062CF1DB70BD10B54FF46F
:100A900080711748FFF7E0FF4FF400711448FFF72B
:100AA000D9FF0A2000F0FCFA4FF400711048FFF75C
:100AB000D3FF642000F0F4FA0021212000F034F884
:100AC0000021132000F030F80021BB2000F02CF8AA
:100AD0000021202000F028F800210C2000F024F84C
:100AE0004FF480510348FFF7B7FFFFF7B9FF10BD80
:100AF000000C01400008014070B505460C4644F06A
:100B0000400445F080050021204600F00DF800214A
:100B1000284600F009F84FF480710248FFF79CFF67
:100B200070BD0000000C014070B504460E464FF445
:100B300080711B48FFF78EFF26B980211848FFF708
:100B400089FF03E080211648FFF786FF002517E0A4
:100B500004F0800020B140211148FFF77DFF03E041
:100B600040210F48FFF776FF6006040E20210C4855
:100B7000FFF770FF20210A48FFF76EFF681CC5B21F
:100B8000082DE5DB80210648FFF766FF4FF48071F2
:100B90000348FFF761FF40210148FFF75DFF70BD8B
:100BA000000C01402DE9F04781460F461446124ED5
:100BB000A4F12000C4B204EB440006EB400600257B
:100BC00015E07819C1B24846FFF796FF4FF00008CC
:100BD00008E016F8010B0121FFF7A6FF08F101005C
:100BE00000F0FF08B8F1060FF3DB681CC5B2012D59
:100BF000E7DBBDE8F0870000EB1100082DE9F041CC
:100C000005460E4614460027B84619E014F8012B95
:100C100031462846FFF7C6FFA81DC5B2781CC7B2EB
:100C20000E2F08DB002506F10800C6B2002708F1E8
:100C3000010000F0FF08B8F1060F01DBBDE8F0810C
:100C400020780028E2D100BFF8E7000008B51020A6
:100C50008DF80300C001ADF8000002208DF80200FD
:100C600069460248FFF762FE08BD0000000C014023
:100C700000BFFEE77047000008B54FF47870ADF88C
:100C8000000010208DF8030001208DF80200694655
:100C90000848FFF74BFE4FF48050ADF800001020DD
:100CA0008DF8030002208DF8020069460248FFF724
:100CB0003DFE08BD000C01400008014070470000E7
:100CC00029B1064A92690243044B9A6104E0034A3F
:100CD00092698243014B9A61704700000010024004
:100CE00010B500F041F84FF4803000F095F800F0B6
:100CF000F1F80446012C1ED1002000F081F8A0027A
:100D000000F0BCF8A00200F0ADF84FF4E0112004B0
:100D100000F0C6F8012000F0BDF800BF392000F057
:100D200049F80028FAD0022000F0C8F800BF00F00F
:100D30005FF80828FBD101210420FFF7C1FF012142
:100D40000820FFF7BDFF01211020FFF7B9FF0121A7
:100D50000846FFF7B5FF01218803FFF7B1FF4820E0
:100D600000F07EF910BD00000F48006840F001005F
:100D70000D490860084640680C4908400A49486027
:100D8000084600680A4908400749086008460068A4
:100D900020F4802008600846406820F4FE00486087
:100DA0004FF41F0088607047001002400000FFF8F9
:100DB000FFFFF6FE10B501460022002300204A1175
:100DC000012A02D1094C236806E0022A02D1074C0D
:100DD000236A01E0054C636A01F01F02012494407C
:100DE0001C400CB1012000E0002010BD00100240AA
:100DF0000248406800F00C007047000000100240FC
:100E000001460020034A506820F0F000084350607B
:100E100070470000001002401149096821F4803138
:100E20000F4A11601146096821F480211160B0F564
:100E3000803F03D0B0F5802F0ED106E00849096845
:100E400041F48031064A116007E00549096841F420
:100E5000A021034A116000E000BF00BF70470000FE
:100E60000010024001460020034A506820F4E06070
:100E70000843506070470000001002400146002007
:100E8000034A506820F4605040EAC1005060704747
:100E9000001002400149086670470000000042420D
:100EA00002460020044B586820F47C1042EA0103FB
:100EB0001843014B58607047001002400146002063
:100EC000034A506820F00300084350607047000058
:100ED0000010024038B5002000900024002500BF1B
:100EE0003120FFF767FF05460098401C00900098EE
:100EF000B0F5A06F01D0002DF2D03120FFF75AFFDE
:100F000008B1012400E00024204638BD704710B528
:100F100000F002F810BD00000CB500200190009018
:100F20003348006840F480303149086000BF3048E1
:100F3000006800F4003000900198401C0190009877
:100F400018B90198B0F5A06FF1D12948006800F4F4
:100F5000003010B10120009001E0002000900098C6
:100F6000012843D12348006840F01000214908605F
:100F70000846006820F0030008600846006840F05A
:100F8000020008601A4840681949486008464068ED
:100F900048600846406840F4806048600846406801
:100FA00020F47C1048600846406840F4E81048602F
:100FB0000846006840F08070086000BF0C48006878
:100FC00000F000700028F9D00948406820F00300C4
:100FD000074948600846406840F00200486000BF8A
:100FE0000348406800F00C000828F9D10CBD00004F
:100FF00000100240002002407047000010B5134866
:10100000006840F001001149086008464068104936
:1010100008400E494860084600680E4908400B49E0
:1010200008600846006820F4802008600846406890
:1010300020F4FE0048604FF41F008860FFF767FF50
:101040004FF000600449086010BD0000001002402D
:101050000000FFF8FFFFF6FE08ED00E000BFFEE72E
:101060004FF0E021096921F004014FF0E022116105
:10107000C21700EB5272C2F3C702074B1A7019462F
:10108000097801EB4102C2EBC1114FF6FF7202EA8F
:10109000C101024A118070472A0000202C00002064
:1010A000014605E06E2200E0521E002AFCDC491ECB
:1010B0000029F7DC704700000E49098841434FF0D2
:1010C000E02251611146096941F00101116100BF3F
:1010D0004FF0E021096901F480310029F8D04FF088
:1010E000E021096921F001014FF0E02211610021A6
:1010F000916170472C00002000B5034603E04FF4D7
:101100007A70FFF7D9FF181EA3F101018BB2F6D157
:1011100000BD00000C49097841434FF0E0225161C5
:101120001146096941F00101116100BF4FF0E02152
:10113000096901F480310029F8D000214FF0E02244
:1011400011619161704700002A00002000BFFFF785
:1011500055FFFFF7C5FDFFF779FD4FF40061134818
:10116000FFF778FCFFF788FDFFF79AF9FFF78EFC91
:101170000FA201211520FFF741FDFFF71DF9FFF731
:1011800073F911E00820FFF7B7FF4FF4006107483B
:10119000FFF762FC0220FFF7AFFF4FF40061034846
:1011A000FFF758FCFFF76EFAECE70000000C014077
:1011B000467265655465616D00000000062E0606E6
:1011C000D391FF0445000009005D93B12D3B7322CC
:1011D000F8470000181D1CC700B2000000B610EA56
:1011E0000A0011000059000088310B0000000000C7
:1011F000000000002F000000000700070000147F1F
:10120000147F1400242A7F2A12006264081323002A
:10121000364955225000000503000000001C224101
:1012200000000041221C000014083E0814000808B9
:101230003E0808000000A060000008080808080038
:101240000060600000002010080402003E51494583
:101250003E0000427F40000042615149460021416A
:10126000454B31001814127F1000274545453900C1
:101270003C4A494930000171090503003649494992
:101280003600064949291E00003636000000005687
:101290003600000008142241000014141414140035
:1012A0000041221408000201510906003249595137
:1012B0003E007C1211127C007F49494936003E41B4
:1012C000414122007F4141221C007F4949494100A0
:1012D0007F09090901003E4149497A007F08080851
:1012E0007F0000417F4100002040413F01007F0816
:1012F000142241007F40404040007F020C027F00EA
:101300007F0408107F003E4141413E007F090909EA
:1013100006003E4151215E007F09192946004649D9
:101320004949310001017F0101003F4040403F0039
:101330001F2040201F003F4038403F006314081426
:101340006300070870080700615149454300007FAA
:1013500041410000552A552A55000041417F0000B7
:101360000402010204004040404040000001020429
:1013700000002054545478007F48444438003844D6
:1013800044442000384444487F00385454541800E2
:10139000087E0901020018A4A4A47C007F080404AC
:1013A000780000447D4000004080847D00007F1074
:1013B0002844000000417F4000007C0418047800AD
:1013C0007C0804047800384444443800FC24242475
:1013D000180018242418FC007C0804040800485451
:1013E00054542000043F444020003C4040207C00F6
:1013F0001C2040201C003C4030403C004428102869
:1014000044001CA0A0A07C004464544C4414141458
:101410001414140A32C2321E0807E404140C000427
:10142000030003080403000304080011F200FE8215
:101430004100FE0202FE00080708090808080F081C
:101440000909002010FC0310CF04F404548C0000A0
:10145000000F000201080F000003008C45F55555F0
:10146000EF455555550C0000000705050705050516
:10147000050400007F416555CF556541FF0000041C
:10148000030007040405040700030020222AB262B7
:10149000FF62B22A222000020201000007000001C0
:1014A0000202008884F3929292FE9292928200004D
:1014B0000000000000070000000000000000FF49DD
:1014C000494949FF0000000004020100000404072C
:1014D0000000000000FF111111111111FF000000A8
:1014E0000007020202020202070000FE2222FE049E
:1014F000146404FF04040003010103000004040752
:1015000000000020102C23E0202023EC10200004F9
:1015100004020100040404030000008A6AFF294851
:101520003C007F00C418000100070404040202010B
:10153000000000897200C05FD555D555DF00000757
:10154000000407040704070407040000FE0A8ABE1B
:10155000AAABAABE0A0A000601040404030203049B
:101560000404000084150008000000203000000082
:1015700028010008B4150008300000208006000093
:1015800044010008000006010203040506000000F3
:10159000000000000000000000000000000000004B
:1015A000000000000000FBFE000000000000000042
:0415B0000000000037
:040000050800018965
:00000001FF
