:020000040800F2
:10000000D0080020DD7300082141000823410008CA
:1000100000000000000000000000000000000000E0
:100020000000000000000000000000002741000860
:100030000000000000000000294100082B410008DA
:10004000EF73000800000000EF730008EF73000872
:10005000EF730008EF730008EF730008EF730008F8
:1000600000000000EF730008EF730008EF73000852
:10007000EF730008EF730008EF7300080000000042
:100080007102000800000000000000005501000897
:10009000EF730008EF730008EF730008EF730008B8
:1000A000EF730008EF730008EF73000833030008D4
:1000B000EF7300080348854607F0DAFA0048004766
:1000C0006F3F0008D00800201CB50121880405F00E
:1000D00003F803200090012168460171417100215D
:1000E00081716946FC4804F001FC0121FA4804F0E2
:1000F0007CFC0221F84804F078FC01218902F648D2
:1001000004F071FC1CBD1FB5F44805F069F801212D
:10011000080204F0FDFFF248029017216846818032
:10012000012181810021C18001A9EC4805F0CAF8B4
:1001300001221146E94805F049FD13216846017086
:1001400001214170817004F089FC0121E34805F030
:100150003EF91FBD10B50121E04805F063FD012007
:10016000E049C870E0484079401CDF494871DD48EB
:100170004079401CDB494871084640791E281BDD48
:1001800000204871D9480078401CD84908700846BA
:100190000078042801DB00200870D5480068401C66
:1001A000D3490860D3480078012805D10220D149FD
:1001B00008700020CE490860CF480088401CCE4916
:1001C0000880084600880F2807DDCC48C088401CFE
:1001D000CA49C8800020C8490880C2480079401C2C
:1001E000C0490871C6480078401CC54908700846D7
:1001F0000078502806DD00200870C2480078401CB6
:10020000C0490870B748007964280CDD0020B54962
:100210000871BD480078401CBB490870BB48007895
:10022000401CBA49087010BD1FB5B94804F0D8FF8A
:100230000121022004F06CFFB648029017216846A5
:100240008180012181810021C18001A9B04805F090
:1002500039F801221146AE4805F0B8FC1021684675
:100260000170022141700121817004F0F7FB1FBD74
:1002700010B50121A64805F0D5FC0021A44805F0E1
:10028000A6F810BD00B589B00121880404F024FF50
:100290000121880304F02EFF0121480404F01CFF13
:1002A00001220921C80604F0AAFB01220A21092023
:1002B000C00604F0A4FB40200790032108A8417069
:1002C000022101700021817007A9834804F00EFB10
:1002D00080200790032108A841700221017007A91E
:1002E0007D4804F003FB4B20C001019000200290E8
:1002F0000390049006900C20059001A9864805F013
:10030000A5FD0121844805F030FE1B2168460170DF
:10031000002141700121817004F0A0FB01227F497E
:100320007D4805F0B8FF40217B4805F0F2FF09B099
:1003300000BD10B54021784805F0EBFF77497648BD
:1003400005F0E9FF002810D0734805F0C3FE74499A
:10035000087008460178704805F0B8FE00BF80219B
:100360006D4805F0CCFF0028F9D010BD10B56D48E0
:10037000C06A624988606B48006BC86088685849E9
:10038000491C07F005F95D49087088685449491C03
:1003900007F0FEF80C466421204607F0F9F85749AB
:1003A000487088684E49491C07F0F2F80C466421F1
:1003B000204607F0EDF8514881700078C0434F495E
:1003C000C87008464078C043C1B24C48017180787B
:1003D000C043C1B24948417110BD014608780628A2
:1003E00002D14879002801D00020704748788A78E7
:1003F0008018CA7880180A7980184A798018C0B2A3
:100400008A79904201D00020EFE74879002801D096
:100410000020EAE78878394A127890420BD1C878F0
:10042000364A5278904206D10879344A92789042FE
:1004300001D10120D9E78878222807D1C87833284C
:1004400004D10879442801D10120CEE70020CCE76F
:1004500000B585B00621684601702348C17868461A
:100460004170264801786846817024484178684682
:10047000C170224881786846017114214171417828
:10048000807809186846C078091868460079091804
:10049000684640790818C1B2684681710621C17169
:1004A0000021017241728172C172017341730E4960
:1004B000087806F02DFF0C48C078401C0A49C87027
:1004C0000D21684606F05EFF0748007800282BD112
:1004D0007F200549087032E00004004800200040F9
:1004E0000F27000019000020260000201F00002018
:1004F000200000202400002034000020BC00002048
:1005000036000020300000202E00002032000020A5
:10051000000400404FC30000003801400501050001
:100520004500002080F7FF1FF94800787F2803D19D
:10053000FF20F749087002E00020F549087001200B
:1005400005B000BD00B585B0062168460170F048D1
:10055000C17868464170EF48C17868468170ED48BF
:1005600001796846C170EB484179684601711421F0
:1005700041714178807809186846C0780918684642
:1005800000790918684640790818C1B26846817137
:100590000621C1710021017241728172C172017321
:1005A0004173DB49087806F0B3FED948C078401C97
:1005B000D749C8700D21684606F0E4FED44800789B
:1005C000002803D17F20D24908700AE0D048007883
:1005D0007F2803D1FF20CE49087002E00020CC49DB
:1005E0000870012005B000BD07E0CB48C0780028A6
:1005F00003D00020C849C8707047F6E730B585B011
:1006000004460D46062168460170C148C178684617
:100610004170C048017868468170BE48417868469C
:10062000C170BC4881786846017144714178807816
:1006300009186846C078091868460079091868469C
:1006400040790818C1B2684681710621C171002144
:10065000017241728572C17201734173AC480078B6
:10066000002803D17F20AA4908700AE0A848007832
:100670007F2803D1FF20A649087002E00020A4498A
:100680000870A349087806F043FEA148C078401CD2
:100690009F49C8700D21684606F074FE684606F052
:1006A00046FE002807D06846FFF797FE002802D0D4
:1006B000012005B030BD0020FBE730B585B0044611
:1006C0000D460621684601709148C1786846417020
:1006D0009048C178684681708E4801796846C1703B
:1006E0008C484179684601714471417880780918D5
:1006F0006846C07809186846007909186846407944
:100700000818C1B2684681710621C17100210172C9
:1007100041728572C172017341737D48007800286F
:1007200003D17F207A4908700AE0794800787F2851
:1007300003D1FF207649087002E000207449087058
:100740007349087806F0E4FD7148C078401C704990
:10075000C8700D21684606F015FE684606F0E7FDF4
:10076000002807D06846FFF738FE002802D0012095
:1007700005B030BD0020FBE7F8B507460C4615462E
:100780002846E90F0918C9030D0C03F030FD352088
:1007900004F056F8384603F06CFD0AE02678641C35
:1007A0002178641C080206433146384603F0DBFD1D
:1007B000BF1C2846691E8DB20028EFD103F023FD2F
:1007C000F8BD10B503E003780B70401C491C1346BC
:1007D000541EA2B2002BF6D110BD10B54D48C088F2
:1007E0004E4988420BDB00204A49C880012189021A
:1007F0004B4804F0FAF87D20C00003F0BEFC10BDA9
:1008000070B501218902464804F0EDF80121C903C1
:10081000444804F0CEF801280DD001218903414855
:1008200004F0C7F8002806D0012149033D4804F030
:10083000C0F8002802D100203649C88005F05FFFCB
:10084000B02801D101F051F812DC032821D008DCD6
:10085000002823D0012875D0022801D001F08EF99C
:10086000B3E3A02801D100F057FEAB28F6D11AE07F
:10087000CD380928F2D243007B449B885B009F441B
:1008800095007D097D097D09FD008D011D027D0911
:1008900014030221224804F0A8F8F3E302212048BF
:1008A00004F0A3F8F9E700201F49087002211C4852
:1008B00004F099F870E000201649C8801BA20121BD
:1008C00005F09DFE1E480078032813D10DE000219D
:1008D0009920FFF793FE0A2003F04FFC0021992096
:1008E000FFF7EBFE0A2003F048FC0A48C0881E28E8
:1008F000EDDD4DE012480078022824D103E001210B
:100900009920FFF77BFE0348C0881E28F7DD3FE0F3
:1009100026000020BC0000201900002070170000F5
:10092000000400480008004824000020537461744B
:1009300075733A204C65644F4E2E2E2E0000000039
:1009400031000020F7E3FE480078012809D103E0D8
:1009500002219920FFF7B1FEFA48C0881E28F7DD72
:1009600016E0F7480078002812D10DE010219920F8
:10097000FFF744FE0A2003F000FC10219920FFF746
:100980009CFE0A2003F0F9FBEE48C0881E28EDDD2E
:100990000020EC49C88000E08DE700BFEA480078FD
:1009A000002802D10120E849087076E70020E649D6
:1009B00008700221E54804F016F855E00020E149EE
:1009C000C880E3A2012105F01AFEDD480078032863
:1009D00013D10DE000219820FFF710FE0A2003F04C
:1009E000CCFB00219820FFF768FE0A2003F0C5FB2E
:1009F000D448C0881E28EDDD32E0D14800780228B6
:100A000009D103E001219820FFF7F8FDCD48C08807
:100A10001E28F7DD24E0CA480078012809D103E048
:100A200002219820FFF749FEC648C0881E28F7DD3E
:100A300016E0C3480078002812D10DE0102198205C
:100A4000FFF7DCFD0A2003F098FB10219820FFF748
:100A500034FE0A2003F091FBBA48C0881E28EDDD61
:100A60000020B849C88000E0A8E700BFB648007879
:100A7000002802D10120B44908700EE70020B249D5
:100A800008700221B14803F0AEFF64E0AC48007882
:100A900003280ED10021D120FFF7B0FD0A2003F07A
:100AA0006CFB0021D120FFF708FE0A2003F065FB54
:100AB00023E0A3480078022804D10121D120FFF7C8
:100AC0009DFD1AE09E480078012804D10221D12022
:100AD000FFF7F3FD11E09A48007800280DD11021AE
:100AE000D120FFF78BFD0A2003F047FB1021D12016
:100AF000FFF7E3FD0A2003F040FB9348007800284D
:100B000002D101209049087096480068002806D05C
:100B100001280AD002280ED0032818D111E092A291
:100B20000121002005F06BFD11E094A201210020BD
:100B300005F065FD0BE096A20121002005F05FFDA8
:100B400005E098A20121002005F059FD00BF00BF7B
:100B500000207C49C8800121C903974803F029FF80
:100B600001281AD10103794803F023FF002814D18A
:100B70000121C902754803F01CFF00280DD0042193
:100B8000724803F016FF002807D0012189036F483F
:100B900003F00FFF002800D078E77EE600206A49C6
:100BA00008700221694803F01EFF64E06448007881
:100BB00003280ED10021D220FFF720FD0A2003F0E8
:100BC000DCFA0021D220FFF778FD0A2003F0D5FAE5
:100BD00023E05B480078022804D10121D220FFF7EE
:100BE0000DFD1AE056480078012804D10221D220D8
:100BF000FFF763FD11E05248007800280DD1102165
:100C0000D220FFF7FBFC0A2003F0B7FA1021D22014
:100C1000FFF753FD0A2003F0B0FA4B480078002894
:100C200002D10120484908704E480068002806D0CB
:100C300001280AD002280ED0032818D111E05FA2A3
:100C40000121002005F0DBFC11E061A20121002060
:100C500005F0D5FC0BE063A20121002005F0CFFCDC
:100C600005E065A20121002005F0C9FC00BF00BF1E
:100C700000203449C8800121C9034F4803F099FE80
:100C800001281AD10103314803F093FE002814D043
:100C90000121C9022D4803F08CFE00280DD104214A
:100CA0002A4803F086FE002807D00121890327483F
:100CB00003F07FFE002800D078E7EEE5002022490F
:100CC00008700221214803F08EFECBE01C4800781A
:100CD00003280ED10021D320FFF790FC0A2003F057
:100CE0004CFA0021D320FFF7E8FC0A2003F045FA74
:100CF00023E013480078022804D10121D320FFF714
:100D00007DFC1AE00E480078012804D10221D3208E
:100D1000FFF7D3FC11E00A48007800280DD110211C
:100D2000D320FFF76BFC0A2003F027FA1021D32011
:100D3000FFF7C3FC0A2003F020FA0348007865E0BF
:100D400031000020BC0000202400002000040048E6
:100D50005374617475733A204C65644F46462E2E69
:100D60002E00000020000020205374617475733A37
:100D7000204C6564572E2020000000002053746131
:100D80007475733A204C6564572E2E2000000000C5
:100D9000205374617475733A204C6564572E2E2E5F
:100DA00000000000205374617475733A204C656430
:100DB00057204F4E00000000000800482053746187
:100DC0007475733A204C6564472E202000000000A3
:100DD000205374617475733A204C6564472E2E203D
:100DE00000000000205374617475733A204C6564F0
:100DF000472E2E2E00000000205374617475733A44
:100E0000204C656447204F4E00000000002802D1AE
:100E10000120FC490870FC480068002806D0012821
:100E20000AD002280ED0032818D111E0F7A2012120
:100E3000002005F0E4FB11E0F9A20121002005F0FB
:100E4000DEFB0BE0FBA20121002005F0D8FB05E052
:100E5000FDA20121002005F0D2FB00BF00BF002051
:100E6000FE49C8800121C903FD4803F0A2FD012805
:100E70001AD10103FB4803F09CFD002814D0012186
:100E8000C902F84803F095FD00280DD00421F5486B
:100E900003F08FFD002807D101218903F14803F0F9
:100EA00088FD002800D011E7F7E40020D54908703C
:100EB0000221EC4803F097FD64E0EB48007803283A
:100EC0000ED10021D520FFF799FB0A2003F055F938
:100ED0000021D520FFF7F1FB0A2003F04EF923E0B3
:100EE000E1480078022804D10121D520FFF786FBD4
:100EF0001AE0DD480078012804D10221D520FFF74F
:100F0000DCFB11E0D848007800280DD11021D52055
:100F1000FFF774FB0A2003F030F91021D520FFF70A
:100F2000CCFB0A2003F029F9B6480078002802D14A
:100F30000120B4490870B4480068002806D0012890
:100F40000AD002280ED0032818D111E0C7A201212F
:100F5000002005F054FB11E0C9A20121002005F09A
:100F60004EFB0BE0CBA20121002005F048FB05E081
:100F7000CDA20121002005F042FB00BF00BF0020F0
:100F8000B649C8800121C903B54803F012FD012804
:100F90001AD10103B34803F00CFD002814D001213D
:100FA000C902B04803F005FD00280DD00421AD486A
:100FB00003F0FFFC002807D001218903A94803F0B2
:100FC000F8FC002800D178E767E40221A54803F087
:100FD0000AFDCDE00020A149C880A348007803287D
:100FE00031D100210120FFF709FB0A2003F0C5F8E9
:100FF00000210120FFF761FB0A2003F0BEF8AF4893
:101000000078002806D001280AD002280ED0032834
:1010100018D111E0AAA20121002005F0F0FA11E098
:10102000ACA20121002005F0EAFA0BE0A4A2012104
:10103000002005F0E4FA05E0A6A20121002005F059
:10104000DEFA00BF91E088480078022828D101210B
:101050000846FFF7D3FA99480078002806D00128FF
:101060000AD002280FD0032819D112E09EA2012134
:10107000002005F0C4FA12E096A20121002005F03C
:10108000BEFA0CE047E298A20121002005F0B7FA71
:1010900005E090A20121002005F0B1FA00BF64E054
:1010A00071480078012826D10221FFF706FB83480A
:1010B0000078002806D001280AD002280ED0032884
:1010C00018D111E08DA20121002005F098FA11E05D
:1010D00080A20121002005F092FA0BE087A20121F5
:1010E000002005F08CFA05E07AA20121002005F02D
:1010F00086FA00BF39E05C480078002835D110211D
:101100000120FFF77BFA0A2003F037F810210120B5
:10111000FFF7D3FA0A2003F030F801207C49087069
:1011200066480078002807D001280BD002280FD08D
:10113000032819D112E04DE076A20121002005F02C
:101140005EFA11E063A20121002005F058FA0BE0DD
:1011500070A20121002005F052FA05E05DA20121F4
:10116000002005F04CFA00BF00BF00203B49C880BA
:101170000121C9033A4803F01CFC01280DD1810369
:10118000374803F016FC002807D1012149033448F1
:1011900003F00FFC012800D11CE763A2012100200D
:1011A00005F02DFA00240FE0FF218020FFF726FA3A
:1011B0000A2002F0E2FFFF218020FFF77EFA0A20DA
:1011C00002F0DBFF601CC4B21E2CEDDB00202349C3
:1011D000C88052E40221234803F005FC6AE10020A4
:1011E0001E49C88020480078032809D10021022028
:1011F000FFF704FA0A2002F0C0FF002102209DE060
:10120000C5E000002400002020000020205374616D
:101210007475733A204C6564422E20200000000053
:10122000205374617475733A204C6564422E2E20ED
:1012300000000000205374617475733A204C65649B
:10124000422E2E2E00000000205374617475733AF4
:10125000204C656442204F4E00000000BC0000207E
:101260000008004800040048310000202053746149
:101270007475733A204C65642E2020200000000015
:10128000205374617475733A204C65642E2E2020AF
:1012900000000000205374617475733A204C65643B
:1012A0002E2E2E2000000000205374617475733AB6
:1012B000204C6564204F4646000000001F000020BF
:1012C000205374616E6420204F70656E696E6720D4
:1012D000000000002020202020202020202020208E
:1012E000202020200000000020204F646420204F98
:1012F00070656E696E672020000000002020457632
:10130000656E20204F70656E696E672000000000DA
:101310000000002020204561737920204F70656E09
:10132000696E672000000000205374617475733A81
:10133000205374616E64627900000000FFF7BDF90C
:101340000A2002F01AFFFB480078002806D0012886
:101350000AD002280ED0032818D111E0F6A20121EC
:10136000002005F04CF911E0F84A0121002005F0B9
:1013700046F90BE0F0A20121002005F040F905E05C
:10138000F24A0121002005F03AF900BF8FE0F04851
:101390000078022826D10121FFF730F9E5480078CE
:1013A000002806D001280AD002280ED0032818D120
:1013B00011E0E8A20121002005F021F911E0E34A43
:1013C0000121002005F01BF90BE0E2A20121002021
:1013D00005F015F905E0DD4A0121002005F00FF9BF
:1013E00000BF64E0DA480078012827D102210846CE
:1013F000FFF763F9CF480078002806D001280AD00B
:1014000002280ED0032818D111E0D7A20121002014
:1014100005F0F5F811E0CD4A0121002005F0EFF8C4
:101420000BE0D1A20121002005F0E9F805E0C74A50
:101430000121002005F0E3F800BF38E0C44800783F
:10144000002834D110210220FFF7D8F80A2002F03A
:1014500094FE10210220FFF730F90A2002F08DFEE1
:101460000120C6490870B3480078002806D001283A
:101470000AD002280ED0032818D111E0C0A2012101
:10148000002005F0BCF811E0B04A0121002005F071
:10149000B6F80BE0BAA20121002005F0B0F805E093
:1014A000AA4A0121002005F0AAF800BF00BF0020D1
:1014B000B849C8800121C903B74803F07AFA012866
:1014C0000CD18103B44803F074FA012806D141031A
:1014D000B14803F06EFA002800D180E69B4A5432EE
:1014E0000121002005F08BF800240FE0FF2180206F
:1014F000FFF784F80A2002F040FEFF218020FFF76A
:10150000DCF80A2002F039FE601CC4B21E2CEDDBB0
:101510000020A049C88039E30221A04803F063FA03
:1015200000209F490870EEE0002500209D490870CA
:101530009B480078012806D002280AD003280ED044
:10154000042819D111E098A20121002005F057F8D4
:1015500012E09AA20121002005F051F80CE09CA2B3
:101560000121002005F04BF806E09EA20121002099
:1015700005F045F8012500BF00BFBFE007E00020EF
:10158000874908709CA20121084605F038F801211E
:10159000C903814803F00DFA01280CD181037E486C
:1015A00003F007FA002806D1012149037A4803F025
:1015B00000FA0028E3D000BF0121C903764803F0F8
:1015C000F8F90128F8D001218903734803F0F1F9F3
:1015D0000028F1D0012149036F4803F0EAF90028FF
:1015E000EAD000206B49C88088480078002823D1C1
:1015F00050480078002806D001280AD002280ED0D2
:10160000032818D111E082A20121002004F0F7FF85
:1016100011E084A20121002004F0F1FF0BE086A27A
:101620000121002004F0EBFF05E088A20121002049
:1016300004F0E5FF00BF27E074480078012823D1BB
:101640003C480078002806D001280AD002280ED095
:10165000032818D111E082A20121002004F0CFFF5D
:1016600011E084A20121002004F0C9FF0BE086A252
:101670000121002004F0C3FF05E088A20121002021
:1016800004F0BDFF00BF00BF60480078002802D111
:10169000FEF7DEFE01E0FEF755FF0121C9033E48DB
:1016A00003F087F9012811D0012189033A4803F09A
:1016B00080F900280AD001214903374803F079F95D
:1016C000002803D037480078C82817DB4F48007837
:1016D000002805D1012D03D101204C49087008E0F4
:1016E0004A480078012804D1012D02D10020474941
:1016F0000870002500202749C88002E0002D00D096
:101700003CE700BF00BF0121C903234803F051F9A2
:1017100001280DD18103204803F04BF9002807D19F
:10172000012149031C4803F044F9002801D1FBE6DC
:10173000BEE0BDE01F000020205374616E642020D5
:10174000436C6F73696E672000000000D4120008BC
:101750003100002020204F64642020436C6F7369A7
:101760006E6720200000000020204576656E202056
:10177000436C6F73696E6720000000000100002059
:101780002020456173792020436C6F73696E672058
:1017900000000000BC0000200008004800040048D1
:1017A0002E0000203200002020456E74657220203B
:1017B00050616972203320200000000020456E74C3
:1017C00065722020506169722032202000000000E4
:1017D00020456E746572202050616972203120208E
:1017E0000000000020456E7465722020506169720F
:1017F0002030202000000000456E746572202050CB
:10180000616972204F4B2020000000002F00002053
:10181000204F64642050616972696E672E20202019
:1018200000000000204F64642050616972696E6797
:101830002E2E202000000000204F6464205061699B
:1018400072696E672E2E2E2000000000204F646407
:101850002050616972696E672E2E2E2E00000000E6
:101860004576656E2050616972696E672E20202072
:10187000000000004576656E2050616972696E67F0
:101880002E2E2020000000004576656E20506169F4
:1018900072696E672E2E2E20000000004576656E60
:1018A0002050616972696E672E2E2E2E0000000096
:1018B000FE4A0121002004F0A2FE00240FE0FF21D7
:1018C0008020FEF79BFE0A2002F057FCFF218020BB
:1018D000FEF7F3FE0A2002F050FC601CC4B21E2C7E
:1018E000EDDB0020F249C88050E10221F14803F00D
:1018F0007AF80020F049087012E100250020EC4938
:10190000C880ED480078012806D002280AD00328B4
:101910000ED0042814D111E0E8A20121002004F027
:101920006EFE0DE0EAA20121002004F068FE07E04F
:10193000ECA20121002004F062FE01E0012500BFBD
:1019400000BFE5E00020DA49C880EB4800780328B2
:1019500005D1EAA20121002004F051FE1BE0E64877
:101960000078022805D1EAA20121002004F047FEF8
:1019700011E0E1480078012805D1EAA20121002008
:1019800004F03DFE07E0DC480078002803D1EAA21D
:10199000012104F034FE642002F0EFFBD648007809
:1019A000032814D100240FE0EE21B020FEF726FE1C
:1019B0000A2002F0E2FBEE21B020FEF77EFE0A20B4
:1019C00002F0DBFB601CC4B2322CEDDB56E0CA48EF
:1019D0000078022814D100240FE0EE21B020FEF799
:1019E0000DFE0A2002F0C9FBEE21B020FEF765FED5
:1019F0000A2002F0C2FB601CC4B2322CEDDB3DE0D9
:101A0000BD480078012814D100240FE0EE21C02049
:101A1000FEF7F4FD0A2002F0B0FBEE21C020FEF735
:101A20004CFE0A2002F0A9FB601CC4B2322CEDDB94
:101A300024E0B1480078002820D1C448007800286C
:101A400003D1C3480078002818D00020BF4908708F
:101A5000BF49087000240FE00021D020FEF7CEFD22
:101A60000A2002F08AFB0021D020FEF726FE0A2081
:101A700002F083FB601CC4B2322CEDDB8B4A0121E7
:101A8000002004F0BCFD00208949C88000BF01216E
:101A90008903B04802F08DFF0028F8D001214903E6
:101AA000AC4802F086FF0028F1D00121C903A94803
:101AB00002F07FFF0128EAD000207D49C8808E48CF
:101AC0000078032805D1012D03D102208A4908702E
:101AD0001CE089480078022805D1012D03D101209E
:101AE0008549087012E084480078012805D1012D4D
:101AF00003D100208049087008E07F480078002862
:101B000004D1012D02D103207B490870002502E099
:101B1000002D00D016E700BF00206549C88000BF37
:101B20000121C9038B4802F044FF00280ED1012196
:101B30008903884802F03DFF002807D101214903AD
:101B4000844802F036FF002800D1D6E600240FE0DA
:101B5000FF218020FEF752FD0A2002F00EFBFF213C
:101B60008020FEF7AAFD0A2002F007FB601CC4B229
:101B70001E2CEDDB00204E49C88007E002214D48B5
:101B800002F033FF00207449087000BF00BF70BD31
:101B900010B572480088032815D100206F490880CD
:101BA00004F025FD6EA20021012004F028FD022092
:101BB00002F0E3FA6EA20121084604F020FD7D2028
:101BC000000102F0DAFA10BD10B58CB0002400BF9D
:101BD000012C09D104F00BFD0A2002F0CEFA68A214
:101BE0000021012004F00BFD012400206849087049
:101BF000012068494871087048708870F6E3F6E380
:101C000064480078082801D301F02BFB43007B4493
:101C10009B885B009F44250B0700FD006801D301F2
:101C20003E02A90277035C480078002806D001280C
:101C30000AD002280ED0032818D111E057A20121A2
:101C4000084604F0DCFC11E058A20121084604F02B
:101C5000D6FC0BE051A20121084604F0D0FC05E0BF
:101C600052A20121084604F0CAFC00BF00BF0121B6
:101C70000903104802F09DFE012811D1C1020D4850
:101C800002F097FE01280BD104210A4802F091FED0
:101C9000012805D18103074802F08BFE012803D0FB
:101CA00005F05BF809A989E0B2E0000028130008FC
:101CB000BC0000200004004830000020456E746520
:101CC0007220436C724D6F64652033200000000069
:101CD000456E74657220436C724D6F6465203220CE
:101CE00000000000456E74657220436C724D6F6495
:101CF000652031200000000031000020204F646486
:101D000020436C65616E204D6F646520000000000B
:101D1000204576656E20436C65616E204D6F64656D
:101D200000000000204561737920436C65616E20DE
:101D30004D6F6465000000005374616E6420436C55
:101D400065616E204D6F646500000000000000209A
:101D50000100002000080048320000203800002068
:101D60004572726F7220332074696D6573210000B3
:101D7000506C6561736520616761696E21000000C8
:101D8000496E69742050617373776F72640000004C
:101D900037000020130000201F000020496E7075DE
:101DA000743A20202020202020000000496E707509
:101DB000743A5F202020202020000000F94A127889
:101DC000885400BF01210903F74802F0F2FD012801
:101DD000F8D1C102F44802F0ECFD0128F2D104214F
:101DE000F14802F0E6FD0128ECD18103EE4802F053
:101DF000E0FD0128E6D1EB480078401CE949087075
:101E0000EA480078401CE94908700020E849C88089
:101E1000FAE6E8480078002806D001280AD002280F
:101E20000ED0032818D111E0E3A20121084604F0E6
:101E3000E6FB11E0E4A20121084604F0E0FB0BE020
:101E4000DDA20121084604F0DAFB05E0DEA2012153
:101E5000084604F0D4FB00BF00BF01210903D248AB
:101E600002F0A7FD012811D1C102CF4802F0A1FD67
:101E700001280BD10421CC4802F09BFD012805D19B
:101E80008103C94802F095FD01282CD004F065FFBC
:101E900009A9C44A1278885400BF01210903C24825
:101EA00002F087FD0128F8D1C102BF4802F081FD90
:101EB0000128F2D10421BC4802F07BFD0128ECD1BD
:101EC0008103B94802F075FD0128E6D1B5480078D4
:101ED000401CB4490870B5480078401CB3490870EC
:101EE0000020B349C8808FE6B2480078002806D0A9
:101EF00001280AD002280ED0032818D111E0B6A27A
:101F00000121084604F07BFB11E0B7A2012108463D
:101F100004F075FB0BE0B0A20121084604F06FFB52
:101F200005E0B1A20121084604F069FB00BF00BF33
:101F3000012109039C4802F03CFD012811D1C10296
:101F4000994802F036FD01280BD10421964802F091
:101F500030FD012805D18103934802F02AFD0128B4
:101F60002CD004F0FAFE09A98E4A1278885400BFDA
:101F7000012109038C4802F01CFD0128F8D1C1029F
:101F8000894802F016FD0128F2D10421864802F0AA
:101F900010FD0128ECD18103834802F00AFD0128DD
:101FA000E6D180480078401C7E4908707F48007860
:101FB000401C7E49087000207D49C88024E67D4889
:101FC0000078002806D001280AD002280ED0032865
:101FD00018D111E088A20121084604F010FB11E09D
:101FE00089A20121084604F00AFB0BE082A201212C
:101FF000084604F004FB05E083A20121084604F032
:10200000FEFA00BF00BF01210903674802F0D1FCBE
:10201000012811D1C102644802F0CBFC01280BD188
:102020000421614802F0C5FC012805D181035E4806
:1020300002F0BFFC01282CD004F08FFE09A9594AF8
:102040001278885400BF01210903574802F0B1FCFF
:102050000128F8D1C102544802F0ABFC0128F2D1AA
:102060000421514802F0A5FC0128ECD181034E481F
:1020700002F09FFC0128E6D14A480078401C4949FB
:1020800008704A480078401C4849087000204849B8
:10209000C880B9E547480078002806D001280AD052
:1020A00002280ED0032818D111E05BA201210846B6
:1020B00004F0A5FA11E05CA20121084604F09FFAA1
:1020C0000BE055A20121084604F099FA05E056A25A
:1020D0000121084604F093FA00BF00BF0121090363
:1020E000314802F066FC012811D1C1022E4802F0ED
:1020F00060FC01280BD104212B4802F05AFC012876
:1021000005D18103284802F054FC01282CD004F0AA
:1021100024FE09A9234A1278885400BF012109032B
:10212000214802F046FC0128F8D1C1021E4802F005
:1021300040FC0128F2D104211B4802F03AFC01289E
:10214000ECD18103184802F034FC0128E6D115488F
:102150000078401C1349087014480078401C13494B
:10216000087000201249C8804EE512480078002807
:1021700006D001280AD002280ED0032872D16BE0C5
:102180002DA20121084604F03AFA6BE02EA20121AB
:10219000084604F034FA65E027A20121084604F05D
:1021A0002EFA5FE0370000200004004813000020F2
:1021B000BC0000201F000020496E7075743A2A2070
:1021C0002020202020000000496E7075743A2A5F9C
:1021D0002020202020000000496E7075743A2A2AC1
:1021E0002020202020000000496E7075743A2A2AB1
:1021F0005F20202020000000496E7075743A2A2A62
:102200002A20202020000000496E7075743A2A2A86
:102210002A5F202020000000496E7075743A2A2A37
:102220002A2A202020000000496E7075743A2A2A5C
:102230002A2A5F2020000000496E7075743A2A2A0D
:102240002A2A2A2020000000496E7075743A2A2A32
:102250002A2A2A5F20000000FE4A0121084604F0D5
:10226000CEF900BF00BF01210903FB4802F0A1FB2A
:10227000012811D1C102F84802F09BFB01280BD1C3
:102280000421F54802F095FB012805D18103F248AD
:1022900002F08FFB012835D004F05FFD09A9EF4A59
:1022A0001278885400BF01210903EB4802F081FB3A
:1022B0000128F8D1C102E84802F07BFB0128F2D1E5
:1022C0000421E54802F075FB0128ECD18103E248C6
:1022D00002F06FFB0128E6D1E0480078401CDF499E
:1022E0000870DF480078401CDD4908700020DD4997
:1022F000C880DDA20121084604F081F9FF20F530F5
:1023000001F03BFF80E40121C903DB4802F051FBEF
:10231000012801D000F0A4FF142001F02EFF0121BC
:10232000C903D54802F045FB0128F3D10020CC4970
:102330000870D248007808A9097988421DD1CF4891
:10234000407808A94979884217D1CC48807808A9F3
:102350008979884211D1C948C07808A9C9798842C9
:102360000BD1C648007908A9097A884205D1C3482B
:10237000407908A9497A884225D0C148007808A93F
:102380000979884201D000F053FFBD48407808A980
:1023900049798842F7D1BA48807808A98979884272
:1023A000F1D1B748C07808A9C9798842EBD1B448BF
:1023B000007908A9097A8842E5D1B148407908A98D
:1023C000497A8842DFD10020A4490870FF20F53007
:1023D00001F0D3FE04F00BF9022001F0CEFE00BFA5
:1023E000A8A20021012004F00AF988E3EFE3EFE35B
:1023F0009B484078030005F07FF9086F0570DBEF1C
:10240000EEEDEC6FA3480078002806D001280AD032
:1024100002280ED0032818D111E09FA201210846FE
:1024200004F0EDF811E0A0A20121084604F0E7F85D
:102430000BE099A20121084604F0E1F805E09AA218
:102440000121084604F0DBF800BF00BF01210903A9
:10245000814802F0AEFA012811D1C1027E4802F093
:10246000A8FA01280BD104217B4802F0A2FA012826
:1024700005D18103784802F09CFA01282CD004F0A1
:102480006CFC06A98C4A1278885400BF012109030C
:10249000714802F08EFA0128F8D1C1026E4802F0AC
:1024A00088FA0128F2D104216B4802F082FA01284F
:1024B000ECD18103684802F07CFA0128E6D17E481D
:1024C0000078401C7C49087065484078401C64498D
:1024D000487000206349C88079E26E48007800287F
:1024E00006D001280AD002280ED0032818D111E006
:1024F00072A20121084604F082F811E073A20121C2
:10250000084604F07CF80BE06CA20121084604F0B8
:1025100076F805E06DA20121084604F070F800BFCE
:1025200000BF012109034C4802F043FA012811D1F0
:10253000C102494802F03DFA01280BD10421464866
:1025400002F037FA012805D18103434802F031FA3D
:1025500001282CD004F001FC06A9574A12788854AF
:1025600000BF012109033C4802F023FA0128F8D1F9
:10257000C102394802F01DFA0128F2D1042136487F
:1025800002F017FA0128ECD18103334802F011FA66
:102590000128E6D148480078401C47490870304877
:1025A0004078401C2E49487000202E49C88093E78F
:1025B00038480078002806D001280ED0022812D012
:1025C00003281CD115E045A20121084604F017F8A4
:1025D00015E0FDE188E11CE1B0E044A201210846DC
:1025E00004F00DF80BE03DA20121084604F007F8C5
:1025F00005E03EA20121084604F001F800BF00BF3B
:1026000001210903144802F0D4F9012811D1C102B3
:10261000114802F0CEF901280BD104210E4802F036
:10262000C8F9012805D181030B4802F0C2F901283D
:102630007ED004F092FB06A91F4A1278885400BF8E
:1026400001210903044802F0B4F90128F8D1C102BC
:10265000014853E0482200080004004837000020E9
:1026600013000020BC000020496E7075743A2A2ABD
:102670002A2A2A2A20000000000800489200002090
:102680009C000020204E65772050617373776F7235
:10269000642020001F000020312E496E7075743AAE
:1026A0002020202020202000312E496E7075743AA1
:1026B0005F2020202020200044000020312E496E81
:1026C0007075743A2A20202020202000312E496E77
:1026D0007075743A2A5F202020202000312E496E28
:1026E0007075743A2A2A202020202000312E496E4D
:1026F0007075743A2A2A5F202020200002F059F9D0
:1027000001289DD10421FE4802F053F9012897D1F8
:102710008103FB4802F04DF9012891D1F948007876
:10272000401CF8490870F8484078401CF64900E021
:1027300003E048700020F549C880CDE6F4480078F1
:10274000002806D001280AD002280ED0032818D16C
:1027500011E0F0A20121084603F051FF11E0F1A2BF
:102760000121084603F04BFF0BE0EAA201210846D5
:1027700003F045FF05E0EBA20121084603F03FFF0F
:1027800000BF00BF01210903DD4802F012F9012852
:1027900011D1C102DA4802F00CF901280BD1042151
:1027A000D74802F006F9012805D18103D44802F088
:1027B00000F901282CD004F0D0FA06A9D14A1278E9
:1027C000885400BF01210903CD4802F0F2F8012826
:1027D000F8D1C102CA4802F0ECF80128F2D1042174
:1027E000C74802F0E6F80128ECD18103C44802F0A2
:1027F000E0F80128E6D1C3480078401CC1490870C0
:10280000C1484078401CC04948700020BF49C8807A
:1028100062E6BF480078002806D001280AD00228C6
:102820000ED0032818D111E0C2A20121084603F0FE
:10283000E6FE11E0C3A20121084603F0E0FE0BE032
:10284000BCA20121084603F0DAFE05E0BDA2012189
:10285000084603F0D4FE00BF00BF01210903A848C9
:1028600002F0A7F8012811D1C102A54802F0A1F891
:1028700001280BD10421A24802F09BF8012805D1C0
:1028800081039F4802F095F801282CD004F065FAE6
:1028900006A99C4A1278885400BF01210903984870
:1028A00002F087F80128F8D1C102954802F081F8BA
:1028B0000128F2D10421924802F07BF80128ECD1E2
:1028C00081038F4802F075F80128E6D18D48007821
:1028D000401C8C4908708C484078401C8A494870DC
:1028E00000208A49C880F7E589480078002806D08A
:1028F00001280AD002280ED0032818D111E095A291
:102900000121084603F07BFE11E096A20121084652
:1029100003F075FE0BE08FA20121084603F06FFE65
:1029200005E090A20121084603F069FE00BF00BF48
:1029300001210903724802F03CF8012811D1C102BB
:102940006F4802F036F801280BD104216C4802F0E0
:1029500030F8012805D18103694802F02AF80128DE
:1029600035D004F0FAF906A9664A1278885400BFF7
:1029700001210903624802F01CF80128F8D1C102C4
:102980005F4802F016F80128F2D104215C4802F0F9
:1029900010F80128ECD18103594802F00AF8012807
:1029A000E6D158480078401C56490870564840788F
:1029B000401C5549487000205449C8806DA201212F
:1029C000084603F01CFEFF20F53001F0D6FBF6E3CD
:1029D0000121C9036B4801F0ECFF01287ED11420CE
:1029E00001F0CBFB0121C903664801F0E2FF012899
:1029F000F4D10020434908704349487006A968464D
:102A000004F0FCFDFF20F53001F0B7FB03F0EFFD13
:102A1000022001F0B2FB5CA20021012003F0EFFDD7
:102A2000F8E339488078030004F066FE08D005D347
:102A3000F4F3F2F1F0D036480078002806D00128EF
:102A40000AD002280ED0032818D111E052A2012189
:102A5000084603F0D4FD11E053A20121084603F01B
:102A6000CEFD0BE04CA20121084603F0C8FD05E0B5
:102A70004DA20121084603F0C2FD00BF00BF0121A5
:102A800009031F4801F095FF012811D1C1021C481C
:102A900001F08FFF01280BD10421194801F089FFB3
:102AA000012805D18103164801F083FF012825D0B4
:102AB00004F053F903A9134A1278885400BF012186
:102AC00009030F4801F075FF0128F8D1C1020C4835
:102AD00001F06FFF0128F2D1042100E09FE30848D4
:102AE00001F067FF0128EAD18103054801F061FF89
:102AF0000128E4D103480078401C5DE066E090E3E3
:102B0000000400484400002013000020BC00002006
:102B10001F000020312E496E7075743A2A2A2A202F
:102B200020202000312E496E7075743A2A2A2A5FBF
:102B300020202000312E496E7075743A2A2A2A2AE4
:102B400020202000312E496E7075743A2A2A2A2AD4
:102B50005F202000312E496E7075743A2A2A2A2A85
:102B60002A202000312E496E7075743A2A2A2A2AAA
:102B70002A5F2000312E496E7075743A2A2A2A2A5B
:102B80002A2A200000080048204E657720506173F3
:102B900073776F7264000000322E496E7075743A5C
:102BA0002020202020202000322E496E7075743A9B
:102BB0005F20202020202000FE490870FE488078F9
:102BC000401CFD4988700020FC49C88021E357E380
:102BD00048E3FB480078002806D001280AD00228E4
:102BE0000ED003281DD116E0F6A20121084603F0FD
:102BF00006FD16E0F7A20121084603F000FD10E0F3
:102C0000F0A20121084603F0FAFC0AE063E291E138
:102C100025E1B9E04DE0EFA20121084603F0EFFC09
:102C200000BF00BF01210903EE4801F0C2FE0128E8
:102C300011D1C102EB4801F0BCFE01280BD10421E7
:102C4000E84801F0B6FE012805D18103E54801F00E
:102C5000B0FE01282CD004F080F803A9D54A1278E0
:102C6000885400BF01210903DE4801F0A2FE0128BB
:102C7000F8D1C102DB4801F09CFE0128F2D1042109
:102C8000D84801F096FE0128ECD18103D54801F027
:102C900090FE0128E6D1C7480078401CC54908705D
:102CA000C5488078401CC44988700020C349C8804A
:102CB000AFE2C3480078002806D001280AD00228D5
:102CC0000ED0032818D111E0C7A20121084603F055
:102CD00096FC11E0C8A20121084603F090FC0BE02D
:102CE000C1A20121084603F08AFC05E0C2A201212D
:102CF000084603F084FC00BF00BF01210903B94866
:102D000001F057FE012811D1C102B64801F051FE71
:102D100001280BD10421B34801F04BFE012805D155
:102D20008103B04801F045FE01282CD004F015F8CD
:102D300003A9A04A1278885400BF01210903A948B9
:102D400001F037FE0128F8D1C102A64801F031FE9A
:102D50000128F2D10421A34801F02BFE0128ECD177
:102D60008103A04801F025FE0128E6D191480078B2
:102D7000401C9049087090488078401C8E498870AB
:102D800000208E49C88044E28D480078002806D093
:102D900001280AD002280ED0032818D111E09AA2E7
:102DA0000121084603F02BFC11E09BA201210846FB
:102DB00003F025FC0BE094A20121084603F01FFC60
:102DC00005E095A20121084603F019FC00BF00BFF1
:102DD00001210903834801F0ECFD012811D1C10252
:102DE000804801F0E6FD01280BD104217D4801F067
:102DF000E0FD012805D181037A4801F0DAFD0128C0
:102E00002CD003F0AAFF03A96A4A1278885400BFA5
:102E100001210903734801F0CCFD0128F8D1C1025A
:102E2000704801F0C6FD0128F2D104216D4801F07F
:102E3000C0FD0128ECD181036A4801F0BAFD0128E8
:102E4000E6D15C480078401C5A4908705A4880789E
:102E5000401C5949887000205849C880D9E1584819
:102E60000078002806D001280AD002280ED00328B6
:102E700018D111E06CA20121084603F0C0FB11E05B
:102E80006DA20121084603F0BAFB0BE066A2012106
:102E9000084603F0B4FB05E067A20121084603F0F1
:102EA000AEFB00BF00BF012109034E4801F081FDC8
:102EB000012811D1C1024B4801F07BFD01280BD143
:102EC0000421484801F075FD012805D181034548DA
:102ED00001F06FFD01282CD003F03FFF03A9354A14
:102EE0001278885400BF012109033E4801F061FDBA
:102EF0000128F8D1C1023B4801F05BFD0128F2D165
:102F00000421384801F055FD0128ECD181033548F2
:102F100001F04FFD0128E6D126480078401C2549E4
:102F2000087025488078401C234988700020234978
:102F3000C8806EE122480078002806D001280AD017
:102F400002280ED0032818D111E03FA20121084623
:102F500003F055FB11E040A20121084603F04FFBAE
:102F60000BE039A20121084603F049FB05E03AA233
:102F70000121084603F043FB00BF00BF0121090304
:102F8000184801F016FD012811D1C102154801F0C1
:102F900010FD01280BD10421124801F00AFD01287F
:102FA00005D181030F4801F004FD01287ED003F014
:102FB000D4FE59E04400002013000020BC00002093
:102FC0001F000020322E496E7075743A2A2020208E
:102FD00020202000322E496E7075743A2A5F20201E
:102FE0002020200000040048322E496E7075743A8B
:102FF0002A2A202020202000322E496E7075743A33
:103000002A2A5F2020202000322E496E7075743AE3
:103010002A2A2A2020202000322E496E7075743A08
:103020002A2A2A5F20202000322E496E7075743AB9
:103030002A2A2A2A20202000322E496E7075743ADE
:103040002A2A2A2A5F202000322E496E7075743A8F
:103050002A2A2A2A2A202000322E496E7075743AB4
:103060002A2A2A2A2A5F200003A9F84A12788854BB
:1030700000BF01210903F64801F09BFC0128F8D1AB
:10308000C102F34801F095FC0128F2D10421F04877
:1030900001F08FFC0128ECD18103ED4801F089FC9F
:1030A0000128E6D1E9480078401C00E012E0E74939
:1030B0000870E8488078401CE64988700020E6499E
:1030C000C880E6A20121084603F099FAFF20F530F6
:1030D00001F053F89DE00121C903E44801F069FCC7
:1030E00001286BD1142001F048F80121C903DF4801
:1030F00001F05FFC012861D10020D6498870684644
:103100000178007B81425BD168464178407B8142F7
:1031100056D168468178807B814251D16846C1781A
:10312000C07B81424CD168460179007C814247D105
:1031300068464179407C814242D10020CC490870E8
:10314000CC490880CC494871C2494871BF490870D0
:10315000C049487008708870C848028803A9C848E8
:103160000068FDF709FBC5480288C649C4480068E5
:10317000FDF727FB0020C44908700BE0C148C24A94
:103180001278815CC1A004F0A7FABF480078401C07
:10319000BD490870BC4800780628EFDB03F027FA29
:1031A000BCA20021012003F02AFABEA20121084698
:1031B00003F025FA7D20000100F0DFFF28E02FE07A
:1031C000AC480088401CAB49088003F010FAB9A253
:1031D0000021012003F013FABAA20121084603F0EE
:1031E0000EFA7D20000100F0C8FF0020A049087001
:1031F000A14948710120974948710870487088704A
:10320000002092490870FEF7C3FCFFF7E9F801E0DF
:1032100000BF00BF8F484079002800D001E400BF04
:1032200000BF8C484079002801D0FFF7E1F817E093
:1032300090480088401C8F490880002092490870FF
:1032400003F0D5F9A3A20021012003F0D8F9A54885
:1032500000F093FF03F0CBF9FEF79AFCFEF7B8FC01
:1032600000BF00BF7B484079002801D0FEF7C8FCB2
:10327000012189037D4801F09CFB012800D101E078
:10328000FEF7BDFC00BF98A004F026FA0CB010BDFC
:1032900010B57C480078002813D17A48407800287F
:1032A0000FD17848807800280BD17648C078002864
:1032B00007D174480079002803D17248407900286A
:1032C00017D070480078FF2818D16E484078FF2842
:1032D00014D16C488078FF2810D16A48C078FF2844
:1032E0000CD168480079FF2808D166484079FF284A
:1032F00004D18049804804F081F91FE07D4961488C
:1033000004F06EF9002804D17A497B4804F076F97C
:1033100014E000205C4908700CE05A485A490978CA
:10332000405C7549584A1278885457480078401CC8
:1033300055490870544800780628EEDB10BD10B5DA
:1033400003F055F90A2000F018FF6CA200210120BB
:1033500003F055F96DA20121084603F050F900BFB2
:10336000012109033A4801F024FB0028F8D001218B
:1033700089033E4801F01DFB0028F1D001214903DB
:103380003A4801F016FB0028EAD00121C90337486A
:1033900001F00FFB0128E3D040E00121890333480D
:1033A00001F007FB00282FD12B49C8805BA2012127
:1033B000084603F024F97D20C00000F0DEFE5BA289
:1033C0000121084603F01BF97D20C00000F0D5FE66
:1033D0005AA20121084603F012F97D20C00000F036
:1033E000CCFE0622594926480068FDF7C5F958A2C7
:1033F0000121084603F003F97D20C00000F0BDFE66
:1034000000201549C88010BD01214903174801F06B
:10341000D0FA002802D11049C880F4E7BDE710B502
:10342000002400BF002401200A494871087000BF31
:103430004BA20021012003F0E2F8FDE3FDF7CDF9F6
:1034400004480078082800D292E083E2440000207B
:103450000004004813000020BC000020322E496EFA
:103460007075743A2A2A2A2A2A2A2000000800485D
:103470001F00002038000020190000203C00002020
:10348000400000209C0000203700002025580D0A35
:10349000000000004D6F646966792066696E6E6990
:1034A000736821004E65772050617373776F726483
:1034B000204F6B00326E6420696E707574206572E7
:1034C000726F7200506C7320696E70757420616742
:1034D00061696E002020496E6974204572726F72B6
:1034E00020200000DC0500006E69656E69656E696C
:1034F00065350000107A000892000020526573655F
:10350000742050617373776F726400004F70656E42
:103510003A592020436C6F73653A4E002057616919
:1035200074205265736574202E2E2E002057616919
:1035300074205265736574202E2E20002057616917
:1035400074205265736574202E20200088000020AE
:103550002057616974205265736574206F6B200079
:1035600050617373776F726420656E7465722000AA
:1035700043007B449B885B009F44EC010700A9004B
:103580004B01ED01CB026F036804F8480078002876
:1035900006D001280AD002280ED0032818D111E045
:1035A000F3A20121084603F02AF811E0F4A2012158
:1035B000084603F024F80BE0EDA20121084603F0D1
:1035C0001EF805E0EEA20121084603F018F800BF3E
:1035D00000BF0121C903EE4801F0EBF9012834D105
:1035E0008103EB4801F0E5F900282ED101214903C0
:1035F000E74801F0DEF9002827D101210903E54859
:1036000001F0D7F9002820D1142000F0B6FD0121E7
:10361000C903DF4801F0CDF9012857D18103DC4807
:1036200001F0C7F9002851D101214903D84801F020
:10363000C0F900284AD101210903D64801F0B9F99F
:10364000002843D1FFF77BFEECE601210903D148B6
:1036500001F0AFF9012811D1C102CE4801F0A9F95A
:1036600001280BD10421CB4801F0A3F9012805D191
:103670008103C84801F09DF9012827D003F06DFBB4
:10368000C549085500BF01210903C24801F091F95D
:103690000128F8D1C102BF4801F08BF90128F2D10D
:1036A0000421BC4801F085F90128ECD18103B94817
:1036B00001F07FF90128E6D1601CC4B2B748007858
:1036C000401CB64908700020B549C88042E1A748AF
:1036D0000078002806D001280AD002280ED003283E
:1036E00018D111E0AFA20121084602F088FF11E0D5
:1036F000B0A20121084602F082FF0BE0A9A201213D
:10370000084602F07CFF05E0AAA20121084602F06B
:1037100076FF00BF00BF0121C9039D4801F049F9B0
:10372000012834D181039A4801F043F900282ED1B1
:1037300001214903964801F03CF9002827D10121D5
:103740000903944801F035F9002820D1142000F035
:1037500014FD0121C9038E4801F02BF9012857D12E
:1037600081038B4801F025F9002851D1012149033B
:10377000874801F01EF900284AD101210903854834
:1037800001F017F9002843D1FFF7D9FD4AE60121DE
:103790000903804801F00DF9012811D1C1027D48CB
:1037A00001F007F901280BD104217A4801F001F951
:1037B000012805D18103774801F0FBF8012827D0C3
:1037C00003F0CBFA7449085500BF01210903714881
:1037D00001F0EFF80128F8D1C1026E4801F0E9F8D4
:1037E0000128F2D104216B4801F0E3F80128ECD163
:1037F0008103684801F0DDF80128E6D1601CC4B2FD
:1038000066480078401C6549087000206449C880FB
:10381000A5E356480078002806D001280AD00228DF
:103820000ED0032818D111E066A20121084602F04B
:10383000E6FE11E067A20121084602F0E0FE0BE07F
:1038400060A20121084602F0DAFE05E061A2012132
:10385000084602F0D4FE00BF00BF0121C9034C4856
:1038600001F0A7F8012834D18103494801F0A1F8FB
:1038700000282ED101214903454801F09AF800287B
:1038800027D101210903434801F093F8002820D1F2
:10389000142000F072FC0121C9033D4801F089F8B1
:1038A000012857D181033A4801F083F8002851D10B
:1038B00001214903364801F07CF800284AD1012152
:1038C0000903344801F075F8002843D1FFF737FDAC
:1038D000A8E5012109032F4801F06BF8012811D157
:1038E000C1022C4801F065F801280BD104212948B8
:1038F00001F05FF8012805D18103264801F059F84D
:10390000012827D003F029FA2349085500BF0121D7
:103910000903204801F04DF80128F8D1C1021D48E3
:1039200001F047F80128F2D104211A4801F041F8CA
:103930000128ECD18103174801F03BF80128E6D1BA
:10394000601CC4B215480078401C1449087000205F
:103950001349C88003E305480078002842D00128B5
:1039600046D002284AD0032854D14DE01F00002041
:10397000496E7075743A20202020202020202000DD
:10398000496E7075743A20205F202020202020008E
:103990000008004800040048A60000201300002092
:1039A000BC000020496E7075743A20202A20202027
:1039B00020202000496E7075743A20202A5F202054
:1039C00020202000496E7075743A20202A2A202079
:1039D00020202000496E7075743A20202A2A5F202A
:1039E00020202000F6A20121084602F008FE11E086
:1039F000F7A20121084602F002FE0BE0F0A201212D
:103A0000084602F0FCFD05E0F1A20121084602F0A3
:103A1000F6FD00BF00BF0121C903F14800F0C9FF56
:103A2000012834D18103EE4800F0C3FF00282ED1D5
:103A300001214903EA4800F0BCFF002827D10121F9
:103A40000903E84800F0B5FF002820D1142000F059
:103A500094FB0121C903E24800F0ABFF012857D1D4
:103A60008103DF4800F0A5FF002851D1012149035F
:103A7000DB4800F09EFF00284AD101210903D94804
:103A800000F097FF002843D1FFF759FCCAE4012159
:103A90000903D44800F08DFF012811D1C102D1489B
:103AA00000F087FF01280BD10421CE4800F081FFF0
:103AB000012805D18103CB4800F07BFF012827D0E6
:103AC00003F04BF9C849085500BF01210903C54857
:103AD00000F06FFF0128F8D1C102C24800F069FF71
:103AE0000128F2D10421BF4800F063FF0128ECD186
:103AF0008103BC4800F05DFF0128E6D1601CC4B220
:103B0000BA480078401CB94908700020B849C880FC
:103B100025E2B8480078002806D001280AD00228FB
:103B20000ED0032818D111E0B3A20121084602F0FB
:103B300066FD11E0B4A20121084602F060FD0BE031
:103B4000ADA20121084602F05AFD05E0AEA2012116
:103B5000084602F054FD00BF00BF0121C903A04880
:103B600000F027FF012834D181039D4800F021FF98
:103B700000282ED101214903994800F01AFF00289E
:103B800027D101210903974800F013FF002820D115
:103B9000142000F0F2FA0121C903914800F009FF56
:103BA000012859D181038E4800F003FF002853D12A
:103BB000012149038A4800F0FCFE00284CD1012174
:103BC0000903884800F0F5FE002845D1FFF7B7FB50
:103BD00028E401210903834800F0EBFE012811D1FC
:103BE000C102804800F0E5FE01280BD104217D4888
:103BF00000F0DFFE012805D181037A4800F0D9FEEC
:103C0000012829D003F0A9F87749085500BF012100
:103C10000903744800F0CDFE0128F8D1C1027148B3
:103C200000F0C7FE0128F2D104216E4800F0C1FE69
:103C30000128ECD1810300E092E16A4800F0B9FE6E
:103C40000128E4D1601CC4B268480078401C674970
:103C5000087000206649C88081E166480078002825
:103C600006D001280AD002280ED0032818D111E06E
:103C700069A20121084602F0C2FC11E06AA20121FA
:103C8000084602F0BCFC0BE063A20121084602F0EA
:103C9000B6FC05E064A20121084602F0B0FC00BFBA
:103CA00000BF0121C9034E4800F083FE012834D132
:103CB00081034B4800F07DFE00282ED101214903ED
:103CC000474800F076FE002827D101210903454826
:103CD00000F06FFE002820D1142000F04EFA0121E0
:103CE000C9033F4800F065FE012868D181033C48C4
:103CF00000F05FFE002862D101214903384800F03E
:103D000058FE00285BD101210903364800F051FE1E
:103D1000002854D1FFF713FB96E401210903314831
:103D200000F047FE012811D1C1022E4800F041FEEB
:103D300001280BD104212B4800F03BFE012805D1BE
:103D40008103284800F035FE012838D003F005F83B
:103D50002549085500BF01210903224800F029FE2A
:103D60000128F8D1C1021F4800F023FE0128F2D13A
:103D700004211C4800F01DFE0128ECD181031948E4
:103D800000F017FE0128E6D1601CC4B21748007885
:103D9000401C1649087028A20121084602F02FFC99
:103DA000FF20F53000F0E9F9274A0121084602F02A
:103DB00026FC642000F0E1F900200D49C880CEE027
:103DC000496E7075743A20202A2A2A20202020006B
:103DD000496E7075743A20202A2A2A5F202020001C
:103DE0000008004800040048A6000020130000203E
:103DF000BC0000201F000020496E7075743A20201E
:103E00002A2A2A2A20202000496E7075743A202020
:103E10002A2A2A2A5F202000496E7075743A2020D1
:103E20002A2A2A2A2A202000496E7075743A2020F6
:103E30002A2A2A2A2A5F2000496E7075743A2020A7
:103E40002A2A2A2A2A2A200070390008994802883A
:103E500099499A480068FCF7B4FCFFF719FA9849A9
:103E6000984803F0BDFB002833D197490870974963
:103E70004871974948710870002428E092480078FA
:103E8000002806D001280AD002280ED0032818D115
:103E900011E090A20121084602F0B1FB11E0914A25
:103EA0000121084602F0ABFB0BE08AA20121084683
:103EB00002F0A5FB05E08B4A0121084602F09FFBBA
:103EC00000BF00BF80480078032800DB00E0D5E792
:103ED00041E085480088401C8349088000207A49D9
:103EE00008707A49487128E077480078002806D0A1
:103EF00001280AD002280ED0032818D111E07BA295
:103F00000121084602F07BFB11E0764A01210846B8
:103F100002F075FB0BE075A20121084602F06FFB71
:103F200005E0704A0121084602F069FB00BF00BFAE
:103F300065480078032800DB00E0D5E700BF0120DA
:103F40006349487100240870FDF722FE00206B4988
:103F5000C880FFF76DFA00206849C88000BF00BF25
:103F60005B484079002801D0FFF768FA10BD8AB09D
:103F700000BF002403F07BFA01A800F08EFF00F0E0
:103F800017FF0446002C00DD00E000BF642000F0B5
:103F9000F4F8FCF7EBF9FCF797F802F06BFBFCF791
:103FA00071F9FCF741F9FCF7AEF802F0E9FF03F014
:103FB0009CF902F069FA00205049C880FFF72FFAF7
:103FC0004F4A0121002002F01AFB4EA200210846B0
:103FD00002F015FB00204949C8806AE0012109036D
:103FE0004D4800F0E6FC012855D1C1024A4800F0D6
:103FF000E0FC00284FD10421474800F0DAFC0028FB
:1040000049D101218903444800F0D3FC012842D161
:10401000142000F0B2F8012109033F4800F0C9FC68
:10402000012838D1C1023C4800F0C3FC002832D13D
:104030000421394800F0BDFC00282CD1012189035E
:10404000354800F0B6FC012825D102F0D0FA0A204C
:1040500000F093F8314A0021012002F0D0FA2F4AF3
:104060001C320121084602F0CAFA00BF0121C90230
:10407000294800F09EFC0028F8D00421264800F0D2
:1040800098FC0028F2D000201C49C880FDF79CFD58
:1040900000201A49C8801A4A0121002002F0AFFA14
:1040A00018A20021084602F0AAFAFCF7A9FBFCF7C7
:1040B00094FB93E73C0000209C000020400000207F
:1040C000A6000020920000201F0000201900002000
:1040D00013000020496E7075743A20436F72726548
:1040E000637421007039000838000020496E707533
:1040F000743A204572726F7221212100BC000020A9
:10410000281300082043696E656D61202073797360
:1041100074656D200000000000040048801D000848
:10412000704700BFFEE770477047704770B50446A0
:104130000D46E1B2184801F0C9FF00BF4021164802
:1041400002F0DDF80028F9D0204670BD0FE0411CD8
:1041500088B2411E88B2411C88B2411E88B2411CFF
:1041600088B2411E88B2411C88B2411E88B2014605
:10417000421E90B20029EAD17047014606E00020B5
:1041800001E0421C90B2054A9042FADB0A464B1EFF
:1041900099B2002AF3D1704700380140B80B0000F3
:1041A00001460020FE4A10684008400002460A43CB
:1041B0001046FB4A10607047002806D0F84909688D
:1041C00010221143F64A116005E0F54909681022F2
:1041D0009143F34A116070470020F1490968202299
:1041E0001140002901D0012000E000207047EC4878
:1041F000006980210840002804D0EA48E849486066
:10420000E94848607047E648006980210843E4496E
:10421000086170470420E249C968C907C90F00292D
:1042200001D0012010E0DE49C968102211400029A8
:1042300001D0022008E0DA49C968042211400029AF
:1042400001D0032000E00420704710B50346042489
:10425000FFF7E0FF044603E0FFF7DCFF04465B1EC8
:10426000012C01D1002BF7D1002B00D105242046D1
:1042700010BD30B5044604250B200004FFF7E5FF10
:104280000546042D17D1C648006902210843C449D8
:10429000086108464461006940210843C04908613B
:1042A0000B200004FFF7D1FF0546BD48006902213D
:1042B0008843BB490861284630BD10B504240B2053
:1042C0000004FFF7C2FF0446042C16D1B44800696D
:1042D00004210843B24908610846006940210843A7
:1042E000AF4908610B200004FFF7AFFF0446AC485C
:1042F000006904218843AA490861204610BD78B5A9
:1043000006460C460425002000900B200004FFF711
:104310009CFF0546042D24D1A148006901210843D2
:104320009F49086134800B200004FFF78EFF05468B
:10433000042D10D1B01C0090200C009908800B2097
:104340000004FFF782FF05469548006940084000D9
:104350009349086105E0924800694008400090498F
:104360000861284678BD70B504460D4604260B202A
:104370000004FFF76AFF0646042E11D18848006941
:10438000012108438649086125800B200004FFF7BE
:104390005CFF064682480069400840008049086189
:1043A000304670BD7E48006901214902084000285E
:1043B00004D17C487A4988607B4888607047784897
:1043C00000690121490288437549086170477448B2
:1043D00000690121490308437149086170470020C1
:1043E0006F49C96906221140002901D0012000E06F
:1043F0000020704730B5AA250424FFF7F0FF0028FD
:1044000000D000250B200004FFF71FFF0446042CFA
:1044100036D1634800692021084361490861084694
:104420000069402108435E4908610B200004FFF742
:104430000CFF0446042C1BD15948006920218843F5
:10444000574908610846006910210843544908612A
:10445000564805800B200004FFF7F7FE0446052CA4
:104460000ED04F480069102188434D49086107E08C
:10447000052C05D04A480069102188434849086145
:10448000204630BDFCB50446494E374630460190C3
:1044900000900425E443E6B22004070E2002000E3B
:1044A0000190200E00900B200004FFF7CEFE054681
:1044B000042D3BD13A48006910210843384908616E
:1044C000FF2E06D0394806810B200004FFF7BDFE01
:1044D0000546042D08D1FF2F06D0344847810B2014
:1044E0000004FFF7B2FE0546042D0AD10198FF280B
:1044F00007D02E49019888810B200004FFF7A5FE04
:104500000546042D0AD10098FF2807D027490098B6
:10451000C8810B200004FFF798FE0546052D05D045
:104520001F480069102188431D4908612846FCBDC9
:1045300030B5054604240B200004FFF786FE044630
:10454000042C41D116480069202108431449086110
:104550000846006940210843114908610B20000406
:10456000FFF773FE0446042C26D10D480069202174
:1045700088430B490861084600691021084308492F
:1045800008610A4805800B200004FFF75EFE044620
:10459000052C19D00248006910218843004909E020
:1045A0000020024023016745AB89EFCD00F8FF1FD3
:1045B000FFFF0000086107E0052C05D0A248006954
:1045C00020218843A0490861204630BDF0B505464A
:1045D0000E46174604240B200004FFF736FE04465F
:1045E000042C19D1984800691021084396490861A4
:1045F00028463043F82139430843944948800B202A
:104600000004FFF722FE0446052C05D08E48006901
:10461000102188438C4908612046F0BD30B505461D
:1046200004240B200004FFF710FE0446042C16D1CE
:10463000854800691021084383490861EF20284319
:10464000824948800B200004FFF7FFFD0446052C3B
:1046500005D07D480069102188437B4908612046C8
:1046600030BD30B5054604240B200004FFF7EDFDF6
:104670000446042C16D1744800691021084372497D
:104680000861F7202843714948800B200004FFF798
:10469000DCFD0446052C05D06B48006910218843D9
:1046A00069490861204630BD30B5054604240B2019
:1046B0000004FFF7CAFD0446042C16D162480069C5
:1046C00010210843604908617F2028435F494880E2
:1046D0000B200004FFF7B9FD0446052C05D05A480D
:1046E00000691021884358490861204630BD30B523
:1046F000054604240B200004FFF7A7FD0446042C04
:1047000016D151480069102108434F490861DF2044
:1047100028434E4948800B200004FFF796FD0446CD
:10472000052C05D048480069102188434649086196
:10473000204630BD30B5054604240B200004FFF7A9
:1047400084FD0446042C16D13F480069102108431B
:104750003D490861BF2028433C4948800B200004A4
:10476000FFF773FD0446052C05D03748006910217A
:10477000884335490861204630BD30B505460424DC
:104780000B200004FFF761FD0446042C14D12E48D1
:104790000069102108432C4908612C4845800B20F2
:1047A0000004FFF752FD0446052C05D02648006999
:1047B0001021884324490861204630BD70B5054664
:1047C0000E4604240B200004FFF73FFD0446042C92
:1047D00013D11D480069102108431B4908612E8030
:1047E0000B200004FFF731FD0446052C05D01648C8
:1047F00000691021884314490861204670BD1248A1
:10480000C0690004000E70470F48006A7047002915
:1048100005D00D4A126902430B4B1A6104E00A4AA3
:1048200012698243084B1A61704701460020064A0C
:10483000D2680A40002A01D0012000E00020704721
:104840000149C860704700000020024000F8FF1FC7
:1048500010B504460920C006844209D1012148044C
:1048600000F064FC00210120400400F05FFC3CE00B
:104870007448844208D10121000200F057FC002155
:10488000200200F053FC30E06F48844208D101213F
:10489000000200F04BFC0021200200F047FC24E065
:1048A0006A48844209D10121080500F03FFC00213B
:1048B0000120000500F03AFC17E06548844208D169
:1048C0000121400200F032FC0021600200F02EFCC9
:1048D0000BE06048844208D10121880500F026FCE5
:1048E00000210120800500F021FC10BDF0B50A4632
:1048F00000210023002400BF3DE001258D402B4610
:1049000015681D402C469C4234D11579012D02D0EA
:104910001579022D16D185684F000326BE40B54398
:10492000856055794E00B540866835438560858839
:1049300001268E40B5438580858896798E40B6B233
:104940003543858005684F000326BE40B5430560AA
:1049500015794E00B540066835430560C5684F00BF
:104960000326BE40B543C560D5794E00B540C66844
:104970003543C560491C1029BFD3F0BD36490160DD
:10498000002101710121417100218171C1717047C4
:1049900008B5012212040092009A0A430092009A7C
:1049A000C261C161009AC261C2690092C26900928B
:1049B00008BD02460020138A0B40002B01D00120C5
:1049C00000E0002070470146088A70470246002038
:1049D000938A0B40002B01D0012000E0002070479B
:1049E0000146888A70478161704701857047002AB7
:1049F00001D0816100E00185704781827047F0B588
:104A0000002300244D07EE0E1546B5402B46CD1071
:104A1000AE0005462035AD594E07F70E0F26BE40B5
:104A2000B543CE10B60007462037BD51CD10AE00BD
:104A30003D46AD591D432C46CD10AD003E46745148
:104A4000F0BD00000004004800080048000C0048C9
:104A50000010004800140048FFFF00000021827889
:104A6000002A27D0274A03231B02D21803789B1061
:104A70009B00D15802789207D30EFF229A400B4632
:104A80009343194642789207120E03789B07DB0E78
:104A90009A4011431B4A03231B02D21803789B1030
:104AA0009B00D1500278D306DB0E01229A40154BB1
:104AB0001A6007E00278D306DB0E01229A40114B00
:104AC00080331A607047002905D00F4A12690243EB
:104AD0000D4B1A6104E00C4A126982430A4B1A61B9
:104AE0007047042806D10949096904221143074A7D
:104AF000116105E00549096904229143034A1161E6
:104B00007047000000E100E000ED00E000E000E0A0
:104B1000FB48006801210843F949086008464068DD
:104B2000F8490840F649486008460068F6490840D8
:104B3000F349086008460068012189048843F04968
:104B40000860084640683F2109048843EC494860F2
:104B50000846C06A00090001C8620846006BFF21D0
:104B600054318843E64908630846406B40084000DA
:104B700048630020886070470021E14A9170114627
:104B80008870704710B502460021002300205111A3
:104B9000002902D1DA4C23680BE0012902D1D84C5C
:104BA000236A06E0022902D1D54C636A01E0D44CA5
:104BB000636BD106C90E01248C401C40002C01D02F
:104BC000012000E0002010BD38B500200090002436
:104BD000002500BF1120FFF7D5FF05460098401CB7
:104BE0000090052109030098884201D0002DF1D0E2
:104BF0001120FFF7C7FF002801D0012400E00024A6
:104C0000204638BD01460020BD4A1068F823024600
:104C10009A431046CA001043B94A106070470028F2
:104C200006D0B749096801221143B54A116005E071
:104C3000B349096849084900B14A11607047014603
:104C40000020AF4A506BF82302469A431046CA0030
:104C50001043AB4A50637047002806D0A849496BFF
:104C600001221143A64A516305E0A549496B490851
:104C70004900A34A51637047002806D0A049496BF8
:104C8000042291439E4A516305E09D49496B0422E9
:104C900011439B4A516370479949096A4908490081
:104CA000974A11621146096A04229143944A11629B
:104CB0001146096A0143116270479149096A182235
:104CC00091438F4A11621146096A0143116270478C
:104CD000002806D08A49496A01221143884A516254
:104CE00005E08749496A49084900854A5162704789
:104CF000834A52687B23DB039A43814B5A601A46EE
:104D0000526803460B431A437D4B5A607047002894
:104D100007D07B490968012212061143784A1160C5
:104D200006E077490968012212069143744A11602E
:104D30007047002807D07249496B012212041143C1
:104D40006F4A516306E06E49496B01221204914398
:104D50006B4A5163704701460020694AD06A0009D6
:104D6000000102460A431046654AD0627047002897
:104D700007D0634909680122D2041143604A1160D7
:104D800006E05F4909680122D20491435C4A116040
:104D900070475B49C871704701460020584A506807
:104DA0008008800002460A431046554A506070470A
:104DB000534840680C210840704701460020504A83
:104DC0005068F02302469A43104602460A431046B2
:104DD0004B4A5060704701460020494A50680723FB
:104DE0001B0202469A43104602460A431046444AB2
:104DF0005060704742494968012292039143404AFA
:104E000051601146496882B211433D4A51601146D2
:104E1000096B921591433A4A11631146096B020CD2
:104E20001143374A116370473549096B402291435A
:104E3000334A11631146096B0143116370473049CE
:104E4000096B102291432E4A11631146096B0143ED
:104E5000116370470021010F012906D1284A126B06
:104E600092089200264B1A6306E0254A126B032330
:104E70001B049A43224B1A63214A126B0243204BB4
:104E80001A6370471E49096B802291431C4A1163C3
:104E90001146096B014311637047FEB504460025B6
:104EA00000260020029001900090002714484068DE
:104EB0000C2108400546002D06D0042D07D0082DF2
:104EC00008D00C2D37D133E01048206036E00F4871
:104ED000206033E00A4840680F21890408400646F4
:104EE000074840680321C90308400290B00C861CA3
:104EF000029800280ED106483746474316E00000C6
:104F0000001002400CB8FFF8FFFFF6FE00127A0016
:104F100000093D00AC48C06A0007000F401C01902A
:104F2000AA48019902F034FB70430746276005E068
:104F3000A748206002E0A548206000BF00BFA2484B
:104F40004068F021084005462D09A248405D0090C8
:104F500021680098C14061609B48406807210902B0
:104F6000084005462D0A9B48405D00906168009806
:104F7000C140A1609448006BFF2101310840884284
:104F800002D09548E0600DE08F4840680121890318
:104F90000840884203D0A0684008E06002E0A068B2
:104FA0008008E0608848006B40210840402802D01B
:104FB0008A48206102E00120C00320618248006B22
:104FC00010210840102802D08048606101E020686C
:104FD00060617D48006B8007800F002802D1A068C7
:104FE000A06119E07848006B8007800F012802D18A
:104FF0002068A06110E07448006B8007800F0228D1
:1050000002D18003A06107E06F48006B8007800F2A
:10501000032801D16D48A0616B48006B032109048E
:105020000840002802D1A068E06120E06648006BDB
:1050300003210904084001210904884202D12068A3
:10504000E06114E06048006B03210904084001217D
:105050004904884202D18010E06108E05A48006BA0
:10506000032109040840884201D15848E0615648AC
:10507000006B80210840802802D05548206200E063
:105080002762FEBD5049096A01434F4A11627047C9
:10509000002807D04C49096A0122D20311434A4A29
:1050A000116206E04849096A0122D2039143464A47
:1050B00011627047002807D04349096A012212048F
:1050C0001143414A116206E03F49096A0122120474
:1050D00091433D4A11627047002905D03A4A52690E
:1050E0000243394B5A6104E0374A52698243364BD6
:1050F0005A617047002905D0334A92690243324B06
:105100009A6104E0304A926982432F4B9A6170475A
:10511000002905D02C4AD26902432B4BDA6104E006
:10512000294AD2698243284BDA617047002905D0A9
:10513000254A926A0243244B9A6204E0224A926A08
:105140008243214B9A627047002905D01E4AD268DB
:1051500002431D4BDA6004E01B4AD26882431A4BBB
:10516000DA607047002905D0174A12690243164BCE
:105170001A6104E0144A12698243134B1A617047A2
:10518000002905D0104A527A02430F4B5A7204E0AC
:105190000D4A527A82430C4B5A7270470A48406A51
:1051A000012109060843084948627047014600206A
:1051B000054A92680A40002A01D0012000E0002040
:1051C00070470149887270470010024000127A004F
:1051D000006CDC0246000020809FD5001280000099
:1051E00010B50446F748844208D10121C014FFF7E6
:1051F000ABFF0021E014FFF7A7FF62E0012080076A
:10520000844208D101210846FFF7ACFF00210120AC
:10521000FFF7A8FF55E0EC48844208D101210220A5
:10522000FFF7A0FF00210220FFF79CFF49E0E748BD
:10523000844208D101211020FFF794FF00211020A3
:10524000FFF790FF3DE0E248844208D10121202091
:10525000FFF788FF00212020FFF784FF31E0DD48C1
:10526000844208D101218015FFF77CFF0021A015A1
:10527000FFF778FF25E0D848844209D101210804CE
:10528000FFF762FF002101200004FFF75DFF18E037
:10529000D248844209D101214804FFF755FF00217B
:1052A00001204004FFF750FF0BE0CD48844208D1B5
:1052B00001218804FFF748FF002101208004FFF747
:1052C00043FF10BD00220288BE4B984206D0012346
:1052D0009B07984202D0BC4B984203D1C14B1A4065
:1052E0004B881A43B94B984203D0BF4B1A400B89E5
:1052F0001A4302804B68C3620B880385B14B984206
:1053000008D0B54B984205D0B44B984202D0B44B6C
:10531000984201D18B7A0386012383827047002152
:10532000C943416000210180018141808172704741
:105330000185828270470A4600210188A94B1940E5
:105340000B46134319460180704741627047C162A2
:1053500070470146486A70470146088D704700292A
:1053600004D0028802231A43028004E002889D4B85
:105370006E331A4002807047002904D0028804234B
:105380001A43028004E00288964B6C331A40028074
:105390007047002904D0028880231A43028004E069
:1053A0000288904B103B1A400280704702888D4B58
:1053B00068331A40028002880A43028070470288DC
:1053C000894B1A40028002880A43028070470029F4
:1053D00004D0028801231A43028004E00288814B32
:1053E0006F331A40028070470A884B881A438B88B3
:1053F0001A43CB881A430B891A434B891A438B896A
:105400001A4344231A527047002101804180818051
:10541000C1800181418181817047002907D04422E8
:10542000125A0123DB031A4344231A5205E0442293
:10543000125A53045B0C44221352704770B5002477
:1054400000220023058C674E6F3635400584028CA0
:105450008388048B634D2C40B51E2C400D882C4353
:10546000751E2A408D892A434D882A43554DA842EE
:1054700008D0594DA84205D0584DA84202D0584DE9
:10548000A84212D1574D68352A40CD892A43554D3F
:105490006C352A408D882A43524D903D2B40534D08
:1054A0002B400D8A2B434D8A2B43838004838D68C8
:1054B0004563028470BD70B5002400220023058C72
:1054C000484E603635400584028C8388048B484DF5
:1054D0002C40454D2C400D782D062D0C2C43414D74
:1054E00050352A408D892D052D0C2A434D882D05D8
:1054F0002D0C2A43334DA84202D0374DA8421CD16F
:105500003C4D2B400D8AAD042D0C2B432D4DA84254
:1055100013D1344D103D2A40CD892D052D0C2A4341
:10552000304D30352A408D882D052D0C2A43324DC3
:105530002B404D8AAD042D0C2B43838004838D6852
:105540008563028470BD70B5002400220023058CA1
:10555000244E903E35400584028C8388848B214DF7
:105560002C40204D6D352C400D882C431F4D2A407A
:105570000D7B2D062D0C2A438D782D062D0C2A43EC
:10558000104DA84217D11C4D2A408D7B2D062D0CA5
:105590002A43184D2A400D792D062D0C2A43174D0C
:1055A0002B40174D2B400D8A2D052D0C2B434D8A7A
:1055B0002D052D0C2B43838084838D68C563028465
:1055C00070BD0000002C01400004004000100040AD
:1055D0000014004000200040004001400044014011
:1055E000004801408FFF0000FFFC0000FFFD0000AD
:1055F000FF8F0000FFFB0000FFF70000FFEF00003F
:10560000FFDF000070B5002200230024058CF94E56
:1056100035400584038C8488828BF74D2A40F74DF2
:105620002A400D782D062D0C2A43F54D2B400D7B7D
:105630002D072D0C2B438D782D072D0C2B43F14D71
:10564000A84205D1F04D2C400D8AAD052D0C2C4300
:10565000848082838D680564038470BD002101808D
:105660004180818081608181C18101824182704756
:1056700070B50346002000241846183001258D40DF
:10568000ACB21D8CA5431D84002901D0082909D185
:105690004D10281805687026B54305600568154348
:1056A00005600DE00D1F2D046D0C281805680726F8
:1056B0003603B543056005681606360C35430560AC
:1056C00070BD4163704781637047C1637047016477
:1056D00070470A460021018BCC4B19400B461343FF
:1056E0001946018370470A460021018BC24B1940BD
:1056F00013061B0C1943018370470A460021818B56
:10570000C24B19400B4613431946818370470A4622
:105710000021818BB84B194013061B0C1943818360
:105720007047002904D0828801231A43828004E054
:105730008288B64B6F331A40828070470A46002138
:10574000018BB24B683319400B4613431946018352
:1057500070470A460021018BAD4B194013061B0C04
:105760001943018370470A460021818BA74B683398
:1057700019400B4613431946818370470A4600219E
:10578000818BA34B194013061B0C1943818370476F
:105790000A460021018B9D4B6C3319400B46134385
:1057A0001946018370470A460021018B994B194025
:1057B00013061B0C1943018370470A460021818B95
:1057C000924B6C3319400B46134319468183704743
:1057D0000A460021818B8F4B194013061B0C19437D
:1057E000818370470A460021018B884B103B19408A
:1057F0000B4613431946018370470A460021018B6B
:105800004904490C13061B0C1943018370470A46CF
:105810000021818B7D4B103B19400B4613431946E9
:10582000818370470A460021818B4904490C130685
:105830001B0C1943818370470A460021018C734B6E
:105840006E3319400B4613431946018470470A46CC
:105850000021018C6D4B683319400B4613431946E8
:10586000018470470A460021018C684B503319406F
:1058700013051B0C1943018470470A460021018C53
:10588000624B103B194013051B0C194301847047F0
:105890000A460021018C604B194013061B0C19436A
:1058A000018470470A460021018C594B19401306A8
:1058B0001B0C1943018470470A460021018C504B90
:1058C000194013071B0C19430184704702894F4B81
:1058D00068331A40028102890A430281704730B559
:1058E000002301248C40A3B2048C9C430484048CC8
:1058F00015468D40ADB22C43048430BD30B5002335
:1059000004248C40A3B2048C9C430484048C15466C
:105910008D40ADB22C43048430BD002904D0828870
:1059200004231A43828004E08288384B6C331A4087
:1059300082807047828B394B1A408283828B0B06A0
:105940001B0C1A4382837047F8B50C4600210025D2
:1059500000260096068C274F3E400684818B058CDE
:105960002607360C00962E4E31401606360C314373
:105970001E07360C31432B4E354001273F03009E56
:105980003E43354381830584F8BD828B1F4B6433CE
:105990001A408283828B0A4382837047F8B50C4693
:1059A0000021002500260096068C184F903F3E40AF
:1059B0000684818B058C2606360C0096134E833E9A
:1059C00031401E05360C16433143174E3540FF2734
:1059D0000137009E3E43354381830584F8BD028B29
:1059E0000E4B1A400283028B0B061B0C1A430283D8
:1059F00070470000FFEF0000FF8F0000FFFC000079
:105A0000FFDF0000002C0140FFBF00008FFF0000FF
:105A1000FFF70000FFFB0000FFFD0000FFF30000A8
:105A2000FF0C0000FF5F0000FFF50000F8B50C461A
:105A30000021002500260096068CE64F3E40068495
:105A4000018B058C2605360C0096E34E31401E076F
:105A5000360C31431606360C3143DE4E903E35404F
:105A60001027009E3E43354301830584F8BD028B19
:105A7000D84B1B1D1A400283028B0A4302837047D6
:105A8000F0B50C4600210025068CD24F0F373E4062
:105A90000684018B058CCF4EE33E31401E05360C4B
:105AA00016433143CB4EB61D3540012626433543C0
:105AB00001830584F0BD70B505460C46208800289A
:105AC0000AD12389A28861882846FFF7D9FFE18897
:105AD0002846FFF7CCFF25E0208804280AD1238937
