:020000040800F2
:10000000D008002081720008D13F0008D33F0008CB
:1000100000000000000000000000000000000000E0
:10002000000000000000000000000000D73F0008B2
:100030000000000000000000D93F0008DB3F00087E
:100040009372000800000000937200089372000889
:10005000937200089372000893720008937200086C
:100060000000000093720008937200089372000869
:100070009372000893720008937200080000000059
:100080007102000800000000000000005501000897
:10009000937200089372000893720008937200082C
:1000A00093720008937200089372000833030008EB
:1000B000937200080348854607F02CFA0048004771
:1000C0006B3E0008D00800201CB50121880404F014
:1000D0005BFF0320009001216846017141710021FE
:1000E00081716946FC4804F059FB0121FA4804F08B
:1000F000D4FB0221F84804F0D0FB01218902F64824
:1001000004F0C9FB1CBD1FB5F44804F0C1FF012178
:10011000080204F055FFF2480290172168468180DA
:10012000012181810021C18001A9EC4805F022F85C
:1001300001221146E94805F0A1FC1321684601702F
:1001400001214170817004F0E1FB0121E34805F0D9
:1001500096F81FBD10B50121E04805F0BBFC012059
:10016000E049C870E0484079401CDF494871DD48EB
:100170004079401CDB494871084640791E281BDD48
:1001800000204871D9480078401CD84908700846BA
:100190000078042801DB00200870D5480068401C66
:1001A000D3490860D3480078012805D10220D149FD
:1001B00008700020CE490860CF480088401CCE4916
:1001C0000880084600880F2807DDCC48C088401CFE
:1001D000CA49C8800020C8490880C2480079401C2C
:1001E000C0490871C6480078401CC54908700846D7
:1001F0000078502806DD00200870C2480078401CB6
:10020000C0490870B748007964280CDD0020B54962
:100210000871BD480078401CBB490870BB48007895
:10022000401CBA49087010BD1FB5B94804F030FF32
:100230000121022004F0C4FEB6480290172168464E
:100240008180012181810021C18001A9B04804F091
:1002500091FF01221146AE4805F010FC10216846BE
:100260000170022141700121817004F04FFB1FBD1C
:1002700010B50121A64805F02DFC0021A44804F08A
:10028000FEFF10BD00B589B00121880404F07CFE9A
:100290000121880304F086FE0121480404F074FE65
:1002A00001220921C80604F002FB01220A210920CB
:1002B000C00604F0FCFA40200790032108A8417012
:1002C000022101700021817007A9834804F066FAB9
:1002D00080200790032108A841700221017007A91E
:1002E0007D4804F05BFA4B20C00101900020029091
:1002F0000390049006900C20059001A9864805F013
:10030000FDFC0121844805F088FD1B216846017031
:10031000002141700121817004F0F8FA01227F4927
:100320007D4805F010FF40217B4805F04AFF09B0E9
:1003300000BD10B54021784805F043FF7749764865
:1003400005F041FF002810D0734805F01BFE7449EA
:10035000087008460178704805F010FE00BF802143
:100360006D4805F024FF0028F9D010BD10B56D4888
:10037000C06A624988606B48006BC86088685849E9
:10038000491C07F057F85D49087088685449491CB2
:1003900007F050F80C466421204607F04BF8574907
:1003A000487088684E49491C07F044F80C4664219F
:1003B000204607F03FF8514881700078C0434F490C
:1003C000C87008464078C043C1B24C48017180787B
:1003D000C043C1B24948417110BD014608780628A2
:1003E00002D14879002801D00020704748788A78E7
:1003F0008018CA7880180A7980184A798018C0B2A3
:100400008A79904201D00020EFE74879002801D096
:100410000020EAE78878394A127890420BD1C878F0
:10042000364A5278904206D10879344A92789042FE
:1004300001D10120D9E78878222807D1C87833284C
:1004400004D10879442801D10120CEE70020CCE76F
:1004500000B585B00621684601702348C17868461A
:100460004170264801786846817024484178684682
:10047000C170224881786846017114214171417828
:10048000807809186846C078091868460079091804
:10049000684640790818C1B2684681710621C17169
:1004A0000021017241728172C172017341730E4960
:1004B000087806F0AFFE0C48C078401C0A49C870A6
:1004C0000D21684606F0B0FE0748007800282BD1C1
:1004D0007F200549087032E00004004800200040F9
:1004E0000F27000019000020260000201F00002018
:1004F000200000202400002034000020BC00002048
:1005000036000020300000202E00002032000020A5
:10051000000400404FC30000003801400501050001
:100520004500002080F7FF1FFA4800787F2803D19C
:10053000FF20F849087002E00020F6490870012009
:1005400005B000BD00B585B0062168460170F148D0
:10055000C17868464170F048C17868468170EE48BD
:1005600001796846C170EC484179684601711421EF
:1005700041714178807809186846C0780918684642
:1005800000790918684640790818C1B26846817137
:100590000621C1710021017241728172C172017321
:1005A0004173DC49087806F035FEDA48C078401C13
:1005B000D849C8700D21684606F036FED548007847
:1005C000002803D17F20D34908700AE0D148007881
:1005D0007F2803D1FF20CF49087002E00020CD49D9
:1005E0000870012005B000BD07E0CC48C0780028A5
:1005F00003D00020C949C8707047F6E730B585B010
:1006000004460D46062168460170C248C178684616
:100610004170C148017868468170BF48417868469A
:10062000C170BD4881786846017144714178807815
:1006300009186846C078091868460079091868469C
:1006400040790818C1B2684681710621C171002144
:10065000017241728572C17201734173BF20AD494D
:100660000870087806F0D6FDAA48C078401CA94951
:10067000C8700D21684606F0D7FD002005B030BDDA
:1006800030B585B004460D46062168460170A14884
:10069000C17868464170A048C178684681709E481C
:1006A00001796846C1709C4841796846017144717E
:1006B0004178807809186846C0780918684600793A
:1006C0000918684640790818C1B268468171062148
:1006D000C1710021017241728572C172017341734F
:1006E0008C480078002803D17F208A4908700AE0EE
:1006F000884800787F2803D1FF208649087002E0EF
:100700000020844908708349087806F083FD8148F9
:10071000C078401C7F49C8700D21684606F084FDF2
:10072000002005B030BDF8B507460C4615462846F2
:10073000E90F0918C9030D0C03F0B1FC352003F0D3
:10074000D7FF384603F0EDFC0AE02678641C2178D8
:10075000641C080206433146384603F05CFDBF1CAA
:100760002846691E8DB20028EFD103F0A4FCF8BD25
:1007700010B503E003780B70401C491C1346541E4F
:10078000A2B2002BF6D110BD10B56348C0886449F1
:1007900088420BDB00206049C88001218902614842
:1007A00004F07BF87D20C00003F03FFC10BD70B565
:1007B000012189025B4804F06EF80121C9035A48FF
:1007C00004F04FF801280DD001218903564804F0A8
:1007D00048F8002806D001214903534804F041F8A5
:1007E000002802D100204C49C88005F0E0FEB02866
:1007F00001D100F028FF10DC03281FD008DC0028FE
:1008000021D001287ED0022801D001F047F9C8E3A9
:10081000A02878D0AB28F8D11AE0CD380928F4D236
:1008200043007B449B885B009F449800380938094B
:10083000380900019001200238092B0302213948B0
:1008400004F02BF8FCE30221364804F026F8F9E71F
:100850000020364908700221324804F01CF873E089
:1008600000202D49C88032A2012105F020FE354824
:100870000078032813D10DE000219920FFF7BEFE78
:100880000A2003F0D2FB00219920FFF7F9FE0A208D
:1008900003F0CBFB2048C0881E28EDDD35E0294859
:1008A0000078022809D103E001219920FFF7A6FE74
:1008B0001948C0881E28F7DD27E022480078012863
:1008C00009D103E002219920FFF7DAFE1248C0881F
:1008D0001E28F7DD19E01B480078002815D10DE02F
:1008E00010219920FFF78AFE0A2003F09EFB1021B9
:1008F0009920FFF7C5FE0A2003F097FB0648C08841
:100900001E2801E0FEE3FEE3EADD00200249C88084
:100910001BE0000026000020BC0000201900002081
:100920007017000000040048000800482400002060
:100930005374617475733A204C65644F4E2E2E2E9D
:1009400000000000310000208AE700BFF648007870
:10095000002802D10120F449087073E70020F24911
:1009600008700221F14803F096FF55E00020F0499D
:10097000C880F0A2012105F09AFDF3480078032811
:1009800013D10DE000219820FFF738FE0A2003F074
:100990004CFB00219820FFF773FE0A2003F045FB73
:1009A000E348C0881E28EDDD32E0E74800780228E1
:1009B00009D103E001219820FFF720FEDC48C08820
:1009C0001E28F7DD24E0E0480078012809D103E083
:1009D00002219820FFF754FED548C0881E28F7DD75
:1009E00016E0D9480078002812D10DE01021982097
:1009F000FFF704FE0A2003F018FB10219820FFF7F0
:100A00003FFE0A2003F011FBC948C0881E28EDDD17
:100A10000020C749C88000E0A8E700BFC2480078AE
:100A2000002802D10120C04908700BE70020BE4910
:100A300008700221BD4803F02EFF64E0C248007830
:100A400003280ED10021D120FFF7D8FD0A2003F0A2
:100A5000ECFA0021D120FFF713FE0A2003F0E5FA9B
:100A600023E0B9480078022804D10121D120FFF702
:100A7000C5FD1AE0B4480078012804D10221D12034
:100A8000FFF7FEFD11E0B048007800280DD11021DD
:100A9000D120FFF7B3FD0A2003F0C7FA1021D120BF
:100AA000FFF7EEFD0A2003F0C0FA9F480078002807
:100AB00002D101209C490870A4480068002806D093
:100AC00001280AD002280ED0032818D111E0A0A2D4
:100AD0000121002005F0EBFC11E0A2A20121002081
:100AE00005F0E5FC0BE0A4A20121002005F0DFFCED
:100AF00005E0A6A20121002005F0D9FC00BF00BF3F
:100B000000208B49C8800121C903A54803F0A9FE34
:100B100001281AD10103854803F0A3FE002814D14F
:100B20000121C902814803F09CFE00280DD0042158
:100B30007E4803F096FE002807D0012189037B48F8
:100B400003F08FFE002800D078E77BE6002076498E
:100B500008700221754803F09EFE64E07A48007830
:100B600003280ED10021D220FFF748FD0A2003F010
:100B70005CFA0021D220FFF783FD0A2003F055FA2A
:100B800023E071480078022804D10121D220FFF728
:100B900035FD1AE06C480078012804D10221D220EA
:100BA000FFF76EFD11E06848007800280DD1102194
:100BB000D220FFF723FD0A2003F037FA1021D220BC
:100BC000FFF75EFD0A2003F030FA5748007800284E
:100BD00002D10120544908705C480068002806D002
:100BE00001280AD002280ED0032818D111E06DA2E6
:100BF0000121002005F05BFC11E06FA20121002023
:100C000005F055FC0BE071A20121002005F04FFC1E
:100C100005E073A20121002005F049FC00BF00BFE0
:100C200000204349C8800121C9035D4803F019FE33
:100C300001281AD101033D4803F013FE002814D007
:100C40000121C902394803F00CFE00280DD104210E
:100C5000364803F006FE002807D0012189033348F7
:100C600003F0FFFD002800D078E7EBE500202E49D7
:100C7000087002212D4803F00EFEDFE032480078B4
:100C800003280ED10021D320FFF7B8FC0A2003F07F
:100C9000CCF90021D320FFF7F3FC0A2003F0C5F9BB
:100CA00023E029480078022804D10121D320FFF74E
:100CB000A5FC1AE024480078012804D10221D320A1
:100CC000FFF7DEFC11E02048007800280DD110214C
:100CD000D320FFF793FC0A2003F0A7F91021D320BB
:100CE000FFF7CEFC0A2003F0A0F90F480078002897
:100CF00002D101200C49087014480068002806D071
:100D000001280AD002280ED0032805D18CE039A290
:100D10000121002005F0CBFB8CE03BA2012100204B
:100D200005F0C5FB86E079E02400002000040048BF
:100D3000BC0000205374617475733A204C65644F95
:100D400046462E2E2E0000003100002020000020FC
:100D5000205374617475733A204C6564572E2020BB
:100D600000000000205374617475733A204C656470
:100D7000572E2E2000000000205374617475733AC2
:100D8000204C6564572E2E2E000000002053746105
:100D90007475733A204C656457204F4E0000000074
:100DA00000080048205374617475733A204C6564E0
:100DB000472E202000000000205374617475733AA0
:100DC000204C6564472E2E200000000020537461E3
:100DD0007475733A204C6564472E2E2E0000000077
:100DE000205374617475733A204C656447204F4EEC
:100DF00000000000205374617475733A204C6564E0
:100E0000422E202000000000205374617475733A54
:100E1000204C6564422E2E2000000000F4A2012127
:100E2000002005F044FB05E0F6A20121002005F0BA
:100E30003EFB00BF00BF0020F749C8800121C90365
:100E4000F64803F00EFD01281AD10103F44803F01F
:100E500008FD002814D00121C902F14803F001FD6A
:100E600000280DD00421EE4803F0FBFC002807D138
:100E700001218903EA4803F0F4FC002800D0FDE6D4
:100E8000E0E40020E74908700221E54803F003FD93
:100E900064E0E548007803280ED10021D520FFF753
:100EA000ADFB0A2003F0C1F80021D520FFF7E8FBD5
:100EB0000A2003F0BAF823E0DB480078022804D1C6
:100EC0000121D520FFF79AFB1AE0D74800780128C6
:100ED00004D10221D520FFF7D3FB11E0D2480078DE
:100EE00000280DD11021D520FFF788FB0A2003F040
:100EF0009CF81021D520FFF7C3FB0A2003F095F8DA
:100F0000C8480078002802D10120C6490870C748A7
:100F10000068002806D001280AD002280ED0032835
:100F200018D111E0C2A20121002005F0C0FA11E0A1
:100F3000C4A20121002005F0BAFA0BE0C6A20121EB
:100F4000002005F0B4FA05E0C8A20121002005F058
:100F5000AEFA00BF00BF0020AF49C8800121C9031D
:100F6000AE4803F07EFC01281AD10103AC4803F01F
:100F700078FC002814D00121C902A94803F071FCB3
:100F800000280DD00421A64803F06BFC002807D0F0
:100F900001218903A24803F064FC002800D178E70E
:100FA00050E402219E4803F076FC9FE000209A491D
:100FB000C8809D480078032804D100210120FFF754
:100FC0001DFB90E098480078022827D101210846AF
:100FD000FFF714FBAA480078002806D001280AD0A1
:100FE00002280ED0032818D111E0A6A2012100206A
:100FF00005F05DFA11E0A8A20121002005F057FAE2
:101000000BE0A0A20121002005F051FA05E0A2A208
:101010000121002005F04BFA00BF64E0824800780F
:10102000012827D10221FFF72BFB954800780028E3
:1010300007D001280BD002280FD0032819D112E0C5
:1010400000E39AA20121002005F031FA11E092A2FA
:101050000121002005F02BFA0BE094A201210020D1
:1010600005F025FA05E08CA20121002005F01FFA09
:1010700000BF38E06C480078002834D110210120EE
:10108000FFF7BCFA0A2002F0D0FF10210120FFF781
:10109000F7FA0A2002F0C9FF012089490870784850
:1010A0000078002806D001280AD002280ED0032894
:1010B00018D111E083A20121002005F0F8F911E018
:1010C00075A20121002005F0F2F90BE07DA20121BB
:1010D000002005F0ECF905E06FA20121002005F0E9
:1010E000E6F900BF00BF00204B49C8800121C903B9
:1010F0004A4803F0B6FB012810D18103474803F0AA
:10110000B0FB01E020E07BE1002807D10121490389
:10111000424803F0A6FB012800D147E76EA2012157
:10112000002005F0C4F9002408E0FF218020FFF72B
:1011300065FA142002F079FF601CC4B2642CF4DB61
:1011400000203549C88008E40221354803F0A3FB9C
:101150002BE100203049C88033480078032804D1AF
:1011600000210220FFF74AFA1CE12F4800780228EC
:1011700026D10121FFF742FA41480078002806D025
:1011800001280AD002280ED0032818D111E057A256
:101190000121002005F08BF911E03FA20121002080
:1011A00005F085F90BE051A20121002005F07FF93F
:1011B00005E039A20121002005F079F900BFF1E036
:1011C0001948007801280ED102210846FFF758FA85
:1011D0002B480078002807D0012806D0022805D027
:1011E000032804D19EE0A4E08AE08FE094E09FE031
:1011F000205374617475733A204C6564422E2E2E10
:1012000000000000205374617475733A204C6564CB
:1012100042204F4E00000000BC00002000080048A3
:10122000000400482400002031000020200000209D
:10123000205374617475733A204C65642E2020200D
:1012400000000000205374617475733A204C65648B
:101250002E2E202000000000205374617475733A14
:10126000204C65642E2E2E20000000002053746157
:101270007475733A204C6564204F464600000000A8
:101280001F00002020204F646420204F70656E698D
:101290006E67202000000000202020202020202039
:1012A0002020202020202020000000002020457643
:1012B000656E20204F70656E696E6720000000002B
:1012C0000000002020204561737920204F70656E5A
:1012D000696E672000000000205374617475733AD2
:1012E000205374616E6462790000000020204F6416
:1012F000642020436C6F73696E672020000000003B
:10130000F8A20121002005F0D2F811E0FA4A0121EB
:10131000002005F0CCF80BE0F2A20121002005F03E
:10132000C6F805E0F44A0121002005F0C0F800BF2E
:1013300038E0F2480078002834D110210220FFF76D
:101340005DF90A2002F071FE10210220FFF798F9E2
:101350000A2002F06AFE0120E9490870E948007895
:10136000002806D001280AD002280ED0032818D160
:1013700011E0E5A20121002005F099F811E0DE4A14
:101380000121002005F093F80BE0DFA201210020ED
:1013900005F08DF805E0D84A0121002005F087F816
:1013A00000BF00BF0020DD49C8800121C903DC481F
:1013B00003F057FA01280CD18103D94803F051FA00
:1013C000012806D14103D64803F04BFA002800D18A
:1013D000BFE6C94A40320121002005F068F8002428
:1013E00008E0FF218020FFF709F9142002F01DFE1C
:1013F000601CC4B2642CF4DB0020C849C88055E3EB
:101400000221C84803F047FA0020C7490870EEE0FF
:1014100000250020C5490870C3480078012806D07F
:1014200002280AD003280ED0042819D111E0C0A246
:101430000121002005F03BF812E0C2A201210020AA
:1014400005F035F80CE0C4A20121002005F02FF8CA
:1014500006E0C6A20121002005F029F8012500BF01
:1014600000BFBFE007E00020AF490870C4A201211F
:10147000084605F01CF80121C903A94803F0F1F959
:1014800001280CD18103A64803F0EBF9002806D10E
:1014900001214903A24803F0E4F90028E3D000BF8A
:1014A0000121C9039E4803F0DCF90128F8D001218D
:1014B00089039B4803F0D5F90028F1D001214903A5
:1014C000974803F0CEF90028EAD000209349C8805D
:1014D000B0480078002823D18A480078002806D038
:1014E00001280AD002280ED0032818D111E0AAA2A0
:1014F0000121002004F0DBFF11E0ACA2012100205B
:1015000004F0D5FF0BE0AEA20121002004F0CFFFD4
:1015100005E0B0A20121002004F0C9FF00BF27E0D0
:101520009C480078012823D176480078002806D00E
:1015300001280AD002280ED0032818D111E0AAA24F
:101540000121002004F0B3FF11E0ACA20121002032
:1015500004F0ADFF0BE0AEA20121002004F0A7FFD4
:1015600005E0B0A20121002004F0A1FF00BF00BFF0
:1015700088480078002802D1FEF76AFF01E0FEF7F4
:10158000E1FF0121C903664803F06BF9012811D07E
:1015900001218903624803F064F900280AD001217F
:1015A00049035F4803F05DF9002803D05F480078E5
:1015B000C82817DB77480078002805D1012D03D112
:1015C00001207449087008E072480078012804D1AD
:1015D000012D02D100206F490870002500204F49DD
:1015E000C88002E0002D00D03CE700BF00BF012111
:1015F000C9034B4803F035F901280DD18103484850
:1016000003F02FF9002807D101214903444803F0D2
:1016100028F9002800D1FBE6374A4032012100209A
:1016200004F045FF002408E0FF218020FEF7E6FFDC
:101630000A2002F0FAFC601CC4B21E2CF4DB00206D
:101640003649C88032E20221364803F024F90020EE
:1016500079490870FBE1002500203049C8807648B0
:101660000078012806D002280AD003280ED00428CA
:1016700014D111E071A20121002004F018FF0DE047
:1016800073A20121002004F012FF07E075A20121DE
:10169000002004F00CFF01E0012500BF00BFCEE1F7
:1016A00000201E49C88015480078032805D172A281
:1016B0000121002004F0FBFE04E11048007802281C
:1016C00005D172A20121002004F0F1FEFAE00B48DE
:1016D0000078012805D172A20121002004F0E7FE64
:1016E000F0E0E7E020204576656E2020436C6F73C4
:1016F000696E672000000000981200083100002089
:10170000010000201F000020202045617379202067
:10171000436C6F73696E672000000000BC000020FE
:1017200000080048000400482E000020320000207D
:1017300020456E746572202050616972203320202C
:101740000000000020456E746572202050616972AF
:10175000203220200000000020456E746572202099
:1017600050616972203120200000000020456E7415
:101770006572202050616972203020200000000036
:10178000456E746572202050616972204F4B202095
:10179000000000002F000020204F64642050616989
:1017A00072696E672E20202000000000204F6464C4
:1017B0002050616972696E672E2E202000000000A3
:1017C000204F64642050616972696E672E2E2E204E
:1017D00000000000204F64642050616972696E67E8
:1017E0002E2E2E2E000000004576656E2050616979
:1017F00072696E672E202020000000004576656E1D
:101800002050616972696E672E2E20200000000052
:101810004576656E2050616972696E672E2E2E20A6
:10182000000000004576656E2050616972696E6740
:101830002E2E2E2E0000000030000020456E746514
:101840007220436C724D6F646520332000000000ED
:10185000456E74657220436C724D6F646520322052
:1018600000000000456E74657220436C724D6F6419
:101870006520312000000000204F646420436C6527
:10188000616E204D6F646520000000002045766584
:101890006E20436C65616E204D6F64650000000032
:1018A000204561737920436C65616E204D6F6465DE
:1018B00000000000FE480078002803D1FDA20121AD
:1018C00004F0F5FD642002F0B0FBF948007803282D
:1018D00014D100240FE0EE21B020FEF78FFE0A2085
:1018E00002F0A3FBEE21B020FEF7CAFE0A2002F0B0
:1018F0009CFB601CC4B2322CEDDB56E0EC48007857
:10190000022814D100240FE0EE21B020FEF776FE6D
:101910000A2002F08AFBEE21B020FEF7B1FE0A2079
:1019200002F083FB601CC4B2322CEDDB3DE0E048EA
:101930000078012814D100240FE0EE21C020FEF72A
:101940005DFE0A2002F071FBEE21C020FEF798FE3A
:101950000A2002F06AFB601CC4B2322CEDDB24E0EA
:10196000D3480078002820D1D7480078002803D138
:10197000D6480078002818D00020D3490870D349F1
:10198000087000240FE00021D020FEF737FE0A2067
:1019900002F04BFB0021D020FEF772FE0A2002F07D
:1019A00044FB601CC4B2322CEDDBC94A012100208B
:1019B00004F07DFD0020C749C88000BF01218903D4
:1019C000C54802F04EFF0028F8D001214903C24863
:1019D00002F047FF0028F1D00121C903BE4802F000
:1019E00040FF0128EAD00020BA49C880B0480078FA
:1019F000032805D1012D03D10220AD4908701CE058
:101A0000AB480078022805D1012D03D10120A84957
:101A1000087012E0A6480078012805D1012D03D1F5
:101A20000020A349087008E0A1480078002804D1EC
:101A3000012D02D103209E490870002502E0002DEF
:101A400000D02DE600BF0020A249C88000BF0121C0
:101A5000C903A14802F005FF00280ED10121890326
:101A60009D4802F0FEFE002807D1012149039A4853
:101A700002F0F7FE002800D1EDE5002408E0FF2188
:101A80008020FEF7BBFD0A2002F0CFFA601CC4B232
:101A90001E2CF4DB00208F49C88007E002218F480C
:101AA00002F0FBFE00208E49087000BF00BF70BD31
:101AB00010B58C480088032815D10020894908807A
:101AC00004F0EDFC88A20021012004F0F0FC0220CB
:101AD00002F0ABFA88A20121084604F0E8FC7D2060
:101AE000000102F0A2FA10BD10B58CB0002400BFB6
:101AF000012C09D104F0D3FC0A2002F096FA82A24C
:101B00000021012004F0D3FC012400208249087048
:101B1000012082494871087048708870FEE3FEE336
:101B20007E480078082801D301F0FEFA43007B4488
:101B30009B885B009F44F80A070072003901A401EA
:101B40000F027A02EE0276480078002806D00128BB
:101B50000AD002280ED0032818D111E071A2012169
:101B6000084604F0A4FC11E072A20121084604F02A
:101B70009EFC0BE06BA20121084604F098FC05E0F6
:101B80006CA20121084604F092FC00BF00BF0121B5
:101B90000903524802F065FE012811D1C1024F48E5
:101BA00002F05FFE01280BD104214C4802F059FEDF
:101BB000012805D18103494802F053FE01282CD0A9
:101BC00005F023F809A9544A1278885400BF01216E
:101BD0000903424802F045FE0128F8D1C1023F48FE
:101BE00002F03FFE0128F2D104213C4802F039FE08
:101BF0000128ECD18103394802F033FE0128E6D1F7
:101C000045480078401C4449087044480078401C0E
:101C10004249087000202F49C88085E74048007875
:101C2000002806D001280AD002280ED0032818D197
:101C300011E044A20121084604F039FC11E045A25C
:101C40000121084604F033FC0BE03EA201210846C6
:101C500004F02DFC05E03FA20121084604F027FC1A
:101C600000BF00BF012109031C4802F0FAFD012852
:101C700011D1C102194802F0F4FD01280BD1042151
:101C8000164802F0EEFD012805D18103134802F049
:101C9000E8FD012866D004F0B8FF09A91E4A1278B1
:101CA000885400BF012109030C4802F0DAFD5AE014
:101CB000310000205374616E6420436C65616E20B6
:101CC0004D6F64650000000000000020010000204E
:101CD000D8120008BC00002000080048000400489A
:101CE00032000020380000204572726F72203320CD
:101CF00074696D6573210000506C656173652061C6
:101D00006761696E21000000496E6974205061733B
:101D100073776F726400000037000020130000200A
:101D20001F000020496E7075743A2020202020206A
:101D300020000000496E7075743A5F20202020203A
:101D400020000000496E7075743A2A20202020205F
:101D500020000000496E7075743A2A5F2020202010
:101D60002000000020E001289CD1C102FE4802F0C2
:101D700078FD012896D10421FB4802F072FD01286C
:101D800090D18103F84802F06CFD01288AD1F74810
:101D90000078401CF5490870F5480078401CF4496B
:101DA00008700020F349C880BEE6F3480078002898
:101DB00006D001280AD002280ED0032818D111E03D
:101DC000EEA20121084604F072FB11E0EFA201210E
:101DD000084604F06CFB0BE0E8A20121084604F081
:101DE00066FB05E0E9A20121084604F060FB00BFA4
:101DF00000BF01210903DC4802F033FD012811D1A5
:101E0000C102D94802F02DFD01280BD10421D6488A
:101E100002F027FD012805D18103D34802F021FDFE
:101E200001282CD004F0F1FE09A9D04A1278885478
:101E300000BF01210903CC4802F013FD0128F8D1AD
:101E4000C102C94802F00DFD0128F2D10421C648A3
:101E500002F007FD0128ECD18103C34802F001FD27
:101E60000128E6D1C1480078401CC0490870C0482C
:101E70000078401CBE4908700020BE49C88053E667
:101E8000BD480078002806D001280AD002280ED0CC
:101E9000032818D111E0C1A20121084604F007FB74
:101EA00011E0C2A20121084604F001FB0BE0BBA235
:101EB0000121084604F0FBFA05E0BCA20121084616
:101EC00004F0F5FA00BF00BF01210903A64802F0A3
:101ED000C8FC012811D1C102A34802F0C2FC0128AC
:101EE0000BD10421A04802F0BCFC012805D18103DC
:101EF0009D4802F0B6FC01282CD004F086FE09A90A
:101F00009A4A1278885400BF01210903964802F0CA
:101F1000A8FC0128F8D1C102934802F0A2FC0128D4
:101F2000F2D10421904802F09CFC0128ECD18103FD
:101F30008D4802F096FC0128E6D18C480078401CC0
:101F40008A4908708A480078401C89490870002036
:101F50008849C880E8E588480078002806D001282C
:101F60000AD002280ED0032818D111E093A2012133
:101F7000084604F09CFA11E094A20121084604F0FE
:101F800096FA0BE08DA20121084604F090FA05E0D4
:101F90008EA20121084604F08AFA00BF00BF012189
:101FA0000903714802F05DFC012811D1C1026E489D
:101FB00002F057FC01280BD104216B4802F051FCC0
:101FC000012805D18103684802F04BFC01282CD080
:101FD00004F01BFE09A9654A1278885400BF01214C
:101FE0000903614802F03DFC0128F8D1C1025E48B6
:101FF00002F037FC0128F2D104215B4802F031FCE9
:102000000128ECD18103584802F02BFC0128E6D1CD
:1020100056480078401C5549087055480078401CC7
:102020005349087000205349C8807DE55248007824
:10203000002806D001280AD002280ED0032818D183
:1020400011E066A20121084604F031FA11E067A20E
:102050000121084604F02BFA0BE060A2012108469A
:1020600004F025FA05E061A20121084604F01FFAF8
:1020700000BF00BF012109033B4802F0F2FB012829
:1020800011D1C102384802F0ECFB01280BD1042128
:10209000354802F0E6FB012805D18103324802F001
:1020A000E0FB012835D004F0B0FD09A92F4A1278D1
:1020B000885400BF012109032B4802F0D2FB0128FC
:1020C000F8D1C102284802F0CCFB0128F2D104214A
:1020D000254802F0C6FB0128ECD18103224802F01A
:1020E000C0FB0128E6D121480078401C1F49087038
:1020F0001F480078401C1E49087000201D49C880F8
:102100003EA20121084604F0D2F9FF20F53001F08B
:102110008CFF09E50121C9033C4802F0A2FB01281C
:1021200001D001F000F8142001F07FFF0121C90364
:10213000364802F096FB0128F3D100200C490870C4
:102140003348007808A90979884274D1304840782A
:1021500008A9497988426ED12D48807808A98979E3
:10216000884268D12A4855E0000400483700002022
:1021700013000020BC0000201F000020496E707575
:10218000743A2A2A2020202020000000496E707511
:10219000743A2A2A5F20202020000000496E7075C2
:1021A000743A2A2A2A20202020000000496E7075E7
:1021B000743A2A2A2A5F202020000000496E707598
:1021C000743A2A2A2A2A202020000000496E7075BD
:1021D000743A2A2A2A2A5F2020000000496E70756E
:1021E000743A2A2A2A2A2A2020000000496E707593
:1021F000743A2A2A2A2A2A5F20000000496E707544
:10220000743A2A2A2A2A2A2A2000000000080048B4
:1022100092000020C07808A9C97988420BD1FD48F6
:10222000007908A9097A884205D1FA48407908A9B5
:10223000497A884225D0F848007808A90979884267
:1022400001D000F058FFF448407808A94979884245
:10225000F7D1F148807808A989798842F1D1EE4810
:10226000C07808A9C9798842EBD1EB48007908A960
:10227000097A8842E5D1E848407908A9497A884234
:10228000DFD10020E5490870FF20F53001F0CDFED8
:1022900004F005F9022001F0C8FE00BFE0A2002111
:1022A000012004F004F9FDE3E1484078030005F063
:1022B00075F908720573DEF2F1F0EF72DD4800780F
:1022C000002806D001280AD002280ED0032818D1F1
:1022D00011E0D9A20121084604F0E9F811E0DAA2E0
:1022E0000121084604F0E3F80BE0D3A201210846DF
:1022F00004F0DDF805E0D4A20121084604F0D7F887
:1023000000BF00BF01210903D34802F0AAFA012847
:1023100014D1C102D04802F0A4FA01E0CCE3CCE32E
:1023200001280BD10421CC4802F09BFA012805D1E9
:102330008103C94802F095FA01282CD004F065FC0D
:1023400006A9C64A1278885400BF01210903C24871
:1023500002F087FA0128F8D1C102BF4802F081FAE1
:102360000128F2D10421BC4802F07BFA0128ECD10B
:102370008103B94802F075FA0128E6D1B748007820
:10238000401CB6490870AA484078401CA8494870CB
:102390000020B349C8807CE2A6480078002806D017
:1023A00001280AD002280ED0032818D111E0ADA2CE
:1023B0000121084604F07BF811E0AEA20121084695
:1023C00004F075F80BE0A7A20121084604F06FF8AD
:1023D00005E0A8A20121084604F069F800BF00BF8B
:1023E000012109039C4802F03CFA012811D1C102E5
:1023F000994802F036FA01280BD10421964802F0E0
:1024000030FA012805D18103934802F02AFA012805
:102410002CD004F0FAFB06A9904A1278885400BF29
:10242000012109038C4802F01CFA0128F8D1C102ED
:10243000894802F016FA0128F2D10421864802F0F8
:1024400010FA0128ECD18103834802F00AFA01282E
:10245000E6D182480078401C804908707448407872
:10246000401C7349487000207D49C88093E771483B
:102470000078002806D001280ED0022812D00328A8
:102480001CD115E07FA20121084604F010F815E0E8
:1024900000E28BE11FE159E07EA20121084604F031
:1024A00006F80BE077A20121084604F000F805E0E9
:1024B00078A20121084603F0FAFF00BF00BF012106
:1024C0000903654802F0CDF9012811D1C102624823
:1024D00002F0C7F901280BD104215F4802F0C1F9CD
:1024E000012805D181035C4802F0BBF901282CD0FA
:1024F00004F08BFB06A9594A1278885400BF0121C9
:102500000903554802F0ADF90128F8D1C10252483B
:1025100002F0A7F90128F2D104214F4802F0A1F9F5
:102520000128ECD181034C4802F09BF90128E6D147
:102530004A480078401C494908703D484078401C92
:102540003B49487000204649C88024E73948007854
:10255000002806D001280AD002280ED0032818D15E
:1025600011E050A20121084603F0A1FF11E051A2A1
:102570000121084603F09BFF0BE04AA20121084617
:1025800003F095FF05E04BA20121084603F08FFF01
:1025900000BF00BF012109032F4802F062F90128A2
:1025A00011D1C1022C4802F05CF901280BD10421A1
:1025B000294802F056F9012805D18103264802F086
:1025C00050F901287ED004F020FB06A9234A127896
:1025D000885400BF012109031F4802F042F9012875
:1025E000F8D1C1021C4802F03CF90128F2D10421C3
:1025F000194802F036F90128ECD18103164802F09F
:1026000030F90128E6D115480078401C13490870BC
:10261000074858E0920000209C000020370000206E
:10262000204E65772050617373776F7264202000AD
:10263000130000201F000020312E496E7075743A7F
:102640002020202020202000312E496E7075743A01
:102650005F202020202020000004004844000020AB
:10266000BC000020312E496E7075743A2A2020205B
:1026700020202000312E496E7075743A2A5F202088
:1026800020202000312E496E7075743A2A2A2020AD
:1026900020202000312E496E7075743A2A2A5F205E
:1026A00020202000312E496E7075743A2A2A2A2083
:1026B00020202000312E496E7075743A2A2A2A5F34
:1026C0002020200006E04078401CFC494870002093
:1026D000FB49C8805FE6FB480078002806D0012847
:1026E0000AD002280ED0032818D111E0F6A2012149
:1026F000084603F0DCFE11E0F7A20121084603F0D2
:10270000D6FE0BE0F0A20121084603F0D0FE05E062
:10271000F1A20121084603F0CAFE00BF00BF01215B
:102720000903F14802F09DF8012811D1C102EE48D9
:1027300002F097F801280BD10421EB4802F091F840
:10274000012805D18103E84802F08BF801282CD03C
:1027500004F05BFA06A9E54A1278885400BF01210B
:102760000903E14802F07DF80128F8D1C102DE48F2
:1027700002F077F80128F2D10421DB4802F071F869
:102780000128ECD18103D84802F06BF80128E6D18A
:10279000D6480078401CD5490870C8484078401C8D
:1027A000C64948700020C649C880F4E5C54800788D
:1027B000002806D001280AD002280ED0032818D1FC
:1027C00011E0CBA20121084603F071FE11E0CCA27A
:1027D0000121084603F06BFE0BE0C5A2012108466B
:1027E00003F065FE05E0C6A20121084603F05FFE86
:1027F00000BF00BF01210903BB4802F032F80128E5
:1028000011D1C102B84802F02CF801280BD10421E3
:10281000B54802F026F8012805D18103B24802F03C
:1028200020F8012835D004F0F0F906A9AF4A127853
:10283000885400BF01210903AB4802F012F80128B7
:10284000F8D1C102A84802F00CF80128F2D1042105
:10285000A54802F006F80128ECD18103A24802F055
:1028600000F80128E6D1A1480078401C9F49087073
:1028700092484078401C9149487000209049C88097
:10288000A3A20121084603F012FEFF20F53001F05B
:10289000CCFBF7E30121C903A14801F0E2FF0128C5
:1028A0007ED1142001F0C1FB0121C9039C4801F035
:1028B000D8FF0128F4D100208C4908707F49487066
:1028C00006A9684604F0ECFDFF20F53001F0ADFBF1
:1028D00003F0E5FD022001F0A8FB92A200210120F7
:1028E00003F0E5FDF9E375488078030004F056FE37
:1028F00008710572E3E2E1E0DF71724800780028B8
:1029000006D001280AD002280ED0032818D111E0E1
:1029100088A20121084603F0CAFD11E089A2012125
:10292000084603F0C4FD0BE082A20121084603F033
:10293000BEFD05E083A20121084603F0B8FD00BFFB
:1029400000BF01210903684801F08BFF012811D164
:10295000C102654801F085FF01280BD104216248BE
:1029600001F07FFF012805D181035F4801F079FF65
:1029700001282ED004F049F903A95C4A1278885442
:1029800000BF01210903584801F06BFF0128F8D16D
:10299000C102554801F065FF0128F2D1042100E091
:1029A000A0E3514801F05DFF0128EAD181034E48C0
:1029B00001F057FF0128E4D14C480078401C4B49F6
:1029C00008703E488078401C3C49887000203C4993
:1029D000C88081E33B480078002806D001280AD04F
:1029E00002280ED0032818D111E05AA2012108466E
:1029F00003F05DFD11E05BA20121084603F057FDE5
:102A00000BE054A20121084603F051FD05E055A258
:102A10000121084603F04BFD00BF00BF012109035F
:102A2000314801F01EFF012811D1C1022E4801F0EA
:102A300018FF01280BD104212B4801F012FF0128B7
:102A400005D18103284801F00CFF01282ED004F0A5
:102A5000DCF803A9254A1278885400BF0121090334
:102A6000214801F0FEFE0128F8D1C1021E4801F004
:102A7000F8FE0128F2D104211B4801F0F2FE0128E2
:102A8000ECD18103184801F0ECFE0128E6D117488B
:102A90000078401C1549087008488078401C074998
:102AA000887000E020E300200549C88014E316E2A6
:102AB000A1E135E1C9E05DE045E336E31300002024
:102AC000BC0000201F000020312E496E7075743A42
:102AD0002A2A2A2A20202000312E496E7075743A45
:102AE0002A2A2A2A5F2020000004004844000020EF
:102AF000312E496E7075743A2A2A2A2A2A2020001B
:102B0000312E496E7075743A2A2A2A2A2A5F2000CB
:102B1000312E496E7075743A2A2A2A2A2A2A2000F0
:102B200000080048204E65772050617373776F72FC
:102B300064000000322E496E7075743A2020202007
:102B400020202000322E496E7075743A5F202020BC
:102B500020202000322E496E7075743A2A202020E1
:102B600020202000322E496E7075743A2A5F202092
:102B700020202000FE480078002806D001280AD036
:102B800002280ED0032818D111E0FAA2012108462C
:102B900003F08DFC11E0FBA20121084603F087FC45
:102BA0000BE0F4A20121084603F081FC05E0F5A248
:102BB0000121084603F07BFC00BF00BF012109038F
:102BC000F44801F04EFE012811D1C102F14801F094
:102BD00048FE01280BD10421EE4801F042FE0128F5
:102BE00005D18103EB4801F03CFE01282CD004F014
:102BF0000CF803A9E84A1278885400BF01210903A0
:102C0000E44801F02EFE0128F8D1C102E14801F0AC
:102C100028FE0128F2D10421DE4801F022FE01281D
:102C2000ECD18103DB4801F01CFE0128E6D1DA4833
:102C30000078401CD8490870D8488078401CD74993
:102C400088700020D649C88046E2C948007800282C
:102C500006D001280AD002280ED0032818D111E08E
:102C6000D0A20121084603F022FC11E0D1A20121EB
:102C7000084603F01CFC0BE0CAA20121084603F041
:102C800016FC05E0CBA20121084603F010FC00BFB2
:102C900000BF01210903BF4801F0E3FD012811D164
:102CA000C102BC4801F0DDFD01280BD10421B94867
:102CB00001F0D7FD012805D18103B64801F0D1FD0F
:102CC00001282CD003F0A1FF03A9B34A127888543D
:102CD00000BF01210903AF4801F0C3FD0128F8D16D
:102CE000C102AC4801F0BDFD0128F2D10421A94880
:102CF00001F0B7FD0128ECD18103A64801F0B1FD38
:102D00000128E6D1A4480078401CA3490870A348D4
:102D10008078401CA14988700020A149C880DBE16F
:102D200093480078002806D001280AD002280ED047
:102D3000032818D111E0A3A20121084603F0B7FB34
:102D400011E0A4A20121084603F0B1FB0BE09DA213
:102D50000121084603F0ABFB05E09EA201210846D5
:102D600003F0A5FB00BF00BF01210903894801F062
:102D700078FD012811D1C102864801F072FD0128B9
:102D80000BD10421834801F06CFD012805D181039A
:102D9000804801F066FD01282CD003F036FF03A91E
:102DA0007D4A1278885400BF01210903794801F057
:102DB00058FD0128F8D1C102764801F052FD0128E2
:102DC000F2D10421734801F04CFD0128ECD18103BC
:102DD000704801F046FD0128E6D16F480078401C9C
:102DE0006D4908706D488078401C6C4988700020DF
:102DF0006B49C88070E15E480078002806D0012841
:102E00000AD002280ED0032818D111E075A20121A2
:102E1000084603F04CFB11E076A20121084603F0BE
:102E200046FB0BE06FA20121084603F040FB05E0E2
:102E300070A20121084603F03AFB00BF00BF012148
:102E40000903544801F00DFD012811D1C102514878
:102E500001F007FD01280BD104214E4801F001FDCE
:102E6000012805D181034B4801F0FBFC012835D036
:102E700003F0CBFE03A9484A1278885400BF012111
:102E80000903444801F0EDFC0128F8D1C102414892
:102E900001F0E7FC0128F2D104213E4801F0E1FCF9
:102EA0000128ECD181033B4801F0DBFC0128E6D18D
:102EB00039480078401C3849087038488078401CF0
:102EC0003649887000203649C8804EA20121084644
:102ED00003F0EDFAFF20F53001F0A7F8FCE0012146
:102EE000C9034C4801F0BDFC01283FD1142001F07A
:102EF0009CF80121C903474801F0B3FC012835D1F2
:102F000000202649887068460178007B81422ED1D6
:102F100068464178407B814229D168468178807B30
:102F2000814224D16846C178C07B81421FD1684666
:102F30000179007C81421AD168464179407C814206
:102F400015D100200A490870334908803349487177
:102F5000124948711049087010494870087088700B
:102F60002F48028803A92F4800685DE0B3E08AE09B
:102F70001F000020322E496E7075743A2A2A2020D4
:102F800020202000322E496E7075743A2A2A5F2064
:102F900020202000000400484400002013000020EE
:102FA000BC000020322E496E7075743A2A2A2A20FD
:102FB00020202000322E496E7075743A2A2A2A5F2A
:102FC00020202000322E496E7075743A2A2A2A2A4F
:102FD00020202000322E496E7075743A2A2A2A2A3F
:102FE0005F202000322E496E7075743A2A2A2A2AF0
:102FF0002A202000322E496E7075743A2A2A2A2A15
:103000002A5F2000322E496E7075743A2A2A2A2AC5
:103010002A2A20000008004838000020190000205B
:103020003C00002040000020FDF77DFBFD480288A9
:10303000FD49FE480068FDF79BFB0020FC49087035
:103040000BE0F948FA4A1278815CFAA004F096FA8B
:10305000F7480078401CF6490870F54800780628C3
:10306000EFDB03F01CFAF5A20021012003F01FFAA8
:10307000F6A20121084603F01AFA7D20000100F0B3
:10308000D4FF28E02FE0F5480088401CF349088071
:1030900003F005FAF2A20021012003F008FAF4A2DD
:1030A0000121084603F003FA7D20000100F0BDFF76
:1030B0000020F3490870F34948710120F249487132
:1030C0000870487088700020F0490870FEF7F0FC26
:1030D000FFF7E4F801E000BF00BFEB4840790028AB
:1030E00000D000E400BF00BFE7484079002801D0CD
:1030F000FFF7DAF817E0D9480088401CD749088064
:103100000020CB49087003F0CAF9E1A20021012098
:1031100003F0CDF9E24800F088FF03F0C0F9FEF7B4
:10312000C7FCFEF7E5FC00BF00BFD7484079002888
:1031300001D0FEF7F5FC01218903DA4801F091FB8B
:10314000012800D101E0FEF7EAFC00BFD6A004F0A0
:1031500015FA0CB010BD10B5B3480078002813D193
:10316000B148407800280FD1AF48807800280BD1B3
:10317000AD48C078002807D1AB480079002803D1BA
:10318000A9484079002817D0A7480078FF2818D10F
:10319000A5484078FF2814D1A3488078FF2810D193
:1031A000A148C078FF280CD19F480079FF2808D19A
:1031B0009D484079FF2804D1BE49BF4804F070F90A
:1031C0001FE0BC49984804F05DF9002804D1B949D2
:1031D000B94804F065F914E00020954908700CE046
:1031E000914893490978405CB349914A12788854D0
:1031F0008F480078401C8E4908708D48007806285A
:10320000EEDB10BD10B503F04AF90A2000F00DFF07
:10321000AAA20021012003F04AF9ACA2012108462C
:1032200003F045F900BF01210903AC4801F019FB87
:103230000028F8D0012189039A4801F012FB0028E8
:10324000F1D001214903974801F00BFB0028EAD097
:103250000121C903934801F004FB0128E3D040E0B9
:10326000012189038F4801F0FCFA00282FD19C49E5
:10327000C8809CA20121084603F019F97D20C000F6
:1032800000F0D3FE9BA20121084603F010F97D2037
:10329000C00000F0CAFE9BA20121084603F007F916
:1032A0007D20C00000F0C1FE06229A495F480068F8
:1032B000FDF739FA98A20121084603F0F8F87D20BD
:1032C000C00000F0B2FE00208549C88010BD012179
:1032D0004903744801F0C5FA002802D18049C8802A
:1032E000F4E7BDE710B5002400BF002401206649C3
:1032F0004871087000BF8CA20021012003F0D7F8AC
:10330000FEE3FDF741FA6048007808287ED24300CA
:103310007B449B885B009F44790007004901EB01D7
:103320008D026E031204C50455480078002806D0AB
:1033300001280AD002280ED0032818D111E07EA25D
:103340000121084603F0B3F811E07FA201210846ED
:1033500003F0ADF80BE078A20121084603F0A7F8CE
:1033600005E079A20121084603F0A1F800BF00BFE3
:103370000121C9034B4801F074FA012834D18103BB
:10338000484801F06EFA00282ED101214903454832
:1033900001F067FA002827D1012109034F4801F005
:1033A00060FA002820D1142000F03FFE0121C9035B
:1033B0003C4801F056FA012831D18103394801F027
:1033C00050FA00282BD101214903364801F049FA6F
:1033D000002824D101210903404801F042FA0028C5
:1033E0001DD1FFF70FFF80E7012109033B4801F0E2
:1033F00038FA012814D1C102384801F032FA012804
:103400000ED10421354801F02CFA00E011E2012828
:1034100006D18103314801F024FA01289CE0C4E080
:103420009BE000003C0000209C00002040000020A9
:103430003700002025580D0A000000004D6F646918
:1034400066792066696E6E69736821004E65772023
:1034500050617373776F7264204F6B0038000020E7
:10346000326E6420696E707574206572726F7200BE
:10347000506C7320696E70757420616761696E00AD
:103480001F0000201900002013000020440000202D
:103490002020496E6974204572726F7220200000EE
:1034A000DC050000000800486E69656E69656E699C
:1034B00065350000B47800089200002052657365FD
:1034C000742050617373776F726400004F70656E83
:1034D0003A592020436C6F73653A4E00000400484F
:1034E000BC00002020576169742052657365742008
:1034F0002E2E2E002057616974205265736574204A
:103500002E2E200020576169742052657365742047
:103510002E20200088000020205761697420526509
:10352000736574206F6B200050617373776F7264E2
:1035300020656E7465722000496E7075743A2020A3
:103540002020202020202000496E7075743A202011
:103550005F2020202020200027D003F056FBFE49CA
:10356000085500BF01210903FC4801F07AF9012840
:10357000F8D1C102F94801F074F90128F2D104210F
:10358000F64801F06EF90128ECD18103F34801F00F
:1035900068F90128E6D1601CC4B2F1480078401CEB
:1035A000EF4908700020EF49C88042E1EE480078FA
:1035B000002806D001280AD002280ED0032818D1EE
:1035C00011E0EAA20121084602F071FF11E0EBA22E
:1035D0000121084602F06BFF0BE0E4A2012108463E
:1035E00002F065FF05E0E5A20121084602F05FFF59
:1035F00000BF00BF0121C903E44801F032F90128EE
:1036000034D18103E14801F02CF900282ED10121A9
:103610004903DE4801F025F9002827D101210903DB
:10362000CE4801F01EF9002820D1142000F0FDFC46
:103630000121C903D54801F014F9012857D18103AC
:10364000D24801F00EF9002851D101214903CF4899
:1036500001F007F900284AD101210903BF4801F010
:1036600000F9002843D1FFF7CDFD3EE60121090313
:10367000BA4801F0F6F8012811D1C102B74801F0AB
:10368000F0F801280BD10421B44801F0EAF8012830
:1036900005D18103B14801F0E4F8012827D003F0F7
:1036A000B4FAAD49085500BF01210903AB4801F048
:1036B000D8F80128F8D1C102A84801F0D2F80128B1
:1036C000F2D10421A54801F0CCF80128ECD1810306
:1036D000A24801F0C6F80128E6D1601CC4B2A04897
:1036E0000078401C9E49087000209E49C88062E313
:1036F0009D480078002806D001280AD002280ED064
:10370000032818D111E0A2A20121084602F0CFFE41
:1037100011E0A3A20121084602F0C9FE0BE09CA221
:103720000121084602F0C3FE05E09DA201210846E2
:1037300002F0BDFE00BF00BF0121C903934801F0A4
:1037400090F8012834D18103904801F08AF80028CC
:103750002ED1012149038D4801F083F8002827D19B
:10376000012109037D4801F07CF8002820D11420B4
:1037700000F05BFC0121C903844801F072F80128C4
:1037800057D18103814801F06CF8002851D1012103
:1037900049037E4801F065F800284AD10121090358
:1037A0006E4801F05EF8002843D1FFF72BFD9CE541
:1037B00001210903694801F054F8012811D1C1021F
:1037C000664801F04EF801280BD10421634801F04E
:1037D00048F8012805D18103604801F042F801282A
:1037E00027D003F012FA5C49085500BF01210903F4
:1037F0005A4801F036F80128F8D1C102574801F0C3
:1038000030F80128F2D10421544801F02AF80128A7
:10381000ECD18103514801F024F80128E6D1601C65
:10382000C4B24F480078401C4D49087000204D49F3
:10383000C880C0E24C480078002806D001280AD091
:1038400002280ED0032818D111E059A20121084600
:1038500002F02DFE11E05AA20121084602F027FED7
:103860000BE053A20121084602F021FE05E054A21C
:103870000121084602F01BFE00BF00BF0121C90361
:10388000424800F0EEFF012834D181033F4800F0A8
:10389000E8FF00282ED1012149033C4800F0E1FF58
:1038A000002827D1012109032C4800F0DAFF002865
:1038B00020D1142000F0B9FB0121C903334800F0E6
:1038C000D0FF012846D18103304800F0CAFF00280C
:1038D00040D1012149032D4800F0C3FF002839D110
:1038E000012109031D4800F0BCFF002832D1FFF779
:1038F00089FCFAE401210903184800F0B2FF01280D
:1039000011D1C102154800F0ACFF01280BD10421F0
:10391000124800F0A6FF012805D181030F4800F0EE
:10392000A0FF012866D003F070F90B49085500BFCD
:1039300001210903094800F094FF0128F8D1C102D0
:10394000064800F08EFF0128F2D10421034800F060
:1039500088FF3DE04EE00000A60000200004004883
:1039600013000020BC0000201F000020496E70756D
:10397000743A20202A20202020202000496E7075D3
:10398000743A20202A5F20202020200000080048D0
:10399000496E7075743A20202A2A202020202000A9
:1039A000496E7075743A20202A2A5F20202020005A
:1039B000496E7075743A20202A2A2A20202020007F
:1039C000496E7075743A20202A2A2A5F2020200030
:1039D0000128ADD18103FB4800F043FF0128A7D1A6
:1039E000601CC4B2F8480078401CF74908700020F9
:1039F000F649C880DFE1F6480078002806D00128A3
:103A00000AD002280ED0032818D111E0F1A201211A
:103A1000084602F04CFD11E0F2A20121084602F036
:103A200046FD0BE0EBA20121084602F040FD05E057
:103A3000ECA20121084602F03AFD00BF00BF0121BF
:103A4000C903EC4800F00DFF012834D18103E94897
:103A500000F007FF00282ED101214903E54800F0BE
:103A600000FF002827D101210903D64800F0F9FE04
:103A7000002820D1142000F0D8FA0121C903DD4824
:103A800000F0EFFE012859D18103DA4800F0E9FE89
:103A9000002853D101214903D64800F0E2FE002856
:103AA0004CD101210903C74800F0DBFE002845D1B5
:103AB000FFF7A8FB19E401210903C24800F0D1FE79
:103AC000012811D1C102BF4800F0CBFE01280BD163
:103AD0000421BC4800F0C5FE012805D18103B94886
:103AE00000F0BFFE012829D003F08FF8C249085525
:103AF00000BF01210903B34800F0B3FE012800E034
:103B00005AE1F6D1C102AF4800F0ABFE0128F0D176
:103B10000421AC4800F0A5FE0128EAD18103A948A0
:103B200000F09FFE0128E4D1601CC4B2A6480078D2
:103B3000401CA54908700020A449C8803BE1A44866
:103B40000078002806D001280AD002280ED00328C9
:103B500018D111E0A9A20121084602F0A8FC11E049
:103B6000AAA20121084602F0A2FC0BE0A3A20121B7
:103B7000084602F09CFC05E0A4A20121084602F0E0
:103B800096FC00BF00BF0121C9039A4800F069FEFE
:103B9000012834D18103974800F063FE00282ED11C
:103BA00001214903934800F05CFE002827D1012140
:103BB0000903844800F055FE002820D1142000F0AD
:103BC00034FA0121C9038B4800F04BFE012868D16B
:103BD0008103884800F045FE002862D10121490395
:103BE000844800F03EFE00285BD10121090375489E
:103BF00000F037FE002854D1FFF704FB35E5012122
:103C00000903704800F02DFE012811D1C1026D4852
:103C100000F027FE01280BD104216A4800F021FEA4
:103C2000012805D18103674800F01BFE012838D028
:103C300002F0EBFF7049085500BF012109036148FC
:103C400000F00FFE0128F8D1C1025E4800F009FE25
:103C50000128F2D104215B4800F003FE0128ECD1D9
:103C60008103584800F0FDFD0128E6D1601CC4B274
:103C700055480078401C5449087068A20121084644
:103C800002F015FCFF20F53000F0CFF9674A012162
:103C9000084602F00CFC642000F0C7F900204B49F4
:103CA000C88088E062480288624963480068FCF77F
:103CB0005FFDFFF750FA5049604803F0E3FB00282E
:103CC00033D1434908705E4948713F4948710870D3
:103CD000002428E03E480078002806D001280AD0B9
:103CE00002280ED0032818D111E056A2012108465F
:103CF00002F0DDFB11E04D4A0121084602F0D7FB3E
:103D00000BE050A20121084602F0D1FB05E0474A32
:103D10000121084602F0CBFB00BF00BF2C48007811
:103D2000032800DB00E0D5E741E04A480088401C5A
:103D3000484908800020264908704149487128E018
:103D400023480078002806D001280AD002280ED087
:103D5000032818D111E040A20121084602F0A7FB78
:103D600011E0324A0121084602F0A1FB0BE03AA221
:103D70000121084602F09BFB05E02C4A0121084680
:103D800002F095FB00BF00BF11480078032800DB5C
:103D900000E0D5E700BF01200B49487100240870FE
:103DA000FDF786FE00200949C880FFF7A4FA00202D
:103DB0000649C88000BF00BF03484079002853D09F
:103DC000FFF79FFA0004004813000020BC00002009
:103DD0001F000020496E7075743A20202A2A2A2A72
:103DE00020202000496E7075743A20202A2A2A2A41
:103DF0005F20200000080048A6000020496E707572
:103E0000743A20202A2A2A2A2A202000496E707516
:103E1000743A20202A2A2A2A2A5F2000496E7075C7
:103E2000743A20202A2A2A2A2A2A20003835000813
:103E30003C0000209C000020400000209200002058
:103E400019000020496E7075743A20436F727265D4
:103E50006374210038000020496E7075743A204563
:103E600072726F722121210010BD8AB000BF002440
:103E700003F04FFA01A800F068FF00F0F1FE0446DD
:103E8000002C00DD00E000BF642000F0CEF8FCF75D
:103E90006DFAFCF719F902F045FBFCF7F3F9FCF7B2
:103EA000C3F9FCF730F902F0C3FF03F094F902F014
:103EB00043FA00203D49C8803D4A012102F0F7FA4B
:103EC0003CA20021084602F0F2FA00203749C880DF
:103ED0006AE0012109033C4800F0C3FC012855D1E8
:103EE000C102394800F0BDFC00284FD104213648FA
:103EF00000F0B7FC002849D101218903324800F0C5
:103F0000B0FC012842D1142000F08FF801210903F0
:103F10002D4800F0A6FC012838D1C1022A4800F043
:103F2000A0FC002832D10421274800F09AFC002888
:103F30002CD101218903244800F093FC012825D1CC
:103F400002F0ADFA0A2000F070F8204A00210120AA
:103F500002F0ADFA1D4A1C320121084602F0A7FA10
:103F600000BF0121C902184800F07BFC0028F8D0EE
:103F70000421154800F075FC0028F2D000200B4900
:103F8000C880FDF7B1FD00200849C880084A01211A
:103F9000002002F08CFA07A20021084602F087FAFE
:103FA000FCF705FCFCF7F0FB93E70000BC000020E9
:103FB000D81200082043696E656D61202073797303
:103FC00074656D200000000000040048081D000812
:103FD000704700BFFEE770477047704770B50446F2
:103FE0000D46E1B2184801F0C9FF00BF4021164854
:103FF00002F0DDF80028F9D0204670BD0FE0411C2A
:1040000088B2411E88B2411C88B2411E88B2411C50
:1040100088B2411E88B2411C88B2411E88B2014656
:10402000421E90B20029EAD17047014606E0002006
:1040300001E0421C90B2054A9042FADB0A464B1E50
:1040400099B2002AF3D1704700380140B80B000044
:1040500001460020FE4A10684008400002460A431C
:104060001046FB4A10607047002806D0F8490968DE
:1040700010221143F64A116005E0F5490968102243
:104080009143F34A116070470020F14909682022EA
:104090001140002901D0012000E000207047EC48C9
:1040A000006980210840002804D0EA48E8494860B7
:1040B000E94848607047E648006980210843E449C0
:1040C000086170470420E249C968C907C90F00297F
:1040D00001D0012010E0DE49C968102211400029FA
:1040E00001D0022008E0DA49C96804221140002901
:1040F00001D0032000E00420704710B503460424DB
:10410000FFF7E0FF044603E0FFF7DCFF04465B1E19
:10411000012C01D1002BF7D1002B00D10524204622
:1041200010BD30B5044604250B200004FFF7E5FF61
:104130000546042D17D1C648006902210843C44929
:10414000086108464461006940210843C04908618C
:104150000B200004FFF7D1FF0546BD48006902218E
:104160008843BB490861284630BD10B504240B20A4
:104170000004FFF7C2FF0446042C16D1B4480069BE
:1041800004210843B24908610846006940210843F8
:10419000AF4908610B200004FFF7AFFF0446AC48AD
:1041A000006904218843AA490861204610BD78B5FA
:1041B00006460C460425002000900B200004FFF763
:1041C0009CFF0546042D24D1A14800690121084324
:1041D0009F49086134800B200004FFF78EFF0546DD
:1041E000042D10D1B01C0090200C009908800B20E9
:1041F0000004FFF782FF054695480069400840002B
:104200009349086105E092480069400840009049E0
:104210000861284678BD70B504460D4604260B207B
:104220000004FFF76AFF0646042E11D18848006992
:10423000012108438649086125800B200004FFF70F
:104240005CFF0646824800694008400080490861DA
:10425000304670BD7E4800690121490208400028AF
:1042600004D17C487A4988607B48886070477848E8
:104270000069012149028843754908617047744803
:104280000069012149030843714908617047002012
:104290006F49C96906221140002901D0012000E0C0
:1042A0000020704730B5AA250424FFF7F0FF00284E
:1042B00000D000250B200004FFF71FFF0446042C4C
:1042C00036D16348006920210843614908610846E6
:1042D0000069402108435E4908610B200004FFF794
:1042E0000CFF0446042C1BD1594800692021884347
:1042F000574908610846006910210843544908617C
:10430000564805800B200004FFF7F7FE0446052CF5
:104310000ED04F480069102188434D49086107E0DD
:10432000052C05D04A480069102188434849086196
:10433000204630BDFCB50446494E37463046019014
:1043400000900425E443E6B22004070E2002000E8C
:104350000190200E00900B200004FFF7CEFE0546D2
:10436000042D3BD13A4800691021084338490861BF
:10437000FF2E06D0394806810B200004FFF7BDFE52
:104380000546042D08D1FF2F06D0344847810B2065
:104390000004FFF7B2FE0546042D0AD10198FF285C
:1043A00007D02E49019888810B200004FFF7A5FE55
:1043B0000546042D0AD10098FF2807D02749009808
:1043C000C8810B200004FFF798FE0546052D05D097
:1043D0001F480069102188431D4908612846FCBD1B
:1043E00030B5054604240B200004FFF786FE044682
:1043F000042C41D116480069202108431449086162
:104400000846006940210843114908610B20000457
:10441000FFF773FE0446042C26D10D4800692021C5
:1044200088430B4908610846006910210843084980
:1044300008610A4805800B200004FFF75EFE044671
:10444000052C19D00248006910218843004909E071
:104450000020024023016745AB89EFCD00F8FF1F24
:10446000FFFF0000086107E0052C05D0A2480069A5
:1044700020218843A0490861204630BDF0B505469B
:104480000E46174604240B200004FFF736FE0446B0
:10449000042C19D1984800691021084396490861F5
:1044A00028463043F82139430843944948800B207B
:1044B0000004FFF722FE0446052C05D08E48006953
:1044C000102188438C4908612046F0BD30B505466F
:1044D00004240B200004FFF710FE0446042C16D120
:1044E000854800691021084383490861EF2028436B
:1044F000824948800B200004FFF7FFFD0446052C8D
:1045000005D07D480069102188437B490861204619
:1045100030BD30B5054604240B200004FFF7EDFD47
:104520000446042C16D174480069102108437249CE
:104530000861F7202843714948800B200004FFF7E9
:10454000DCFD0446052C05D06B480069102188432A
:1045500069490861204630BD30B5054604240B206A
:104560000004FFF7CAFD0446042C16D16248006916
:1045700010210843604908617F2028435F49488033
:104580000B200004FFF7B9FD0446052C05D05A485E
:1045900000691021884358490861204630BD30B574
:1045A000054604240B200004FFF7A7FD0446042C55
:1045B00016D151480069102108434F490861DF2096
:1045C00028434E4948800B200004FFF796FD04461F
:1045D000052C05D0484800691021884346490861E8
:1045E000204630BD30B5054604240B200004FFF7FB
:1045F00084FD0446042C16D13F480069102108436D
:104600003D490861BF2028433C4948800B200004F5
:10461000FFF773FD0446052C05D0374800691021CB
:10462000884335490861204630BD30B5054604242D
:104630000B200004FFF761FD0446042C14D12E4822
:104640000069102108432C4908612C4845800B2043
:104650000004FFF752FD0446052C05D026480069EA
:104660001021884324490861204630BD70B50546B5
:104670000E4604240B200004FFF73FFD0446042CE3
:1046800013D11D480069102108431B4908612E8081
:104690000B200004FFF731FD0446052C05D0164819
:1046A00000691021884314490861204670BD1248F2
:1046B000C0690004000E70470F48006A7047002967
:1046C00005D00D4A126902430B4B1A6104E00A4AF5
:1046D00012698243084B1A61704701460020064A5E
:1046E000D2680A40002A01D0012000E00020704773
:1046F0000149C860704700000020024000F8FF1F19
:1047000010B504460920C006844209D1012148049D
:1047100000F064FC00210120400400F05FFC3CE05C
:104720007448844208D10121000200F057FC0021A6
:10473000200200F053FC30E06F48844208D1012190
:10474000000200F04BFC0021200200F047FC24E0B6
:104750006A48844209D10121080500F03FFC00218C
:104760000120000500F03AFC17E06548844208D1BA
:104770000121400200F032FC0021600200F02EFC1A
:104780000BE06048844208D10121880500F026FC36
:1047900000210120800500F021FC10BDF0B50A4683
:1047A00000210023002400BF3DE001258D402B4661
:1047B00015681D402C469C4234D11579012D02D03C
:1047C0001579022D16D185684F000326BE40B543EA
:1047D000856055794E00B54086683543856085888B
:1047E00001268E40B5438580858896798E40B6B285
:1047F0003543858005684F000326BE40B5430560FC
:1048000015794E00B540066835430560C5684F0010
:104810000326BE40B543C560D5794E00B540C66895
:104820003543C560491C1029BFD3F0BD364901602E
:10483000002101710121417100218171C171704715
:1048400008B5012212040092009A0A430092009ACD
:10485000C261C161009AC261C2690092C2690092DC
:1048600008BD02460020138A0B40002B01D0012016
:1048700000E0002070470146088A70470246002089
:10488000938A0B40002B01D0012000E000207047EC
:104890000146888A70478161704701857047002A08
:1048A00001D0816100E00185704781827047F0B5D9
:1048B000002300244D07EE0E1546B5402B46CD10C3
:1048C000AE0005462035AD594E07F70E0F26BE4007
:1048D000B543CE10B60007462037BD51CD10AE000F
:1048E0003D46AD591D432C46CD10AD003E4674519A
:1048F000F0BD00000004004800080048000C00481B
:104900000010004800140048FFFF000000218278DA
:10491000002A27D0274A03231B02D21803789B10B2
:104920009B00D15802789207D30EFF229A400B4683
:104930009343194642789207120E03789B07DB0EC9
:104940009A4011431B4A03231B02D21803789B1081
:104950009B00D1500278D306DB0E01229A40154B02
:104960001A6007E00278D306DB0E01229A40114B51
:1049700080331A607047002905D00F4A126902433C
:104980000D4B1A6104E00C4A126982430A4B1A610A
:104990007047042806D10949096904221143074ACE
:1049A000116105E00549096904229143034A116137
:1049B0007047000000E100E000ED00E000E000E0F2
:1049C000FB48006801210843F9490860084640682F
:1049D000F8490840F649486008460068F64908402A
:1049E000F349086008460068012189048843F049BA
:1049F0000860084640683F2109048843EC49486044
:104A00000846C06A00090001C8620846006BFF2121
:104A100054318843E64908630846406B400840002B
:104A200048630020886070470021E14A9170114678
:104A30008870704710B502460021002300205111F4
:104A4000002902D1DA4C23680BE0012902D1D84CAD
:104A5000236A06E0022902D1D54C636A01E0D44CF6
:104A6000636BD106C90E01248C401C40002C01D080
:104A7000012000E0002010BD38B500200090002487
:104A8000002500BF1120FFF7D5FF05460098401C08
:104A90000090052109030098884201D0002DF1D033
:104AA0001120FFF7C7FF002801D0012400E00024F7
:104AB000204638BD01460020BD4A1068F823024652
:104AC0009A431046CA001043B94A10607047002844
:104AD00006D0B749096801221143B54A116005E0C3
:104AE000B349096849084900B14A11607047014655
:104AF0000020AF4A506BF82302469A431046CA0082
:104B00001043AB4A50637047002806D0A849496B50
:104B100001221143A64A516305E0A549496B4908A2
:104B20004900A34A51637047002806D0A049496B49
:104B3000042291439E4A516305E09D49496B04223A
:104B400011439B4A516370479949096A49084900D2
:104B5000974A11621146096A04229143944A1162EC
:104B60001146096A0143116270479149096A182286
:104B700091438F4A11621146096A014311627047DD
:104B8000002806D08A49496A01221143884A5162A5
:104B900005E08749496A49084900854A51627047DA
:104BA000834A52687B23DB039A43814B5A601A463F
:104BB000526803460B431A437D4B5A6070470028E6
:104BC00007D07B490968012212061143784A116017
:104BD00006E077490968012212069143744A116080
:104BE0007047002807D07249496B01221204114313
:104BF0006F4A516306E06E49496B012212049143EA
:104C00006B4A5163704701460020694AD06A000927
:104C1000000102460A431046654AD06270470028E8
:104C200007D0634909680122D2041143604A116028
:104C300006E05F4909680122D20491435C4A116091
:104C400070475B49C871704701460020584A506858
:104C50008008800002460A431046554A506070475B
:104C6000534840680C210840704701460020504AD4
:104C70005068F02302469A43104602460A43104603
:104C80004B4A5060704701460020494A506807234C
:104C90001B0202469A43104602460A431046444A03
:104CA0005060704742494968012292039143404A4B
:104CB00051601146496882B211433D4A5160114624
:104CC000096B921591433A4A11631146096B020C24
:104CD0001143374A116370473549096B40229143AC
:104CE000334A11631146096B014311637047304920
:104CF000096B102291432E4A11631146096B01433F
:104D0000116370470021010F012906D1284A126B57
:104D100092089200264B1A6306E0254A126B032381
:104D20001B049A43224B1A63214A126B0243204B05
:104D30001A6370471E49096B802291431C4A116314
:104D40001146096B014311637047FEB50446002507
:104D5000002600200290019000900027144840682F
:104D60000C2108400546002D06D0042D07D0082D43
:104D700008D00C2D37D133E01048206036E00F48C2
:104D8000206033E00A4840680F2189040840064645
:104D9000074840680321C90308400290B00C861CF4
:104DA000029800280ED106483746474316E0000017
:104DB000001002400CB8FFF8FFFFF6FE00127A0068
:104DC00000093D00AC48C06A0007000F401C01907C
:104DD000AA48019902F02EFB70430746276005E0C0
:104DE000A748206002E0A548206000BF00BFA2489D
:104DF0004068F021084005462D09A248405D00901A
:104E000021680098C14061609B4840680721090201
:104E1000084005462D0A9B48405D00906168009857
:104E2000C140A1609448006BFF21013108408842D5
:104E300002D09548E0600DE08F4840680121890369
:104E40000840884203D0A0684008E06002E0A06803
:104E50008008E0608848006B40210840402802D06C
:104E60008A48206102E00120C00320618248006B73
:104E700010210840102802D08048606101E02068BD
:104E800060617D48006B8007800F002802D1A06818
:104E9000A06119E07848006B8007800F012802D1DB
:104EA0002068A06110E07448006B8007800F022822
:104EB00002D18003A06107E06F48006B8007800F7C
:104EC000032801D16D48A0616B48006B03210904E0
:104ED0000840002802D1A068E06120E06648006B2D
:104EE00003210904084001210904884202D12068F5
:104EF000E06114E06048006B0321090408400121CF
:104F00004904884202D18010E06108E05A48006BF1
:104F1000032109040840884201D15848E0615648FD
:104F2000006B80210840802802D05548206200E0B4
:104F30002762FEBD5049096A01434F4A116270471A
:104F4000002807D04C49096A0122D20311434A4A7A
:104F5000116206E04849096A0122D2039143464A98
:104F600011627047002807D04349096A01221204E0
:104F70001143414A116206E03F49096A01221204C5
:104F800091433D4A11627047002905D03A4A52695F
:104F90000243394B5A6104E0374A52698243364B27
:104FA0005A617047002905D0334A92690243324B57
:104FB0009A6104E0304A926982432F4B9A617047AC
:104FC000002905D02C4AD26902432B4BDA6104E058
:104FD000294AD2698243284BDA617047002905D0FB
:104FE000254A926A0243244B9A6204E0224A926A5A
:104FF0008243214B9A627047002905D01E4AD2682D
:1050000002431D4BDA6004E01B4AD26882431A4B0C
:10501000DA607047002905D0174A12690243164B1F
:105020001A6104E0144A12698243134B1A617047F3
:10503000002905D0104A527A02430F4B5A7204E0FD
:105040000D4A527A82430C4B5A7270470A48406AA2
:1050500001210906084308494862704701460020BB
:10506000054A92680A40002A01D0012000E0002091
:1050700070470149887270470010024000127A00A0
:10508000006CDC0246000020809FD50012800000EA
:1050900010B50446F748844208D10121C014FFF737
:1050A000ABFF0021E014FFF7A7FF62E001208007BB
:1050B000844208D101210846FFF7ACFF00210120FE
:1050C000FFF7A8FF55E0EC48844208D101210220F7
:1050D000FFF7A0FF00210220FFF79CFF49E0E7480F
:1050E000844208D101211020FFF794FF00211020F5
:1050F000FFF790FF3DE0E248844208D101212020E3
:10510000FFF788FF00212020FFF784FF31E0DD4812
:10511000844208D101218015FFF77CFF0021A015F2
:10512000FFF778FF25E0D848844209D1012108041F
:10513000FFF762FF002101200004FFF75DFF18E088
:10514000D248844209D101214804FFF755FF0021CC
:1051500001204004FFF750FF0BE0CD48844208D106
:1051600001218804FFF748FF002101208004FFF798
:1051700043FF10BD00220288BE4B984206D0012397
:105180009B07984202D0BC4B984203D1C14B1A40B6
:105190004B881A43B94B984203D0BF4B1A400B8936
:1051A0001A4302804B68C3620B880385B14B984257
:1051B00008D0B54B984205D0B44B984202D0B44BBE
:1051C000984201D18B7A03860123838270470021A4
:1051D000C943416000210180018141808172704793
:1051E0000185828270470A4600210188A94B194037
:1051F0000B46134319460180704741627047C162F4
:1052000070470146486A70470146088D704700297B
:1052100004D0028802231A43028004E002889D4BD6
:105220006E331A4002807047002904D0028804239C
:105230001A43028004E00288964B6C331A400280C5
:105240007047002904D0028880231A43028004E0BA
:105250000288904B103B1A400280704702888D4BA9
:1052600068331A40028002880A430280704702882D
:10527000894B1A40028002880A4302807047002945
:1052800004D0028801231A43028004E00288814B83
:105290006F331A40028070470A884B881A438B8804
:1052A0001A43CB881A430B891A434B891A438B89BB
:1052B0001A4344231A5270470021018041808180A3
:1052C000C1800181418181817047002907D044223A
:1052D000125A0123DB031A4344231A5205E04422E5
:1052E000125A53045B0C44221352704770B50024C9
:1052F00000220023058C674E6F3635400584028CF2
:105300008388048B634D2C40B51E2C400D882C43A4
:10531000751E2A408D892A434D882A43554DA8423F
:1053200008D0594DA84205D0584DA84202D0584D3A
:10533000A84212D1574D68352A40CD892A43554D90
:105340006C352A408D882A43524D903D2B40534D59
:105350002B400D8A2B434D8A2B43838004838D6819
:105360004563028470BD70B5002400220023058CC3
:10537000484E603635400584028C8388048B484D46
:105380002C40454D2C400D782D062D0C2C43414DC5
:1053900050352A408D892D052D0C2A434D882D0529
:1053A0002D0C2A43334DA84202D0374DA8421CD1C0
:1053B0003C4D2B400D8AAD042D0C2B432D4DA842A6
:1053C00013D1344D103D2A40CD892D052D0C2A4393
:1053D000304D30352A408D882D052D0C2A43324D15
:1053E0002B404D8AAD042D0C2B43838004838D68A4
:1053F0008563028470BD70B5002400220023058CF3
:10540000244E903E35400584028C8388848B214D48
:105410002C40204D6D352C400D882C431F4D2A40CB
:105420000D7B2D062D0C2A438D782D062D0C2A433D
:10543000104DA84217D11C4D2A408D7B2D062D0CF6
:105440002A43184D2A400D792D062D0C2A43174D5D
:105450002B40174D2B400D8A2D052D0C2B434D8ACB
:105460002D052D0C2B43838084838D68C5630284B6
:1054700070BD0000002C01400004004000100040FE
:105480000014004000200040004001400044014062
:10549000004801408FFF0000FFFC0000FFFD0000FE
:1054A000FF8F0000FFFB0000FFF70000FFEF000090
:1054B000FFDF000070B5002200230024058CF94EA8
:1054C00035400584038C8488828BF74D2A40F74D44
:1054D0002A400D782D062D0C2A43F54D2B400D7BCF
:1054E0002D072D0C2B438D782D072D0C2B43F14DC3
:1054F000A84205D1F04D2C400D8AAD052D0C2C4352
:10550000848082838D680564038470BD00210180DE
:105510004180818081608181C181018241827047A7
:1055200070B50346002000241846183001258D4030
:10553000ACB21D8CA5431D84002901D0082909D1D6
:105540004D10281805687026B54305600568154399
:1055500005600DE00D1F2D046D0C28180568072649
:105560003603B543056005681606360C35430560FD
:1055700070BD4163704781637047C16370470164C8
:1055800070470A460021018BCC4B19400B46134350
:105590001946018370470A460021018BC24B19400E
:1055A00013061B0C1943018370470A460021818BA7
:1055B000C24B19400B4613431946818370470A4674
:1055C0000021818BB84B194013061B0C19438183B2
:1055D0007047002904D0828801231A43828004E0A6
:1055E0008288B64B6F331A40828070470A4600218A
:1055F000018BB24B683319400B46134319460183A4
:1056000070470A460021018BAD4B194013061B0C55
:105610001943018370470A460021818BA74B6833E9
:1056200019400B4613431946818370470A460021EF
:10563000818BA34B194013061B0C194381837047C0
:105640000A460021018B9D4B6C3319400B461343D6
:105650001946018370470A460021018B994B194076
:1056600013061B0C1943018370470A460021818BE6
:10567000924B6C3319400B46134319468183704794
:105680000A460021818B8F4B194013061B0C1943CE
:10569000818370470A460021018B884B103B1940DB
:1056A0000B4613431946018370470A460021018BBC
:1056B0004904490C13061B0C1943018370470A4621
:1056C0000021818B7D4B103B19400B46134319463B
:1056D000818370470A460021818B4904490C1306D7
:1056E0001B0C1943818370470A460021018C734BC0
:1056F0006E3319400B4613431946018470470A461E
:105700000021018C6D4B683319400B461343194639
:10571000018470470A460021018C684B50331940C0
:1057200013051B0C1943018470470A460021018CA4
:10573000624B103B194013051B0C19430184704741
:105740000A460021018C604B194013061B0C1943BB
:10575000018470470A460021018C594B19401306F9
:105760001B0C1943018470470A460021018C504BE1
:10577000194013071B0C19430184704702894F4BD2
:1057800068331A40028102890A430281704730B5AA
:10579000002301248C40A3B2048C9C430484048C19
:1057A00015468D40ADB22C43048430BD30B5002386
:1057B00004248C40A3B2048C9C430484048C1546BE
:1057C0008D40ADB22C43048430BD002904D08288C2
:1057D00004231A43828004E08288384B6C331A40D9
:1057E00082807047828B394B1A408283828B0B06F2
:1057F0001B0C1A4382837047F8B50C460021002524
:1058000000260096068C274F3E400684818B058C2F
:105810002607360C00962E4E31401606360C3143C4
:105820001E07360C31432B4E354001273F03009EA7
:105830003E43354381830584F8BD828B1F4B64331F
:105840001A408283828B0A4382837047F8B50C46E4
:105850000021002500260096068C184F903F3E4000
:105860000684818B058C2606360C0096134E833EEB
:1058700031401E05360C16433143174E3540FF2785
:105880000137009E3E43354381830584F8BD028B7A
:105890000E4B1A400283028B0B061B0C1A43028329
:1058A00070470000FFEF0000FF8F0000FFFC0000CA
:1058B000FFDF0000002C0140FFBF00008FFF000051
:1058C000FFF70000FFFB0000FFFD0000FFF30000FA
:1058D000FF0C0000FF5F0000FFF50000F8B50C466C
:1058E0000021002500260096068CE64F3E400684E7
:1058F000018B058C2605360C0096E34E31401E07C1
:10590000360C31431606360C3143DE4E903E3540A0
:105910001027009E3E43354301830584F8BD028B6A
:10592000D84B1B1D1A400283028B0A430283704727
:10593000F0B50C4600210025068CD24F0F373E40B3
:105940000684018B058CCF4EE33E31401E05360C9C
:1059500016433143CB4EB61D354001262643354311
:1059600001830584F0BD70B505460C4620880028EB
:105970000AD12389A28861882846FFF7D9FFE188E8
:105980002846FFF7CCFF25E0208804280AD1238988
:10599000A28861882846FFF7A1FFE1882846FFF723
:1059A00076FF17E0208808280AD12389A288618819
:1059B0002846FFF74BFFE1882846FFF73EFF09E046
:1059C0002389A28861882846FFF716FFE1882846C8
:1059D000FFF708FF70BD0021018041800121818017
:1059E0000021C18001817047F8B505460C460026AC
:1059F00001276088002801D1022600E00026A08847
:105A0000012801D1022700E001272088002814D1B5
:105A10002389A28861882846FFF78AFFE188284603
:105A2000FFF77DFF23893A4631462846FFF756FFA8
:105A3000E1882846FFF72BFF13E02389A2886188BD
:105A40002846FFF74BFFE1882846FFF720FF238910
:105A50003A4631462846FFF76BFFE1882846FFF7B4
:105A60005EFFF8BD0146486B70470146886B704782
:105A70000146C86B70470146086C7047002A03D086
:105A800083890B43838102E083898B438381704741
:105A90008182704702460020138A0B40002B01D000
:105AA000012000E000207047CA430282704730B5F1
:105AB0000246002000230024158A0D402B469589BC
:105AC0000D402C46002B03D0002C01D0012000E01B
:105AD000002030BDCA430282704710B50B46134305
